{
  "_format": "hh-sol-artifact-1",
  "contractName": "SimpleNFT",
  "sourceName": "contracts/SimpleNFT.sol",
  "abi": [
    {
      "inputs": [
        {
          "internalType": "address",
          "name": "_buyToken",
          "type": "address"
        }
      ],
      "stateMutability": "nonpayable",
      "type": "constructor"
    },
    {
      "anonymous": false,
      "inputs": [
        {
          "indexed": true,
          "internalType": "address",
          "name": "owner",
          "type": "address"
        },
        {
          "indexed": true,
          "internalType": "address",
          "name": "approved",
          "type": "address"
        },
        {
          "indexed": true,
          "internalType": "uint256",
          "name": "tokenId",
          "type": "uint256"
        }
      ],
      "name": "Approval",
      "type": "event"
    },
    {
      "anonymous": false,
      "inputs": [
        {
          "indexed": true,
          "internalType": "address",
          "name": "owner",
          "type": "address"
        },
        {
          "indexed": true,
          "internalType": "address",
          "name": "operator",
          "type": "address"
        },
        {
          "indexed": false,
          "internalType": "bool",
          "name": "approved",
          "type": "bool"
        }
      ],
      "name": "ApprovalForAll",
      "type": "event"
    },
    {
      "anonymous": false,
      "inputs": [
        {
          "indexed": false,
          "internalType": "uint8",
          "name": "version",
          "type": "uint8"
        }
      ],
      "name": "Initialized",
      "type": "event"
    },
    {
      "anonymous": false,
      "inputs": [
        {
          "indexed": false,
          "internalType": "address",
          "name": "to",
          "type": "address"
        },
        {
          "indexed": false,
          "internalType": "uint256",
          "name": "id",
          "type": "uint256"
        }
      ],
      "name": "Mint",
      "type": "event"
    },
    {
      "anonymous": false,
      "inputs": [
        {
          "indexed": true,
          "internalType": "address",
          "name": "previousOwner",
          "type": "address"
        },
        {
          "indexed": true,
          "internalType": "address",
          "name": "newOwner",
          "type": "address"
        }
      ],
      "name": "OwnershipTransferred",
      "type": "event"
    },
    {
      "anonymous": false,
      "inputs": [
        {
          "indexed": false,
          "internalType": "uint256",
          "name": "id",
          "type": "uint256"
        }
      ],
      "name": "Received",
      "type": "event"
    },
    {
      "anonymous": false,
      "inputs": [
        {
          "indexed": true,
          "internalType": "address",
          "name": "from",
          "type": "address"
        },
        {
          "indexed": true,
          "internalType": "address",
          "name": "to",
          "type": "address"
        },
        {
          "indexed": true,
          "internalType": "uint256",
          "name": "tokenId",
          "type": "uint256"
        }
      ],
      "name": "Transfer",
      "type": "event"
    },
    {
      "inputs": [],
      "name": "BASE_URI",
      "outputs": [
        {
          "internalType": "string",
          "name": "",
          "type": "string"
        }
      ],
      "stateMutability": "view",
      "type": "function"
    },
    {
      "inputs": [],
      "name": "BRIDGE",
      "outputs": [
        {
          "internalType": "contract IMessageV3",
          "name": "",
          "type": "address"
        }
      ],
      "stateMutability": "view",
      "type": "function"
    },
    {
      "inputs": [],
      "name": "BRIDGE_PRICE",
      "outputs": [
        {
          "internalType": "uint256",
          "name": "",
          "type": "uint256"
        }
      ],
      "stateMutability": "view",
      "type": "function"
    },
    {
      "inputs": [],
      "name": "BUY_PRICE",
      "outputs": [
        {
          "internalType": "uint256",
          "name": "",
          "type": "uint256"
        }
      ],
      "stateMutability": "view",
      "type": "function"
    },
    {
      "inputs": [],
      "name": "BUY_TOKEN",
      "outputs": [
        {
          "internalType": "contract IERC20",
          "name": "",
          "type": "address"
        }
      ],
      "stateMutability": "view",
      "type": "function"
    },
    {
      "inputs": [
        {
          "internalType": "uint256",
          "name": "",
          "type": "uint256"
        }
      ],
      "name": "CHAINS",
      "outputs": [
        {
          "internalType": "uint256",
          "name": "fee",
          "type": "uint256"
        },
        {
          "internalType": "uint256",
          "name": "price",
          "type": "uint256"
        },
        {
          "internalType": "address",
          "name": "endpoint",
          "type": "address"
        },
        {
          "internalType": "uint16",
          "name": "confirmations",
          "type": "uint16"
        }
      ],
      "stateMutability": "view",
      "type": "function"
    },
    {
      "inputs": [],
      "name": "FEE_TOKEN",
      "outputs": [
        {
          "internalType": "contract IERC20",
          "name": "",
          "type": "address"
        }
      ],
      "stateMutability": "view",
      "type": "function"
    },
    {
      "inputs": [],
      "name": "REFERRAL",
      "outputs": [
        {
          "internalType": "address",
          "name": "",
          "type": "address"
        }
      ],
      "stateMutability": "view",
      "type": "function"
    },
    {
      "inputs": [],
      "name": "__MessageV3Client_init",
      "outputs": [],
      "stateMutability": "nonpayable",
      "type": "function"
    },
    {
      "inputs": [
        {
          "internalType": "address",
          "name": "to",
          "type": "address"
        },
        {
          "internalType": "uint256",
          "name": "tokenId",
          "type": "uint256"
        }
      ],
      "name": "approve",
      "outputs": [],
      "stateMutability": "nonpayable",
      "type": "function"
    },
    {
      "inputs": [
        {
          "internalType": "address",
          "name": "owner",
          "type": "address"
        }
      ],
      "name": "balanceOf",
      "outputs": [
        {
          "internalType": "uint256",
          "name": "",
          "type": "uint256"
        }
      ],
      "stateMutability": "view",
      "type": "function"
    },
    {
      "inputs": [
        {
          "internalType": "address",
          "name": "_to",
          "type": "address"
        },
        {
          "internalType": "uint256",
          "name": "_chainId",
          "type": "uint256"
        },
        {
          "internalType": "uint256",
          "name": "_nftId",
          "type": "uint256"
        }
      ],
      "name": "bridge",
      "outputs": [
        {
          "internalType": "uint256",
          "name": "_txId",
          "type": "uint256"
        }
      ],
      "stateMutability": "nonpayable",
      "type": "function"
    },
    {
      "inputs": [
        {
          "internalType": "address",
          "name": "_bridge",
          "type": "address"
        },
        {
          "internalType": "uint256[]",
          "name": "_chains",
          "type": "uint256[]"
        },
        {
          "internalType": "uint256[]",
          "name": "_prices",
          "type": "uint256[]"
        },
        {
          "internalType": "address[]",
          "name": "_endpoints",
          "type": "address[]"
        },
        {
          "internalType": "uint16[]",
          "name": "_confirmations",
          "type": "uint16[]"
        }
      ],
      "name": "configureBridge",
      "outputs": [],
      "stateMutability": "nonpayable",
      "type": "function"
    },
    {
      "inputs": [
        {
          "internalType": "uint256",
          "name": "tokenId",
          "type": "uint256"
        }
      ],
      "name": "getApproved",
      "outputs": [
        {
          "internalType": "address",
          "name": "",
          "type": "address"
        }
      ],
      "stateMutability": "view",
      "type": "function"
    },
    {
      "inputs": [],
      "name": "init",
      "outputs": [],
      "stateMutability": "nonpayable",
      "type": "function"
    },
    {
      "inputs": [
        {
          "internalType": "address",
          "name": "owner",
          "type": "address"
        },
        {
          "internalType": "address",
          "name": "operator",
          "type": "address"
        }
      ],
      "name": "isApprovedForAll",
      "outputs": [
        {
          "internalType": "bool",
          "name": "",
          "type": "bool"
        }
      ],
      "stateMutability": "view",
      "type": "function"
    },
    {
      "inputs": [
        {
          "internalType": "uint256",
          "name": "",
          "type": "uint256"
        },
        {
          "internalType": "uint256",
          "name": "_sourceChainId",
          "type": "uint256"
        },
        {
          "internalType": "address",
          "name": "_sender",
          "type": "address"
        },
        {
          "internalType": "address",
          "name": "",
          "type": "address"
        },
        {
          "internalType": "uint256",
          "name": "",
          "type": "uint256"
        },
        {
          "internalType": "bytes",
          "name": "_data",
          "type": "bytes"
        }
      ],
      "name": "messageProcess",
      "outputs": [],
      "stateMutability": "nonpayable",
      "type": "function"
    },
    {
      "inputs": [],
      "name": "mint",
      "outputs": [
        {
          "internalType": "uint256",
          "name": "_nftId",
          "type": "uint256"
        }
      ],
      "stateMutability": "nonpayable",
      "type": "function"
    },
    {
      "inputs": [],
      "name": "name",
      "outputs": [
        {
          "internalType": "string",
          "name": "",
          "type": "string"
        }
      ],
      "stateMutability": "view",
      "type": "function"
    },
    {
      "inputs": [],
      "name": "owner",
      "outputs": [
        {
          "internalType": "address",
          "name": "",
          "type": "address"
        }
      ],
      "stateMutability": "view",
      "type": "function"
    },
    {
      "inputs": [
        {
          "internalType": "uint256",
          "name": "tokenId",
          "type": "uint256"
        }
      ],
      "name": "ownerOf",
      "outputs": [
        {
          "internalType": "address",
          "name": "",
          "type": "address"
        }
      ],
      "stateMutability": "view",
      "type": "function"
    },
    {
      "inputs": [],
      "name": "renounceOwnership",
      "outputs": [],
      "stateMutability": "nonpayable",
      "type": "function"
    },
    {
      "inputs": [
        {
          "internalType": "address",
          "name": "from",
          "type": "address"
        },
        {
          "internalType": "address",
          "name": "to",
          "type": "address"
        },
        {
          "internalType": "uint256",
          "name": "tokenId",
          "type": "uint256"
        }
      ],
      "name": "safeTransferFrom",
      "outputs": [],
      "stateMutability": "nonpayable",
      "type": "function"
    },
    {
      "inputs": [
        {
          "internalType": "address",
          "name": "from",
          "type": "address"
        },
        {
          "internalType": "address",
          "name": "to",
          "type": "address"
        },
        {
          "internalType": "uint256",
          "name": "tokenId",
          "type": "uint256"
        },
        {
          "internalType": "bytes",
          "name": "data",
          "type": "bytes"
        }
      ],
      "name": "safeTransferFrom",
      "outputs": [],
      "stateMutability": "nonpayable",
      "type": "function"
    },
    {
      "inputs": [
        {
          "internalType": "address",
          "name": "operator",
          "type": "address"
        },
        {
          "internalType": "bool",
          "name": "approved",
          "type": "bool"
        }
      ],
      "name": "setApprovalForAll",
      "outputs": [],
      "stateMutability": "nonpayable",
      "type": "function"
    },
    {
      "inputs": [
        {
          "internalType": "address",
          "name": "_signer",
          "type": "address"
        }
      ],
      "name": "setExsig",
      "outputs": [],
      "stateMutability": "nonpayable",
      "type": "function"
    },
    {
      "inputs": [
        {
          "internalType": "uint256",
          "name": "_maxFee",
          "type": "uint256"
        }
      ],
      "name": "setMaxfee",
      "outputs": [],
      "stateMutability": "nonpayable",
      "type": "function"
    },
    {
      "inputs": [
        {
          "internalType": "uint256",
          "name": "_maxGas",
          "type": "uint256"
        }
      ],
      "name": "setMaxgas",
      "outputs": [],
      "stateMutability": "nonpayable",
      "type": "function"
    },
    {
      "inputs": [
        {
          "internalType": "bytes4",
          "name": "interfaceId",
          "type": "bytes4"
        }
      ],
      "name": "supportsInterface",
      "outputs": [
        {
          "internalType": "bool",
          "name": "",
          "type": "bool"
        }
      ],
      "stateMutability": "view",
      "type": "function"
    },
    {
      "inputs": [],
      "name": "symbol",
      "outputs": [
        {
          "internalType": "string",
          "name": "",
          "type": "string"
        }
      ],
      "stateMutability": "view",
      "type": "function"
    },
    {
      "inputs": [
        {
          "internalType": "uint256",
          "name": "index",
          "type": "uint256"
        }
      ],
      "name": "tokenByIndex",
      "outputs": [
        {
          "internalType": "uint256",
          "name": "",
          "type": "uint256"
        }
      ],
      "stateMutability": "view",
      "type": "function"
    },
    {
      "inputs": [
        {
          "internalType": "address",
          "name": "owner",
          "type": "address"
        },
        {
          "internalType": "uint256",
          "name": "index",
          "type": "uint256"
        }
      ],
      "name": "tokenOfOwnerByIndex",
      "outputs": [
        {
          "internalType": "uint256",
          "name": "",
          "type": "uint256"
        }
      ],
      "stateMutability": "view",
      "type": "function"
    },
    {
      "inputs": [
        {
          "internalType": "uint256",
          "name": "_nftId",
          "type": "uint256"
        }
      ],
      "name": "tokenURI",
      "outputs": [
        {
          "internalType": "string",
          "name": "_uri",
          "type": "string"
        }
      ],
      "stateMutability": "view",
      "type": "function"
    },
    {
      "inputs": [],
      "name": "totalSupply",
      "outputs": [
        {
          "internalType": "uint256",
          "name": "",
          "type": "uint256"
        }
      ],
      "stateMutability": "view",
      "type": "function"
    },
    {
      "inputs": [
        {
          "internalType": "address",
          "name": "from",
          "type": "address"
        },
        {
          "internalType": "address",
          "name": "to",
          "type": "address"
        },
        {
          "internalType": "uint256",
          "name": "tokenId",
          "type": "uint256"
        }
      ],
      "name": "transferFrom",
      "outputs": [],
      "stateMutability": "nonpayable",
      "type": "function"
    },
    {
      "inputs": [
        {
          "internalType": "address",
          "name": "newOwner",
          "type": "address"
        }
      ],
      "name": "transferOwnership",
      "outputs": [],
      "stateMutability": "nonpayable",
      "type": "function"
    },
    {
      "inputs": [
        {
          "internalType": "address",
          "name": "_owner",
          "type": "address"
        }
      ],
      "name": "walletOfOwner",
      "outputs": [
        {
          "internalType": "uint256[]",
          "name": "_nftIds",
          "type": "uint256[]"
        }
      ],
      "stateMutability": "view",
      "type": "function"
    }
  ],
  "bytecode": "0x60e060405260246080818152906200372160a03960ff9062000022908262000165565b5066038d7ea4c680006101005561010180546001600160a01b0319908116909155600061010255610103805490911673b11cadfdd2de8c84d626cc45bfe02b8effabb3ec1790553480156200007657600080fd5b506040516200374538038062003745833981016040819052620000999162000231565b61010180546001600160a01b0319166001600160a01b039290921691909117905562000263565b634e487b7160e01b600052604160045260246000fd5b600181811c90821680620000eb57607f821691505b6020821081036200010c57634e487b7160e01b600052602260045260246000fd5b50919050565b601f8211156200016057600081815260208120601f850160051c810160208610156200013b5750805b601f850160051c820191505b818110156200015c5782815560010162000147565b5050505b505050565b81516001600160401b03811115620001815762000181620000c0565b6200019981620001928454620000d6565b8462000112565b602080601f831160018114620001d15760008415620001b85750858301515b600019600386901b1c1916600185901b1785556200015c565b600085815260208120601f198616915b828110156200020257888601518255948401946001909101908401620001e1565b5085821015620002215787850151600019600388901b60f8161c191681555b5050505050600190811b01905550565b6000602082840312156200024457600080fd5b81516001600160a01b03811681146200025c57600080fd5b9392505050565b6134ae80620002736000396000f3fe608060405234801561001057600080fd5b50600436106102275760003560e01c8063715018a611610130578063c42a22d6116100b8578063e1c7392a1161007c578063e1c7392a146104e9578063e47ad74d146104f1578063e985e9c514610504578063ee9a31a214610540578063f2fde38b1461055357600080fd5b8063c42a22d61461049f578063c60853f6146104a7578063c63568c7146104ba578063c87b56dd146104ce578063dbddb26a146104e157600080fd5b806392ae12fd116100ff57806392ae12fd146103e657806395d89b411461045e578063a22cb46514610466578063b479a96114610479578063b88d4fde1461048c57600080fd5b8063715018a6146103a757806373717b08146103af5780637befab32146103c25780638da5cb5b146103d557600080fd5b80632f745c59116101b35780634f6ccce7116101825780634f6ccce7146103515780635f46e740146103645780636352211e14610377578063705fe4be1461038a57806370a082311461039457600080fd5b80632f745c59146102f75780634174a5961461030a57806342842e0e1461031e578063438b63001461033157600080fd5b8063095ea7b3116101fa578063095ea7b3146102ac5780630bf5d35e146102c15780631249c58b146102d457806318160ddd146102dc57806323b872dd146102e457600080fd5b806301ffc9a71461022c578063043c447c1461025457806306fdde031461026c578063081812fc14610281575b600080fd5b61023f61023a366004612ac2565b610566565b60405190151581526020015b60405180910390f35b61025e6101025481565b60405190815260200161024b565b610274610591565b60405161024b9190612b36565b61029461028f366004612b49565b610623565b6040516001600160a01b03909116815260200161024b565b6102bf6102ba366004612b77565b61064a565b005b61025e6102cf366004612ba3565b610764565b61025e6108a3565b60995461025e565b6102bf6102f2366004612bd8565b6108d8565b61025e610305366004612b77565b610909565b61010154610294906001600160a01b031681565b6102bf61032c366004612bd8565b61099f565b61034461033f366004612c19565b6109ba565b60405161024b9190612c36565b61025e61035f366004612b49565b610a59565b6102bf610372366004612c7a565b610aec565b610294610385366004612b49565b610bfb565b61025e6101005481565b61025e6103a2366004612c19565b610c5b565b6102bf610ce1565b60fc54610294906001600160a01b031681565b6102bf6103d0366004612d7b565b610cf5565b60c9546001600160a01b0316610294565b61042b6103f4366004612b49565b60fd602052600090815260409020805460018201546002909201549091906001600160a01b03811690600160a01b900461ffff1684565b60405161024b949392919093845260208401929092526001600160a01b0316604083015261ffff16606082015260800190565b61027461166a565b6102bf610474366004612e62565b611679565b6102bf610487366004612b49565b611688565b6102bf61049a366004612eb1565b6116f2565b6102bf61172a565b6102bf6104b5366004612c19565b611759565b61010354610294906001600160a01b031681565b6102746104dc366004612b49565b611793565b6102746117bf565b6102bf61184d565b6102bf6104ff366004612b49565b6119d9565b61023f610512366004612f91565b6001600160a01b039182166000908152606a6020908152604080832093909416825291909152205460ff1690565b60fb54610294906001600160a01b031681565b6102bf610561366004612c19565b611a12565b60006001600160e01b0319821663780e9d6360e01b148061058b575061058b82611a88565b92915050565b6060606580546105a090612fbf565b80601f01602080910402602001604051908101604052809291908181526020018280546105cc90612fbf565b80156106195780601f106105ee57610100808354040283529160200191610619565b820191906000526020600020905b8154815290600101906020018083116105fc57829003601f168201915b5050505050905090565b600061062e82611ad8565b506000908152606960205260409020546001600160a01b031690565b600061065582610bfb565b9050806001600160a01b0316836001600160a01b0316036106c75760405162461bcd60e51b815260206004820152602160248201527f4552433732313a20617070726f76616c20746f2063757272656e74206f776e656044820152603960f91b60648201526084015b60405180910390fd5b336001600160a01b03821614806106e357506106e38133610512565b6107555760405162461bcd60e51b815260206004820152603d60248201527f4552433732313a20617070726f76652063616c6c6572206973206e6f7420746f60448201527f6b656e206f776e6572206f7220617070726f76656420666f7220616c6c00000060648201526084016106be565b61075f8383611b37565b505050565b600082815260fd602052604081206002015483906001600160a01b03166107cd5760405162461bcd60e51b815260206004820152601c60248201527f64657374696e6174696f6e20636861696e206e6f74206163746976650000000060448201526064016106be565b6000838152606760205260409020546001600160a01b031633146108335760405162461bcd60e51b815260206004820152601760248201527f796f7520646f206e6f74206f776e2074686973206e667400000000000000000060448201526064016106be565b6101015461010254610852916001600160a01b03169033903090611ba5565b61085b83611bff565b604080516001600160a01b03878116602083015281830186905282518083038401815260609092019092526101035490916108999187911683611ca2565b9695505050505050565b60006108ca61010160009054906101000a90046001600160a01b0316333061010054611ba5565b6108d333611d6d565b905090565b6108e23382611e3e565b6108fe5760405162461bcd60e51b81526004016106be90612ff3565b61075f838383611ebd565b600061091483610c5b565b82106109765760405162461bcd60e51b815260206004820152602b60248201527f455243373231456e756d657261626c653a206f776e657220696e646578206f7560448201526a74206f6620626f756e647360a81b60648201526084016106be565b506001600160a01b03919091166000908152609760209081526040808320938352929052205490565b61075f838383604051806020016040528060008152506116f2565b606060006109c783610c5b565b90508067ffffffffffffffff8111156109e2576109e2612e9b565b604051908082528060200260200182016040528015610a0b578160200160208202803683370190505b50915060005b81811015610a5257610a238482610909565b838281518110610a3557610a35613040565b602090810291909101015280610a4a8161306c565b915050610a11565b5050919050565b6000610a6460995490565b8210610ac75760405162461bcd60e51b815260206004820152602c60248201527f455243373231456e756d657261626c653a20676c6f62616c20696e646578206f60448201526b7574206f6620626f756e647360a01b60648201526084016106be565b60998281548110610ada57610ada613040565b90600052602060002001549050919050565b60fb54859087906001600160a01b03163314610b3b5760405162461bcd60e51b815260206004820152600e60248201526d1b9bdd08185d5d1a1bdc9a5e995960921b60448201526064016106be565b600081815260fd60205260409020600201546001600160a01b03838116911614610b985760405162461bcd60e51b815260206004820152600e60248201526d1b9bdd08185d5d1a1bdc9a5e995960921b60448201526064016106be565b600080610ba785870187612b77565b915091507fa8142743f8f70a4c26f3691cf4ed59718381fb2f18070ec52be1f1022d85555781604051610bdc91815260200190565b60405180910390a1610bee828261202e565b5050505050505050505050565b6000818152606760205260408120546001600160a01b03168061058b5760405162461bcd60e51b8152602060048201526018602482015277115490cdcc8c4e881a5b9d985b1a59081d1bdad95b88125160421b60448201526064016106be565b60006001600160a01b038216610cc55760405162461bcd60e51b815260206004820152602960248201527f4552433732313a2061646472657373207a65726f206973206e6f7420612076616044820152683634b21037bbb732b960b91b60648201526084016106be565b506001600160a01b031660009081526068602052604090205490565b610ce9612048565b610cf360006120a2565b565b610cfd612048565b6001600160a01b0389166111ba5746600103610d1c576000985061116c565b4661a86a03610d2e576000985061116c565b4661210503610d40576000985061116c565b46603803610d51576000985061116c565b4661a4ec03610d63576000985061116c565b46601903610d74576000985061116c565b4660fa03610d85576000985061116c565b466106f103610d97576000985061116c565b466363564c4003610dab576000985061116c565b4661044003610dbd576000985061116c565b4661a51603610dcf576000985061116c565b46608903610de0576000985061116c565b4661017103610df2576000985061116c565b4662066eee03610e185773207cbca48258591cd1e953739c663184a02bb320985061116c565b46634e45415303610e3f57733b5b764229b2ede0162220af51ab6bf7f8527a4f985061116c565b4661a86903610e64577324beff24327c8e956d5fc74a5c502038683cdc0a985061116c565b4662014a3403610e8a577318716f6e46a66919deacd3c6fd4fa6da02fa30b2985061116c565b46606103610eae5773535cced6c471ee907eeb3bbecf1c8223208ca5e0985061116c565b46611e1503610ed357733b5b764229b2ede0162220af51ab6bf7f8527a4f985061116c565b4661aef303610ef857736e658066340c7cae09db68f5339ddc4b806d3598985061116c565b4661015203610f1d57738eb10fc1793094113e7f52ba159a6aeb54cab92c985061116c565b46610fa203610f4257737d474aa4dbdbc276b67abcc5f54262978b369cec985061116c565b466105ac03610f6757736c83dc6c5128ff3e073e737523d2176aaeb08525985061116c565b466127d803610f8c5773146449fb27e4a4b4721a9c5742f3bab1e34eb31f985061116c565b46636357d2e003610fb35773e0a5cbb1f15a84c4a4a0f7e98f9721997182ded6985061116c565b466108ad03610fd857733b5b764229b2ede0162220af51ab6bf7f8527a4f985061116c565b4661e70403610ffd57733b5b764229b2ede0162220af51ab6bf7f8527a4f985061116c565b466102570361102257734f313cb864bd7138fdb35337182d5b0e78d9fb33985061116c565b4661a515036110475773566b40dd59a868c244e1353368e08ddad1c1d74f985061116c565b46615aff0361106c5773566b40dd59a868c244e1353368e08ddad1c1d74f985061116c565b466041036110905773f1fbb3e9977dacf3909ab541792cb2bba10ffd5e985061116c565b4662aa37dc036110b65773b4245bfea4afe63c7f7863d090166890e9fef1b2985061116c565b4662013881036110dc577308a2d304547a4b93b254d906502a3fc778d78412985061116c565b466105a2036111015773ca877c797d599be2bf8c897a3b9eba6ba4113332985061116c565b466103af0361112657734f313cb864bd7138fdb35337182d5b0e78d9fb33985061116c565b466208274f0361114c577323e2ce1ff48cf21239f8c5eb783ce89df02b6f35985061116c565b4660c30361116c57734f313cb864bd7138fdb35337182d5b0e78d9fb3398505b6001600160a01b0389166111ba5760405162461bcd60e51b81526020600482015260156024820152741a5b9d985b1a590818da185a5b881a5b881b1a5cdd605a1b60448201526064016106be565b60fb80546001600160a01b0319166001600160a01b038b169081179091556040805163647846a560e01b8152905163647846a5916004808201926020929091908290030181865afa158015611213573d6000803e3d6000fd5b505050506040513d601f19601f820116820180604052508101906112379190613085565b60fc80546001600160a01b0319166001600160a01b03929092169190911790558660005b818110156114665760fb546001600160a01b03166327c7484e8b8b8481811061128657611286613040565b905060200201356040518263ffffffff1660e01b81526004016112ab91815260200190565b6020604051808303816000875af11580156112ca573d6000803e3d6000fd5b505050506040513d601f19601f820116820180604052508101906112ee91906130a2565b60fd60008c8c8581811061130457611304613040565b9050602002013581526020019081526020016000206000018190555083838281811061133257611332613040565b905060200201602081019061134791906130bb565b60fd60008c8c8581811061135d5761135d613040565b90506020020135815260200190815260200160002060020160146101000a81548161ffff021916908361ffff1602179055508585828181106113a1576113a1613040565b90506020020160208101906113b69190612c19565b60fd60008c8c858181106113cc576113cc613040565b90506020020135815260200190815260200160002060020160006101000a8154816001600160a01b0302191690836001600160a01b0316021790555087878281811061141a5761141a613040565b9050602002013560fd60008c8c8581811061143757611437613040565b90506020020135815260200190815260200160002060010181905550808061145e9061306c565b91505061125b565b5060fc546001600160a01b0316156114f45760fc5460fb5460405163095ea7b360e01b81526001600160a01b039182166004820152600019602482015291169063095ea7b3906044016020604051808303816000875af11580156114ce573d6000803e3d6000fd5b505050506040513d601f19601f820116820180604052508101906114f291906130df565b505b60fb5460408051633fc8cef360e01b815290516000926001600160a01b031691633fc8cef39160048083019260209291908290030181865afa15801561153e573d6000803e3d6000fd5b505050506040513d601f19601f820116820180604052508101906115629190613085565b6001600160a01b03161461165e5760fb60009054906101000a90046001600160a01b03166001600160a01b0316633fc8cef36040518163ffffffff1660e01b8152600401602060405180830381865afa1580156115c3573d6000803e3d6000fd5b505050506040513d601f19601f820116820180604052508101906115e79190613085565b60fb5460405163095ea7b360e01b81526001600160a01b039182166004820152600019602482015291169063095ea7b3906044016020604051808303816000875af115801561163a573d6000803e3d6000fd5b505050506040513d601f19601f82011682018060405250810190610bee91906130df565b50505050505050505050565b6060606680546105a090612fbf565b6116843383836120f4565b5050565b611690612048565b60fb5460405163b479a96160e01b8152600481018390526001600160a01b039091169063b479a961906024015b600060405180830381600087803b1580156116d757600080fd5b505af11580156116eb573d6000803e3d6000fd5b5050505050565b6116fc3383611e3e565b6117185760405162461bcd60e51b81526004016106be90612ff3565b611724848484846121c2565b50505050565b600054610100900460ff166117515760405162461bcd60e51b81526004016106be906130fc565b610cf36121f5565b611761612048565b60fb5460405163630429fb60e11b81526001600160a01b0383811660048301529091169063c60853f6906024016116bd565b606060ff826040516020016117a9929190613147565b6040516020818303038152906040529050919050565b60ff80546117cc90612fbf565b80601f01602080910402602001604051908101604052809291908181526020018280546117f890612fbf565b80156118455780601f1061181a57610100808354040283529160200191611845565b820191906000526020600020905b81548152906001019060200180831161182857829003601f168201915b505050505081565b600054610100900460ff161580801561186d5750600054600160ff909116105b806118875750303b158015611887575060005460ff166001145b6118ea5760405162461bcd60e51b815260206004820152602e60248201527f496e697469616c697a61626c653a20636f6e747261637420697320616c72656160448201526d191e481a5b9a5d1a585b1a5e995960921b60648201526084016106be565b6000805460ff19166001179055801561190d576000805461ff0019166101001790555b600054610100900460ff166119345760405162461bcd60e51b81526004016106be906130fc565b6119886040518060400160405280601681526020017514da5b5c1b194810dc9bdcdcc810da185a5b8813919560521b815250604051806040016040528060048152602001631cd3919560e21b815250612224565b61199061172a565b80156119d6576000805461ff0019169055604051600181527f7f26b83ff96e1f2b6a682f133852f6798a09c465da95921460cefb38474024989060200160405180910390a15b50565b6119e1612048565b60fb5460405163e47ad74d60e01b8152600481018390526001600160a01b039091169063e47ad74d906024016116bd565b611a1a612048565b6001600160a01b038116611a7f5760405162461bcd60e51b815260206004820152602660248201527f4f776e61626c653a206e6577206f776e657220697320746865207a65726f206160448201526564647265737360d01b60648201526084016106be565b6119d6816120a2565b60006001600160e01b031982166380ac58cd60e01b1480611ab957506001600160e01b03198216635b5e139f60e01b145b8061058b57506301ffc9a760e01b6001600160e01b031983161461058b565b6000818152606760205260409020546001600160a01b03166119d65760405162461bcd60e51b8152602060048201526018602482015277115490cdcc8c4e881a5b9d985b1a59081d1bdad95b88125160421b60448201526064016106be565b600081815260696020526040902080546001600160a01b0319166001600160a01b0384169081179091558190611b6c82610bfb565b6001600160a01b03167f8c5be1e5ebec7d5bd14f71427d1e84f3dd0314c0f7b2291e5b200ac8c7c3b92560405160405180910390a45050565b604080516001600160a01b0385811660248301528416604482015260648082018490528251808303909101815260849091019091526020810180516001600160e01b03166323b872dd60e01b179052611724908590612255565b6000611c0a82610bfb565b9050611c1a81600084600161232a565b611c2382610bfb565b600083815260696020908152604080832080546001600160a01b03199081169091556001600160a01b0385168085526068845282852080546000190190558785526067909352818420805490911690555192935084927fddf252ad1be2c89b69c2b068fc378daa952ba7f163c4a11628f55a4df523b3ef908390a45050565b600083815260fd60209081526040808320815160808101835281548152600182015493810193909352600201546001600160a01b03808216848401819052600160a01b90920461ffff166060850181905260fb549351633f6b724360e21b8152939091169263fdadc90c92611d219290918a91899189906004016131d0565b6020604051808303816000875af1158015611d40573d6000803e3d6000fd5b505050506040513d601f19601f82011682018060405250810190611d6491906130a2565b95945050505050565b600080611d7960fe5490565b90506103e88110611dc35760405162461bcd60e51b81526020600482015260146024820152736d696e74206174206d617820636170616369747960601b60448201526064016106be565b80611dd14662989680613214565b611ddb919061322b565b604080516001600160a01b0386168152602081018390529193507f0f6798a560793a54c3bcfe86a93cde1e73087d944c0ea20544137d4121396885910160405180910390a1611e2a838361202e565b611e3860fe80546001019055565b50919050565b600080611e4a83610bfb565b9050806001600160a01b0316846001600160a01b03161480611e9157506001600160a01b038082166000908152606a602090815260408083209388168352929052205460ff165b80611eb55750836001600160a01b0316611eaa84610623565b6001600160a01b0316145b949350505050565b826001600160a01b0316611ed082610bfb565b6001600160a01b031614611ef65760405162461bcd60e51b81526004016106be9061323e565b6001600160a01b038216611f585760405162461bcd60e51b8152602060048201526024808201527f4552433732313a207472616e7366657220746f20746865207a65726f206164646044820152637265737360e01b60648201526084016106be565b611f65838383600161232a565b826001600160a01b0316611f7882610bfb565b6001600160a01b031614611f9e5760405162461bcd60e51b81526004016106be9061323e565b600081815260696020908152604080832080546001600160a01b03199081169091556001600160a01b0387811680865260688552838620805460001901905590871680865283862080546001019055868652606790945282852080549092168417909155905184937fddf252ad1be2c89b69c2b068fc378daa952ba7f163c4a11628f55a4df523b3ef91a4505050565b611684828260405180602001604052806000815250612457565b60c9546001600160a01b03163314610cf35760405162461bcd60e51b815260206004820181905260248201527f4f776e61626c653a2063616c6c6572206973206e6f7420746865206f776e657260448201526064016106be565b60c980546001600160a01b038381166001600160a01b0319831681179093556040519116919082907f8be0079c531659141344cd1fd0a4f28419497f9722a3daafe3b4186f6b6457e090600090a35050565b816001600160a01b0316836001600160a01b0316036121555760405162461bcd60e51b815260206004820152601960248201527f4552433732313a20617070726f766520746f2063616c6c65720000000000000060448201526064016106be565b6001600160a01b038381166000818152606a6020908152604080832094871680845294825291829020805460ff191686151590811790915591519182527f17307eab39ab6107e8899845ad3d59bd9653f200f220920489ca2b5937696c31910160405180910390a3505050565b6121cd848484611ebd565b6121d98484848461248a565b6117245760405162461bcd60e51b81526004016106be90613283565b600054610100900460ff1661221c5760405162461bcd60e51b81526004016106be906130fc565b610cf361258b565b600054610100900460ff1661224b5760405162461bcd60e51b81526004016106be906130fc565b61168482826125bb565b60006122aa826040518060400160405280602081526020017f5361666545524332303a206c6f772d6c6576656c2063616c6c206661696c6564815250856001600160a01b03166125fb9092919063ffffffff16565b90508051600014806122cb5750808060200190518101906122cb91906130df565b61075f5760405162461bcd60e51b815260206004820152602a60248201527f5361666545524332303a204552433230206f7065726174696f6e20646964206e6044820152691bdd081cdd58d8d9595960b21b60648201526084016106be565b60018111156123995760405162461bcd60e51b815260206004820152603560248201527f455243373231456e756d657261626c653a20636f6e7365637574697665207472604482015274185b9cd9995c9cc81b9bdd081cdd5c1c1bdc9d1959605a1b60648201526084016106be565b816001600160a01b0385166123f5576123f081609980546000838152609a60205260408120829055600182018355919091527f72a152ddfb8e864297c917af52ea6c1c68aead0fee1a62673fcc7e0c94979d000155565b612418565b836001600160a01b0316856001600160a01b03161461241857612418858261260a565b6001600160a01b0384166124345761242f816126a7565b6116eb565b846001600160a01b0316846001600160a01b0316146116eb576116eb8482612756565b612461838361279a565b61246e600084848461248a565b61075f5760405162461bcd60e51b81526004016106be90613283565b60006001600160a01b0384163b1561258057604051630a85bd0160e11b81526001600160a01b0385169063150b7a02906124ce9033908990889088906004016132d5565b6020604051808303816000875af1925050508015612509575060408051601f3d908101601f1916820190925261250691810190613308565b60015b612566573d808015612537576040519150601f19603f3d011682016040523d82523d6000602084013e61253c565b606091505b50805160000361255e5760405162461bcd60e51b81526004016106be90613283565b805181602001fd5b6001600160e01b031916630a85bd0160e11b149050611eb5565b506001949350505050565b600054610100900460ff166125b25760405162461bcd60e51b81526004016106be906130fc565b610cf3336120a2565b600054610100900460ff166125e25760405162461bcd60e51b81526004016106be906130fc565b60656125ee8382613373565b50606661075f8282613373565b6060611eb58484600085612933565b6000600161261784610c5b565b6126219190613433565b600083815260986020526040902054909150808214612674576001600160a01b03841660009081526097602090815260408083208584528252808320548484528184208190558352609890915290208190555b5060009182526098602090815260408084208490556001600160a01b039094168352609781528383209183525290812055565b6099546000906126b990600190613433565b6000838152609a6020526040812054609980549394509092849081106126e1576126e1613040565b90600052602060002001549050806099838154811061270257612702613040565b6000918252602080832090910192909255828152609a9091526040808220849055858252812055609980548061273a5761273a613446565b6001900381819060005260206000200160009055905550505050565b600061276183610c5b565b6001600160a01b039093166000908152609760209081526040808320868452825280832085905593825260989052919091209190915550565b6001600160a01b0382166127f05760405162461bcd60e51b815260206004820181905260248201527f4552433732313a206d696e7420746f20746865207a65726f206164647265737360448201526064016106be565b6000818152606760205260409020546001600160a01b0316156128555760405162461bcd60e51b815260206004820152601c60248201527f4552433732313a20746f6b656e20616c7265616479206d696e7465640000000060448201526064016106be565b61286360008383600161232a565b6000818152606760205260409020546001600160a01b0316156128c85760405162461bcd60e51b815260206004820152601c60248201527f4552433732313a20746f6b656e20616c7265616479206d696e7465640000000060448201526064016106be565b6001600160a01b038216600081815260686020908152604080832080546001019055848352606790915280822080546001600160a01b0319168417905551839291907fddf252ad1be2c89b69c2b068fc378daa952ba7f163c4a11628f55a4df523b3ef908290a45050565b6060824710156129945760405162461bcd60e51b815260206004820152602660248201527f416464726573733a20696e73756666696369656e742062616c616e636520666f6044820152651c8818d85b1b60d21b60648201526084016106be565b600080866001600160a01b031685876040516129b0919061345c565b60006040518083038185875af1925050503d80600081146129ed576040519150601f19603f3d011682016040523d82523d6000602084013e6129f2565b606091505b5091509150612a0387838387612a0e565b979650505050505050565b60608315612a7d578251600003612a76576001600160a01b0385163b612a765760405162461bcd60e51b815260206004820152601d60248201527f416464726573733a2063616c6c20746f206e6f6e2d636f6e747261637400000060448201526064016106be565b5081611eb5565b611eb58383815115612a925781518083602001fd5b8060405162461bcd60e51b81526004016106be9190612b36565b6001600160e01b0319811681146119d657600080fd5b600060208284031215612ad457600080fd5b8135612adf81612aac565b9392505050565b60005b83811015612b01578181015183820152602001612ae9565b50506000910152565b60008151808452612b22816020860160208601612ae6565b601f01601f19169290920160200192915050565b602081526000612adf6020830184612b0a565b600060208284031215612b5b57600080fd5b5035919050565b6001600160a01b03811681146119d657600080fd5b60008060408385031215612b8a57600080fd5b8235612b9581612b62565b946020939093013593505050565b600080600060608486031215612bb857600080fd5b8335612bc381612b62565b95602085013595506040909401359392505050565b600080600060608486031215612bed57600080fd5b8335612bf881612b62565b92506020840135612c0881612b62565b929592945050506040919091013590565b600060208284031215612c2b57600080fd5b8135612adf81612b62565b6020808252825182820181905260009190848201906040850190845b81811015612c6e57835183529284019291840191600101612c52565b50909695505050505050565b600080600080600080600060c0888a031215612c9557600080fd5b87359650602088013595506040880135612cae81612b62565b94506060880135612cbe81612b62565b93506080880135925060a088013567ffffffffffffffff80821115612ce257600080fd5b818a0191508a601f830112612cf657600080fd5b813581811115612d0557600080fd5b8b6020828501011115612d1757600080fd5b60208301945080935050505092959891949750929550565b60008083601f840112612d4157600080fd5b50813567ffffffffffffffff811115612d5957600080fd5b6020830191508360208260051b8501011115612d7457600080fd5b9250929050565b600080600080600080600080600060a08a8c031215612d9957600080fd5b8935612da481612b62565b985060208a013567ffffffffffffffff80821115612dc157600080fd5b612dcd8d838e01612d2f565b909a50985060408c0135915080821115612de657600080fd5b612df28d838e01612d2f565b909850965060608c0135915080821115612e0b57600080fd5b612e178d838e01612d2f565b909650945060808c0135915080821115612e3057600080fd5b50612e3d8c828d01612d2f565b915080935050809150509295985092959850929598565b80151581146119d657600080fd5b60008060408385031215612e7557600080fd5b8235612e8081612b62565b91506020830135612e9081612e54565b809150509250929050565b634e487b7160e01b600052604160045260246000fd5b60008060008060808587031215612ec757600080fd5b8435612ed281612b62565b93506020850135612ee281612b62565b925060408501359150606085013567ffffffffffffffff80821115612f0657600080fd5b818701915087601f830112612f1a57600080fd5b813581811115612f2c57612f2c612e9b565b604051601f8201601f19908116603f01168101908382118183101715612f5457612f54612e9b565b816040528281528a6020848701011115612f6d57600080fd5b82602086016020830137600060208483010152809550505050505092959194509250565b60008060408385031215612fa457600080fd5b8235612faf81612b62565b91506020830135612e9081612b62565b600181811c90821680612fd357607f821691505b602082108103611e3857634e487b7160e01b600052602260045260246000fd5b6020808252602d908201527f4552433732313a2063616c6c6572206973206e6f7420746f6b656e206f776e6560408201526c1c881bdc88185c1c1c9bdd9959609a1b606082015260800190565b634e487b7160e01b600052603260045260246000fd5b634e487b7160e01b600052601160045260246000fd5b60006001820161307e5761307e613056565b5060010190565b60006020828403121561309757600080fd5b8151612adf81612b62565b6000602082840312156130b457600080fd5b5051919050565b6000602082840312156130cd57600080fd5b813561ffff81168114612adf57600080fd5b6000602082840312156130f157600080fd5b8151612adf81612e54565b6020808252602b908201527f496e697469616c697a61626c653a20636f6e7472616374206973206e6f74206960408201526a6e697469616c697a696e6760a81b606082015260800190565b600080845461315581612fbf565b6001828116801561316d5760018114613182576131b1565b60ff19841687528215158302870194506131b1565b8860005260208060002060005b858110156131a85781548a82015290840190820161318f565b50505082870194505b50505093815264173539b7b760d91b6020820152602501949350505050565b60018060a01b038616815284602082015260a0604082015260006131f760a0830186612b0a565b61ffff949094166060830152509015156080909101529392505050565b808202811582820484141761058b5761058b613056565b8082018082111561058b5761058b613056565b60208082526025908201527f4552433732313a207472616e736665722066726f6d20696e636f72726563742060408201526437bbb732b960d91b606082015260800190565b60208082526032908201527f4552433732313a207472616e7366657220746f206e6f6e20455243373231526560408201527131b2b4bb32b91034b6b83632b6b2b73a32b960711b606082015260800190565b6001600160a01b038581168252841660208201526040810183905260806060820181905260009061089990830184612b0a565b60006020828403121561331a57600080fd5b8151612adf81612aac565b601f82111561075f57600081815260208120601f850160051c8101602086101561334c5750805b601f850160051c820191505b8181101561336b57828155600101613358565b505050505050565b815167ffffffffffffffff81111561338d5761338d612e9b565b6133a18161339b8454612fbf565b84613325565b602080601f8311600181146133d657600084156133be5750858301515b600019600386901b1c1916600185901b17855561336b565b600085815260208120601f198616915b82811015613405578886015182559484019460019091019084016133e6565b50858210156134235787850151600019600388901b60f8161c191681555b5050505050600190811b01905550565b8181038181111561058b5761058b613056565b634e487b7160e01b600052603160045260246000fd5b6000825161346e818460208701612ae6565b919091019291505056fea26469706673582212208845ce3c4296204ea17be5974e695418e8ecc0e78ce9a86820d97e2ccbdd863964736f6c6343000811003368747470733a2f2f6e6674732e73332e64652e696f2e636c6f75642e6f76682e6e65742f",
  "linkReferences": {},
  "deployedLinkReferences": {}
}