{"contracts/SimpleNFT.sol":{"SimpleNFT":{"abi":[{"inputs":[{"internalType":"address","name":"_buyToken","type":"address"}],"stateMutability":"nonpayable","type":"constructor"},{"anonymous":false,"inputs":[{"indexed":true,"internalType":"address","name":"owner","type":"address"},{"indexed":true,"internalType":"address","name":"approved","type":"address"},{"indexed":true,"internalType":"uint256","name":"tokenId","type":"uint256"}],"name":"Approval","type":"event"},{"anonymous":false,"inputs":[{"indexed":true,"internalType":"address","name":"owner","type":"address"},{"indexed":true,"internalType":"address","name":"operator","type":"address"},{"indexed":false,"internalType":"bool","name":"approved","type":"bool"}],"name":"ApprovalForAll","type":"event"},{"anonymous":false,"inputs":[{"indexed":false,"internalType":"uint8","name":"version","type":"uint8"}],"name":"Initialized","type":"event"},{"anonymous":false,"inputs":[{"indexed":false,"internalType":"address","name":"to","type":"address"},{"indexed":false,"internalType":"uint256","name":"id","type":"uint256"}],"name":"Mint","type":"event"},{"anonymous":false,"inputs":[{"indexed":true,"internalType":"address","name":"previousOwner","type":"address"},{"indexed":true,"internalType":"address","name":"newOwner","type":"address"}],"name":"OwnershipTransferred","type":"event"},{"anonymous":false,"inputs":[{"indexed":false,"internalType":"uint256","name":"id","type":"uint256"}],"name":"Received","type":"event"},{"anonymous":false,"inputs":[{"indexed":true,"internalType":"address","name":"from","type":"address"},{"indexed":true,"internalType":"address","name":"to","type":"address"},{"indexed":true,"internalType":"uint256","name":"tokenId","type":"uint256"}],"name":"Transfer","type":"event"},{"inputs":[],"name":"BASE_URI","outputs":[{"internalType":"string","name":"","type":"string"}],"stateMutability":"view","type":"function"},{"inputs":[],"name":"BRIDGE","outputs":[{"internalType":"contract IMessageV3","name":"","type":"address"}],"stateMutability":"view","type":"function"},{"inputs":[],"name":"BRIDGE_PRICE","outputs":[{"internalType":"uint256","name":"","type":"uint256"}],"stateMutability":"view","type":"function"},{"inputs":[],"name":"BUY_PRICE","outputs":[{"internalType":"uint256","name":"","type":"uint256"}],"stateMutability":"view","type":"function"},{"inputs":[],"name":"BUY_TOKEN","outputs":[{"internalType":"contract IERC20","name":"","type":"address"}],"stateMutability":"view","type":"function"},{"inputs":[{"internalType":"uint256","name":"","type":"uint256"}],"name":"CHAINS","outputs":[{"internalType":"uint256","name":"fee","type":"uint256"},{"internalType":"uint256","name":"price","type":"uint256"},{"internalType":"address","name":"endpoint","type":"address"},{"internalType":"uint16","name":"confirmations","type":"uint16"}],"stateMutability":"view","type":"function"},{"inputs":[],"name":"FEE_TOKEN","outputs":[{"internalType":"contract IERC20","name":"","type":"address"}],"stateMutability":"view","type":"function"},{"inputs":[],"name":"REFERRAL","outputs":[{"internalType":"address","name":"","type":"address"}],"stateMutability":"view","type":"function"},{"inputs":[],"name":"__MessageV3Client_init","outputs":[],"stateMutability":"nonpayable","type":"function"},{"inputs":[{"internalType":"address","name":"to","type":"address"},{"internalType":"uint256","name":"tokenId","type":"uint256"}],"name":"approve","outputs":[],"stateMutability":"nonpayable","type":"function"},{"inputs":[{"internalType":"address","name":"owner","type":"address"}],"name":"balanceOf","outputs":[{"internalType":"uint256","name":"","type":"uint256"}],"stateMutability":"view","type":"function"},{"inputs":[{"internalType":"address","name":"_to","type":"address"},{"internalType":"uint256","name":"_chainId","type":"uint256"},{"internalType":"uint256","name":"_nftId","type":"uint256"}],"name":"bridge","outputs":[{"internalType":"uint256","name":"_txId","type":"uint256"}],"stateMutability":"nonpayable","type":"function"},{"inputs":[{"internalType":"address","name":"_bridge","type":"address"},{"internalType":"uint256[]","name":"_chains","type":"uint256[]"},{"internalType":"uint256[]","name":"_prices","type":"uint256[]"},{"internalType":"address[]","name":"_endpoints","type":"address[]"},{"internalType":"uint16[]","name":"_confirmations","type":"uint16[]"}],"name":"configureBridge","outputs":[],"stateMutability":"nonpayable","type":"function"},{"inputs":[{"internalType":"uint256","name":"tokenId","type":"uint256"}],"name":"getApproved","outputs":[{"internalType":"address","name":"","type":"address"}],"stateMutability":"view","type":"function"},{"inputs":[],"name":"init","outputs":[],"stateMutability":"nonpayable","type":"function"},{"inputs":[{"internalType":"address","name":"owner","type":"address"},{"internalType":"address","name":"operator","type":"address"}],"name":"isApprovedForAll","outputs":[{"internalType":"bool","name":"","type":"bool"}],"stateMutability":"view","type":"function"},{"inputs":[{"internalType":"uint256","name":"","type":"uint256"},{"internalType":"uint256","name":"_sourceChainId","type":"uint256"},{"internalType":"address","name":"_sender","type":"address"},{"internalType":"address","name":"","type":"address"},{"internalType":"uint256","name":"","type":"uint256"},{"internalType":"bytes","name":"_data","type":"bytes"}],"name":"messageProcess","outputs":[],"stateMutability":"nonpayable","type":"function"},{"inputs":[],"name":"mint","outputs":[{"internalType":"uint256","name":"_nftId","type":"uint256"}],"stateMutability":"nonpayable","type":"function"},{"inputs":[],"name":"name","outputs":[{"internalType":"string","name":"","type":"string"}],"stateMutability":"view","type":"function"},{"inputs":[],"name":"owner","outputs":[{"internalType":"address","name":"","type":"address"}],"stateMutability":"view","type":"function"},{"inputs":[{"internalType":"uint256","name":"tokenId","type":"uint256"}],"name":"ownerOf","outputs":[{"internalType":"address","name":"","type":"address"}],"stateMutability":"view","type":"function"},{"inputs":[],"name":"renounceOwnership","outputs":[],"stateMutability":"nonpayable","type":"function"},{"inputs":[{"internalType":"address","name":"from","type":"address"},{"internalType":"address","name":"to","type":"address"},{"internalType":"uint256","name":"tokenId","type":"uint256"}],"name":"safeTransferFrom","outputs":[],"stateMutability":"nonpayable","type":"function"},{"inputs":[{"internalType":"address","name":"from","type":"address"},{"internalType":"address","name":"to","type":"address"},{"internalType":"uint256","name":"tokenId","type":"uint256"},{"internalType":"bytes","name":"data","type":"bytes"}],"name":"safeTransferFrom","outputs":[],"stateMutability":"nonpayable","type":"function"},{"inputs":[{"internalType":"address","name":"operator","type":"address"},{"internalType":"bool","name":"approved","type":"bool"}],"name":"setApprovalForAll","outputs":[],"stateMutability":"nonpayable","type":"function"},{"inputs":[{"internalType":"address","name":"_signer","type":"address"}],"name":"setExsig","outputs":[],"stateMutability":"nonpayable","type":"function"},{"inputs":[{"internalType":"uint256","name":"_maxFee","type":"uint256"}],"name":"setMaxfee","outputs":[],"stateMutability":"nonpayable","type":"function"},{"inputs":[{"internalType":"uint256","name":"_maxGas","type":"uint256"}],"name":"setMaxgas","outputs":[],"stateMutability":"nonpayable","type":"function"},{"inputs":[{"internalType":"bytes4","name":"interfaceId","type":"bytes4"}],"name":"supportsInterface","outputs":[{"internalType":"bool","name":"","type":"bool"}],"stateMutability":"view","type":"function"},{"inputs":[],"name":"symbol","outputs":[{"internalType":"string","name":"","type":"string"}],"stateMutability":"view","type":"function"},{"inputs":[{"internalType":"uint256","name":"index","type":"uint256"}],"name":"tokenByIndex","outputs":[{"internalType":"uint256","name":"","type":"uint256"}],"stateMutability":"view","type":"function"},{"inputs":[{"internalType":"address","name":"owner","type":"address"},{"internalType":"uint256","name":"index","type":"uint256"}],"name":"tokenOfOwnerByIndex","outputs":[{"internalType":"uint256","name":"","type":"uint256"}],"stateMutability":"view","type":"function"},{"inputs":[{"internalType":"uint256","name":"_nftId","type":"uint256"}],"name":"tokenURI","outputs":[{"internalType":"string","name":"_uri","type":"string"}],"stateMutability":"view","type":"function"},{"inputs":[],"name":"totalSupply","outputs":[{"internalType":"uint256","name":"","type":"uint256"}],"stateMutability":"view","type":"function"},{"inputs":[{"internalType":"address","name":"from","type":"address"},{"internalType":"address","name":"to","type":"address"},{"internalType":"uint256","name":"tokenId","type":"uint256"}],"name":"transferFrom","outputs":[],"stateMutability":"nonpayable","type":"function"},{"inputs":[{"internalType":"address","name":"newOwner","type":"address"}],"name":"transferOwnership","outputs":[],"stateMutability":"nonpayable","type":"function"},{"inputs":[{"internalType":"address","name":"_owner","type":"address"}],"name":"walletOfOwner","outputs":[{"internalType":"uint256[]","name":"_nftIds","type":"uint256[]"}],"stateMutability":"view","type":"function"}],"devdoc":{"kind":"dev","methods":{"approve(address,uint256)":{"details":"See {IERC721-approve}."},"balanceOf(address)":{"details":"See {IERC721-balanceOf}."},"getApproved(uint256)":{"details":"See {IERC721-getApproved}."},"isApprovedForAll(address,address)":{"details":"See {IERC721-isApprovedForAll}."},"name()":{"details":"See {IERC721Metadata-name}."},"owner()":{"details":"Returns the address of the current owner."},"ownerOf(uint256)":{"details":"See {IERC721-ownerOf}."},"renounceOwnership()":{"details":"Leaves the contract without owner. It will not be possible to call `onlyOwner` functions. Can only be called by the current owner. NOTE: Renouncing ownership will leave the contract without an owner, thereby disabling any functionality that is only available to the owner."},"safeTransferFrom(address,address,uint256)":{"details":"See {IERC721-safeTransferFrom}."},"safeTransferFrom(address,address,uint256,bytes)":{"details":"See {IERC721-safeTransferFrom}."},"setApprovalForAll(address,bool)":{"details":"See {IERC721-setApprovalForAll}."},"supportsInterface(bytes4)":{"details":"See {IERC165-supportsInterface}."},"symbol()":{"details":"See {IERC721Metadata-symbol}."},"tokenByIndex(uint256)":{"details":"See {IERC721Enumerable-tokenByIndex}."},"tokenOfOwnerByIndex(address,uint256)":{"details":"See {IERC721Enumerable-tokenOfOwnerByIndex}."},"totalSupply()":{"details":"See {IERC721Enumerable-totalSupply}."},"transferFrom(address,address,uint256)":{"details":"See {IERC721-transferFrom}."},"transferOwnership(address)":{"details":"Transfers ownership of the contract to a new account (`newOwner`). Can only be called by the current owner."}},"version":1},"evm":{"bytecode":{"linkReferences":{},"object":"60e060405260246080818152906200372160a03960ff9062000022908262000165565b5066038d7ea4c680006101005561010180546001600160a01b0319908116909155600061010255610103805490911673b11cadfdd2de8c84d626cc45bfe02b8effabb3ec1790553480156200007657600080fd5b506040516200374538038062003745833981016040819052620000999162000231565b61010180546001600160a01b0319166001600160a01b039290921691909117905562000263565b634e487b7160e01b600052604160045260246000fd5b600181811c90821680620000eb57607f821691505b6020821081036200010c57634e487b7160e01b600052602260045260246000fd5b50919050565b601f8211156200016057600081815260208120601f850160051c810160208610156200013b5750805b601f850160051c820191505b818110156200015c5782815560010162000147565b5050505b505050565b81516001600160401b03811115620001815762000181620000c0565b6200019981620001928454620000d6565b8462000112565b602080601f831160018114620001d15760008415620001b85750858301515b600019600386901b1c1916600185901b1785556200015c565b600085815260208120601f198616915b828110156200020257888601518255948401946001909101908401620001e1565b5085821015620002215787850151600019600388901b60f8161c191681555b5050505050600190811b01905550565b6000602082840312156200024457600080fd5b81516001600160a01b03811681146200025c57600080fd5b9392505050565b6134ae80620002736000396000f3fe608060405234801561001057600080fd5b50600436106102275760003560e01c8063715018a611610130578063c42a22d6116100b8578063e1c7392a1161007c578063e1c7392a146104e9578063e47ad74d146104f1578063e985e9c514610504578063ee9a31a214610540578063f2fde38b1461055357600080fd5b8063c42a22d61461049f578063c60853f6146104a7578063c63568c7146104ba578063c87b56dd146104ce578063dbddb26a146104e157600080fd5b806392ae12fd116100ff57806392ae12fd146103e657806395d89b411461045e578063a22cb46514610466578063b479a96114610479578063b88d4fde1461048c57600080fd5b8063715018a6146103a757806373717b08146103af5780637befab32146103c25780638da5cb5b146103d557600080fd5b80632f745c59116101b35780634f6ccce7116101825780634f6ccce7146103515780635f46e740146103645780636352211e14610377578063705fe4be1461038a57806370a082311461039457600080fd5b80632f745c59146102f75780634174a5961461030a57806342842e0e1461031e578063438b63001461033157600080fd5b8063095ea7b3116101fa578063095ea7b3146102ac5780630bf5d35e146102c15780631249c58b146102d457806318160ddd146102dc57806323b872dd146102e457600080fd5b806301ffc9a71461022c578063043c447c1461025457806306fdde031461026c578063081812fc14610281575b600080fd5b61023f61023a366004612ac2565b610566565b60405190151581526020015b60405180910390f35b61025e6101025481565b60405190815260200161024b565b610274610591565b60405161024b9190612b36565b61029461028f366004612b49565b610623565b6040516001600160a01b03909116815260200161024b565b6102bf6102ba366004612b77565b61064a565b005b61025e6102cf366004612ba3565b610764565b61025e6108a3565b60995461025e565b6102bf6102f2366004612bd8565b6108d8565b61025e610305366004612b77565b610909565b61010154610294906001600160a01b031681565b6102bf61032c366004612bd8565b61099f565b61034461033f366004612c19565b6109ba565b60405161024b9190612c36565b61025e61035f366004612b49565b610a59565b6102bf610372366004612c7a565b610aec565b610294610385366004612b49565b610bfb565b61025e6101005481565b61025e6103a2366004612c19565b610c5b565b6102bf610ce1565b60fc54610294906001600160a01b031681565b6102bf6103d0366004612d7b565b610cf5565b60c9546001600160a01b0316610294565b61042b6103f4366004612b49565b60fd602052600090815260409020805460018201546002909201549091906001600160a01b03811690600160a01b900461ffff1684565b60405161024b949392919093845260208401929092526001600160a01b0316604083015261ffff16606082015260800190565b61027461166a565b6102bf610474366004612e62565b611679565b6102bf610487366004612b49565b611688565b6102bf61049a366004612eb1565b6116f2565b6102bf61172a565b6102bf6104b5366004612c19565b611759565b61010354610294906001600160a01b031681565b6102746104dc366004612b49565b611793565b6102746117bf565b6102bf61184d565b6102bf6104ff366004612b49565b6119d9565b61023f610512366004612f91565b6001600160a01b039182166000908152606a6020908152604080832093909416825291909152205460ff1690565b60fb54610294906001600160a01b031681565b6102bf610561366004612c19565b611a12565b60006001600160e01b0319821663780e9d6360e01b148061058b575061058b82611a88565b92915050565b6060606580546105a090612fbf565b80601f01602080910402602001604051908101604052809291908181526020018280546105cc90612fbf565b80156106195780601f106105ee57610100808354040283529160200191610619565b820191906000526020600020905b8154815290600101906020018083116105fc57829003601f168201915b5050505050905090565b600061062e82611ad8565b506000908152606960205260409020546001600160a01b031690565b600061065582610bfb565b9050806001600160a01b0316836001600160a01b0316036106c75760405162461bcd60e51b815260206004820152602160248201527f4552433732313a20617070726f76616c20746f2063757272656e74206f776e656044820152603960f91b60648201526084015b60405180910390fd5b336001600160a01b03821614806106e357506106e38133610512565b6107555760405162461bcd60e51b815260206004820152603d60248201527f4552433732313a20617070726f76652063616c6c6572206973206e6f7420746f60448201527f6b656e206f776e6572206f7220617070726f76656420666f7220616c6c00000060648201526084016106be565b61075f8383611b37565b505050565b600082815260fd602052604081206002015483906001600160a01b03166107cd5760405162461bcd60e51b815260206004820152601c60248201527f64657374696e6174696f6e20636861696e206e6f74206163746976650000000060448201526064016106be565b6000838152606760205260409020546001600160a01b031633146108335760405162461bcd60e51b815260206004820152601760248201527f796f7520646f206e6f74206f776e2074686973206e667400000000000000000060448201526064016106be565b6101015461010254610852916001600160a01b03169033903090611ba5565b61085b83611bff565b604080516001600160a01b03878116602083015281830186905282518083038401815260609092019092526101035490916108999187911683611ca2565b9695505050505050565b60006108ca61010160009054906101000a90046001600160a01b0316333061010054611ba5565b6108d333611d6d565b905090565b6108e23382611e3e565b6108fe5760405162461bcd60e51b81526004016106be90612ff3565b61075f838383611ebd565b600061091483610c5b565b82106109765760405162461bcd60e51b815260206004820152602b60248201527f455243373231456e756d657261626c653a206f776e657220696e646578206f7560448201526a74206f6620626f756e647360a81b60648201526084016106be565b506001600160a01b03919091166000908152609760209081526040808320938352929052205490565b61075f838383604051806020016040528060008152506116f2565b606060006109c783610c5b565b90508067ffffffffffffffff8111156109e2576109e2612e9b565b604051908082528060200260200182016040528015610a0b578160200160208202803683370190505b50915060005b81811015610a5257610a238482610909565b838281518110610a3557610a35613040565b602090810291909101015280610a4a8161306c565b915050610a11565b5050919050565b6000610a6460995490565b8210610ac75760405162461bcd60e51b815260206004820152602c60248201527f455243373231456e756d657261626c653a20676c6f62616c20696e646578206f60448201526b7574206f6620626f756e647360a01b60648201526084016106be565b60998281548110610ada57610ada613040565b90600052602060002001549050919050565b60fb54859087906001600160a01b03163314610b3b5760405162461bcd60e51b815260206004820152600e60248201526d1b9bdd08185d5d1a1bdc9a5e995960921b60448201526064016106be565b600081815260fd60205260409020600201546001600160a01b03838116911614610b985760405162461bcd60e51b815260206004820152600e60248201526d1b9bdd08185d5d1a1bdc9a5e995960921b60448201526064016106be565b600080610ba785870187612b77565b915091507fa8142743f8f70a4c26f3691cf4ed59718381fb2f18070ec52be1f1022d85555781604051610bdc91815260200190565b60405180910390a1610bee828261202e565b5050505050505050505050565b6000818152606760205260408120546001600160a01b03168061058b5760405162461bcd60e51b8152602060048201526018602482015277115490cdcc8c4e881a5b9d985b1a59081d1bdad95b88125160421b60448201526064016106be565b60006001600160a01b038216610cc55760405162461bcd60e51b815260206004820152602960248201527f4552433732313a2061646472657373207a65726f206973206e6f7420612076616044820152683634b21037bbb732b960b91b60648201526084016106be565b506001600160a01b031660009081526068602052604090205490565b610ce9612048565b610cf360006120a2565b565b610cfd612048565b6001600160a01b0389166111ba5746600103610d1c576000985061116c565b4661a86a03610d2e576000985061116c565b4661210503610d40576000985061116c565b46603803610d51576000985061116c565b4661a4ec03610d63576000985061116c565b46601903610d74576000985061116c565b4660fa03610d85576000985061116c565b466106f103610d97576000985061116c565b466363564c4003610dab576000985061116c565b4661044003610dbd576000985061116c565b4661a51603610dcf576000985061116c565b46608903610de0576000985061116c565b4661017103610df2576000985061116c565b4662066eee03610e185773207cbca48258591cd1e953739c663184a02bb320985061116c565b46634e45415303610e3f57733b5b764229b2ede0162220af51ab6bf7f8527a4f985061116c565b4661a86903610e64577324beff24327c8e956d5fc74a5c502038683cdc0a985061116c565b4662014a3403610e8a577318716f6e46a66919deacd3c6fd4fa6da02fa30b2985061116c565b46606103610eae5773535cced6c471ee907eeb3bbecf1c8223208ca5e0985061116c565b46611e1503610ed357733b5b764229b2ede0162220af51ab6bf7f8527a4f985061116c565b4661aef303610ef857736e658066340c7cae09db68f5339ddc4b806d3598985061116c565b4661015203610f1d57738eb10fc1793094113e7f52ba159a6aeb54cab92c985061116c565b46610fa203610f4257737d474aa4dbdbc276b67abcc5f54262978b369cec985061116c565b466105ac03610f6757736c83dc6c5128ff3e073e737523d2176aaeb08525985061116c565b466127d803610f8c5773146449fb27e4a4b4721a9c5742f3bab1e34eb31f985061116c565b46636357d2e003610fb35773e0a5cbb1f15a84c4a4a0f7e98f9721997182ded6985061116c565b466108ad03610fd857733b5b764229b2ede0162220af51ab6bf7f8527a4f985061116c565b4661e70403610ffd57733b5b764229b2ede0162220af51ab6bf7f8527a4f985061116c565b466102570361102257734f313cb864bd7138fdb35337182d5b0e78d9fb33985061116c565b4661a515036110475773566b40dd59a868c244e1353368e08ddad1c1d74f985061116c565b46615aff0361106c5773566b40dd59a868c244e1353368e08ddad1c1d74f985061116c565b466041036110905773f1fbb3e9977dacf3909ab541792cb2bba10ffd5e985061116c565b4662aa37dc036110b65773b4245bfea4afe63c7f7863d090166890e9fef1b2985061116c565b4662013881036110dc577308a2d304547a4b93b254d906502a3fc778d78412985061116c565b466105a2036111015773ca877c797d599be2bf8c897a3b9eba6ba4113332985061116c565b466103af0361112657734f313cb864bd7138fdb35337182d5b0e78d9fb33985061116c565b466208274f0361114c577323e2ce1ff48cf21239f8c5eb783ce89df02b6f35985061116c565b4660c30361116c57734f313cb864bd7138fdb35337182d5b0e78d9fb3398505b6001600160a01b0389166111ba5760405162461bcd60e51b81526020600482015260156024820152741a5b9d985b1a590818da185a5b881a5b881b1a5cdd605a1b60448201526064016106be565b60fb80546001600160a01b0319166001600160a01b038b169081179091556040805163647846a560e01b8152905163647846a5916004808201926020929091908290030181865afa158015611213573d6000803e3d6000fd5b505050506040513d601f19601f820116820180604052508101906112379190613085565b60fc80546001600160a01b0319166001600160a01b03929092169190911790558660005b818110156114665760fb546001600160a01b03166327c7484e8b8b8481811061128657611286613040565b905060200201356040518263ffffffff1660e01b81526004016112ab91815260200190565b6020604051808303816000875af11580156112ca573d6000803e3d6000fd5b505050506040513d601f19601f820116820180604052508101906112ee91906130a2565b60fd60008c8c8581811061130457611304613040565b9050602002013581526020019081526020016000206000018190555083838281811061133257611332613040565b905060200201602081019061134791906130bb565b60fd60008c8c8581811061135d5761135d613040565b90506020020135815260200190815260200160002060020160146101000a81548161ffff021916908361ffff1602179055508585828181106113a1576113a1613040565b90506020020160208101906113b69190612c19565b60fd60008c8c858181106113cc576113cc613040565b90506020020135815260200190815260200160002060020160006101000a8154816001600160a01b0302191690836001600160a01b0316021790555087878281811061141a5761141a613040565b9050602002013560fd60008c8c8581811061143757611437613040565b90506020020135815260200190815260200160002060010181905550808061145e9061306c565b91505061125b565b5060fc546001600160a01b0316156114f45760fc5460fb5460405163095ea7b360e01b81526001600160a01b039182166004820152600019602482015291169063095ea7b3906044016020604051808303816000875af11580156114ce573d6000803e3d6000fd5b505050506040513d601f19601f820116820180604052508101906114f291906130df565b505b60fb5460408051633fc8cef360e01b815290516000926001600160a01b031691633fc8cef39160048083019260209291908290030181865afa15801561153e573d6000803e3d6000fd5b505050506040513d601f19601f820116820180604052508101906115629190613085565b6001600160a01b03161461165e5760fb60009054906101000a90046001600160a01b03166001600160a01b0316633fc8cef36040518163ffffffff1660e01b8152600401602060405180830381865afa1580156115c3573d6000803e3d6000fd5b505050506040513d601f19601f820116820180604052508101906115e79190613085565b60fb5460405163095ea7b360e01b81526001600160a01b039182166004820152600019602482015291169063095ea7b3906044016020604051808303816000875af115801561163a573d6000803e3d6000fd5b505050506040513d601f19601f82011682018060405250810190610bee91906130df565b50505050505050505050565b6060606680546105a090612fbf565b6116843383836120f4565b5050565b611690612048565b60fb5460405163b479a96160e01b8152600481018390526001600160a01b039091169063b479a961906024015b600060405180830381600087803b1580156116d757600080fd5b505af11580156116eb573d6000803e3d6000fd5b5050505050565b6116fc3383611e3e565b6117185760405162461bcd60e51b81526004016106be90612ff3565b611724848484846121c2565b50505050565b600054610100900460ff166117515760405162461bcd60e51b81526004016106be906130fc565b610cf36121f5565b611761612048565b60fb5460405163630429fb60e11b81526001600160a01b0383811660048301529091169063c60853f6906024016116bd565b606060ff826040516020016117a9929190613147565b6040516020818303038152906040529050919050565b60ff80546117cc90612fbf565b80601f01602080910402602001604051908101604052809291908181526020018280546117f890612fbf565b80156118455780601f1061181a57610100808354040283529160200191611845565b820191906000526020600020905b81548152906001019060200180831161182857829003601f168201915b505050505081565b600054610100900460ff161580801561186d5750600054600160ff909116105b806118875750303b158015611887575060005460ff166001145b6118ea5760405162461bcd60e51b815260206004820152602e60248201527f496e697469616c697a61626c653a20636f6e747261637420697320616c72656160448201526d191e481a5b9a5d1a585b1a5e995960921b60648201526084016106be565b6000805460ff19166001179055801561190d576000805461ff0019166101001790555b600054610100900460ff166119345760405162461bcd60e51b81526004016106be906130fc565b6119886040518060400160405280601681526020017514da5b5c1b194810dc9bdcdcc810da185a5b8813919560521b815250604051806040016040528060048152602001631cd3919560e21b815250612224565b61199061172a565b80156119d6576000805461ff0019169055604051600181527f7f26b83ff96e1f2b6a682f133852f6798a09c465da95921460cefb38474024989060200160405180910390a15b50565b6119e1612048565b60fb5460405163e47ad74d60e01b8152600481018390526001600160a01b039091169063e47ad74d906024016116bd565b611a1a612048565b6001600160a01b038116611a7f5760405162461bcd60e51b815260206004820152602660248201527f4f776e61626c653a206e6577206f776e657220697320746865207a65726f206160448201526564647265737360d01b60648201526084016106be565b6119d6816120a2565b60006001600160e01b031982166380ac58cd60e01b1480611ab957506001600160e01b03198216635b5e139f60e01b145b8061058b57506301ffc9a760e01b6001600160e01b031983161461058b565b6000818152606760205260409020546001600160a01b03166119d65760405162461bcd60e51b8152602060048201526018602482015277115490cdcc8c4e881a5b9d985b1a59081d1bdad95b88125160421b60448201526064016106be565b600081815260696020526040902080546001600160a01b0319166001600160a01b0384169081179091558190611b6c82610bfb565b6001600160a01b03167f8c5be1e5ebec7d5bd14f71427d1e84f3dd0314c0f7b2291e5b200ac8c7c3b92560405160405180910390a45050565b604080516001600160a01b0385811660248301528416604482015260648082018490528251808303909101815260849091019091526020810180516001600160e01b03166323b872dd60e01b179052611724908590612255565b6000611c0a82610bfb565b9050611c1a81600084600161232a565b611c2382610bfb565b600083815260696020908152604080832080546001600160a01b03199081169091556001600160a01b0385168085526068845282852080546000190190558785526067909352818420805490911690555192935084927fddf252ad1be2c89b69c2b068fc378daa952ba7f163c4a11628f55a4df523b3ef908390a45050565b600083815260fd60209081526040808320815160808101835281548152600182015493810193909352600201546001600160a01b03808216848401819052600160a01b90920461ffff166060850181905260fb549351633f6b724360e21b8152939091169263fdadc90c92611d219290918a91899189906004016131d0565b6020604051808303816000875af1158015611d40573d6000803e3d6000fd5b505050506040513d601f19601f82011682018060405250810190611d6491906130a2565b95945050505050565b600080611d7960fe5490565b90506103e88110611dc35760405162461bcd60e51b81526020600482015260146024820152736d696e74206174206d617820636170616369747960601b60448201526064016106be565b80611dd14662989680613214565b611ddb919061322b565b604080516001600160a01b0386168152602081018390529193507f0f6798a560793a54c3bcfe86a93cde1e73087d944c0ea20544137d4121396885910160405180910390a1611e2a838361202e565b611e3860fe80546001019055565b50919050565b600080611e4a83610bfb565b9050806001600160a01b0316846001600160a01b03161480611e9157506001600160a01b038082166000908152606a602090815260408083209388168352929052205460ff165b80611eb55750836001600160a01b0316611eaa84610623565b6001600160a01b0316145b949350505050565b826001600160a01b0316611ed082610bfb565b6001600160a01b031614611ef65760405162461bcd60e51b81526004016106be9061323e565b6001600160a01b038216611f585760405162461bcd60e51b8152602060048201526024808201527f4552433732313a207472616e7366657220746f20746865207a65726f206164646044820152637265737360e01b60648201526084016106be565b611f65838383600161232a565b826001600160a01b0316611f7882610bfb565b6001600160a01b031614611f9e5760405162461bcd60e51b81526004016106be9061323e565b600081815260696020908152604080832080546001600160a01b03199081169091556001600160a01b0387811680865260688552838620805460001901905590871680865283862080546001019055868652606790945282852080549092168417909155905184937fddf252ad1be2c89b69c2b068fc378daa952ba7f163c4a11628f55a4df523b3ef91a4505050565b611684828260405180602001604052806000815250612457565b60c9546001600160a01b03163314610cf35760405162461bcd60e51b815260206004820181905260248201527f4f776e61626c653a2063616c6c6572206973206e6f7420746865206f776e657260448201526064016106be565b60c980546001600160a01b038381166001600160a01b0319831681179093556040519116919082907f8be0079c531659141344cd1fd0a4f28419497f9722a3daafe3b4186f6b6457e090600090a35050565b816001600160a01b0316836001600160a01b0316036121555760405162461bcd60e51b815260206004820152601960248201527f4552433732313a20617070726f766520746f2063616c6c65720000000000000060448201526064016106be565b6001600160a01b038381166000818152606a6020908152604080832094871680845294825291829020805460ff191686151590811790915591519182527f17307eab39ab6107e8899845ad3d59bd9653f200f220920489ca2b5937696c31910160405180910390a3505050565b6121cd848484611ebd565b6121d98484848461248a565b6117245760405162461bcd60e51b81526004016106be90613283565b600054610100900460ff1661221c5760405162461bcd60e51b81526004016106be906130fc565b610cf361258b565b600054610100900460ff1661224b5760405162461bcd60e51b81526004016106be906130fc565b61168482826125bb565b60006122aa826040518060400160405280602081526020017f5361666545524332303a206c6f772d6c6576656c2063616c6c206661696c6564815250856001600160a01b03166125fb9092919063ffffffff16565b90508051600014806122cb5750808060200190518101906122cb91906130df565b61075f5760405162461bcd60e51b815260206004820152602a60248201527f5361666545524332303a204552433230206f7065726174696f6e20646964206e6044820152691bdd081cdd58d8d9595960b21b60648201526084016106be565b60018111156123995760405162461bcd60e51b815260206004820152603560248201527f455243373231456e756d657261626c653a20636f6e7365637574697665207472604482015274185b9cd9995c9cc81b9bdd081cdd5c1c1bdc9d1959605a1b60648201526084016106be565b816001600160a01b0385166123f5576123f081609980546000838152609a60205260408120829055600182018355919091527f72a152ddfb8e864297c917af52ea6c1c68aead0fee1a62673fcc7e0c94979d000155565b612418565b836001600160a01b0316856001600160a01b03161461241857612418858261260a565b6001600160a01b0384166124345761242f816126a7565b6116eb565b846001600160a01b0316846001600160a01b0316146116eb576116eb8482612756565b612461838361279a565b61246e600084848461248a565b61075f5760405162461bcd60e51b81526004016106be90613283565b60006001600160a01b0384163b1561258057604051630a85bd0160e11b81526001600160a01b0385169063150b7a02906124ce9033908990889088906004016132d5565b6020604051808303816000875af1925050508015612509575060408051601f3d908101601f1916820190925261250691810190613308565b60015b612566573d808015612537576040519150601f19603f3d011682016040523d82523d6000602084013e61253c565b606091505b50805160000361255e5760405162461bcd60e51b81526004016106be90613283565b805181602001fd5b6001600160e01b031916630a85bd0160e11b149050611eb5565b506001949350505050565b600054610100900460ff166125b25760405162461bcd60e51b81526004016106be906130fc565b610cf3336120a2565b600054610100900460ff166125e25760405162461bcd60e51b81526004016106be906130fc565b60656125ee8382613373565b50606661075f8282613373565b6060611eb58484600085612933565b6000600161261784610c5b565b6126219190613433565b600083815260986020526040902054909150808214612674576001600160a01b03841660009081526097602090815260408083208584528252808320548484528184208190558352609890915290208190555b5060009182526098602090815260408084208490556001600160a01b039094168352609781528383209183525290812055565b6099546000906126b990600190613433565b6000838152609a6020526040812054609980549394509092849081106126e1576126e1613040565b90600052602060002001549050806099838154811061270257612702613040565b6000918252602080832090910192909255828152609a9091526040808220849055858252812055609980548061273a5761273a613446565b6001900381819060005260206000200160009055905550505050565b600061276183610c5b565b6001600160a01b039093166000908152609760209081526040808320868452825280832085905593825260989052919091209190915550565b6001600160a01b0382166127f05760405162461bcd60e51b815260206004820181905260248201527f4552433732313a206d696e7420746f20746865207a65726f206164647265737360448201526064016106be565b6000818152606760205260409020546001600160a01b0316156128555760405162461bcd60e51b815260206004820152601c60248201527f4552433732313a20746f6b656e20616c7265616479206d696e7465640000000060448201526064016106be565b61286360008383600161232a565b6000818152606760205260409020546001600160a01b0316156128c85760405162461bcd60e51b815260206004820152601c60248201527f4552433732313a20746f6b656e20616c7265616479206d696e7465640000000060448201526064016106be565b6001600160a01b038216600081815260686020908152604080832080546001019055848352606790915280822080546001600160a01b0319168417905551839291907fddf252ad1be2c89b69c2b068fc378daa952ba7f163c4a11628f55a4df523b3ef908290a45050565b6060824710156129945760405162461bcd60e51b815260206004820152602660248201527f416464726573733a20696e73756666696369656e742062616c616e636520666f6044820152651c8818d85b1b60d21b60648201526084016106be565b600080866001600160a01b031685876040516129b0919061345c565b60006040518083038185875af1925050503d80600081146129ed576040519150601f19603f3d011682016040523d82523d6000602084013e6129f2565b606091505b5091509150612a0387838387612a0e565b979650505050505050565b60608315612a7d578251600003612a76576001600160a01b0385163b612a765760405162461bcd60e51b815260206004820152601d60248201527f416464726573733a2063616c6c20746f206e6f6e2d636f6e747261637400000060448201526064016106be565b5081611eb5565b611eb58383815115612a925781518083602001fd5b8060405162461bcd60e51b81526004016106be9190612b36565b6001600160e01b0319811681146119d657600080fd5b600060208284031215612ad457600080fd5b8135612adf81612aac565b9392505050565b60005b83811015612b01578181015183820152602001612ae9565b50506000910152565b60008151808452612b22816020860160208601612ae6565b601f01601f19169290920160200192915050565b602081526000612adf6020830184612b0a565b600060208284031215612b5b57600080fd5b5035919050565b6001600160a01b03811681146119d657600080fd5b60008060408385031215612b8a57600080fd5b8235612b9581612b62565b946020939093013593505050565b600080600060608486031215612bb857600080fd5b8335612bc381612b62565b95602085013595506040909401359392505050565b600080600060608486031215612bed57600080fd5b8335612bf881612b62565b92506020840135612c0881612b62565b929592945050506040919091013590565b600060208284031215612c2b57600080fd5b8135612adf81612b62565b6020808252825182820181905260009190848201906040850190845b81811015612c6e57835183529284019291840191600101612c52565b50909695505050505050565b600080600080600080600060c0888a031215612c9557600080fd5b87359650602088013595506040880135612cae81612b62565b94506060880135612cbe81612b62565b93506080880135925060a088013567ffffffffffffffff80821115612ce257600080fd5b818a0191508a601f830112612cf657600080fd5b813581811115612d0557600080fd5b8b6020828501011115612d1757600080fd5b60208301945080935050505092959891949750929550565b60008083601f840112612d4157600080fd5b50813567ffffffffffffffff811115612d5957600080fd5b6020830191508360208260051b8501011115612d7457600080fd5b9250929050565b600080600080600080600080600060a08a8c031215612d9957600080fd5b8935612da481612b62565b985060208a013567ffffffffffffffff80821115612dc157600080fd5b612dcd8d838e01612d2f565b909a50985060408c0135915080821115612de657600080fd5b612df28d838e01612d2f565b909850965060608c0135915080821115612e0b57600080fd5b612e178d838e01612d2f565b909650945060808c0135915080821115612e3057600080fd5b50612e3d8c828d01612d2f565b915080935050809150509295985092959850929598565b80151581146119d657600080fd5b60008060408385031215612e7557600080fd5b8235612e8081612b62565b91506020830135612e9081612e54565b809150509250929050565b634e487b7160e01b600052604160045260246000fd5b60008060008060808587031215612ec757600080fd5b8435612ed281612b62565b93506020850135612ee281612b62565b925060408501359150606085013567ffffffffffffffff80821115612f0657600080fd5b818701915087601f830112612f1a57600080fd5b813581811115612f2c57612f2c612e9b565b604051601f8201601f19908116603f01168101908382118183101715612f5457612f54612e9b565b816040528281528a6020848701011115612f6d57600080fd5b82602086016020830137600060208483010152809550505050505092959194509250565b60008060408385031215612fa457600080fd5b8235612faf81612b62565b91506020830135612e9081612b62565b600181811c90821680612fd357607f821691505b602082108103611e3857634e487b7160e01b600052602260045260246000fd5b6020808252602d908201527f4552433732313a2063616c6c6572206973206e6f7420746f6b656e206f776e6560408201526c1c881bdc88185c1c1c9bdd9959609a1b606082015260800190565b634e487b7160e01b600052603260045260246000fd5b634e487b7160e01b600052601160045260246000fd5b60006001820161307e5761307e613056565b5060010190565b60006020828403121561309757600080fd5b8151612adf81612b62565b6000602082840312156130b457600080fd5b5051919050565b6000602082840312156130cd57600080fd5b813561ffff81168114612adf57600080fd5b6000602082840312156130f157600080fd5b8151612adf81612e54565b6020808252602b908201527f496e697469616c697a61626c653a20636f6e7472616374206973206e6f74206960408201526a6e697469616c697a696e6760a81b606082015260800190565b600080845461315581612fbf565b6001828116801561316d5760018114613182576131b1565b60ff19841687528215158302870194506131b1565b8860005260208060002060005b858110156131a85781548a82015290840190820161318f565b50505082870194505b50505093815264173539b7b760d91b6020820152602501949350505050565b60018060a01b038616815284602082015260a0604082015260006131f760a0830186612b0a565b61ffff949094166060830152509015156080909101529392505050565b808202811582820484141761058b5761058b613056565b8082018082111561058b5761058b613056565b60208082526025908201527f4552433732313a207472616e736665722066726f6d20696e636f72726563742060408201526437bbb732b960d91b606082015260800190565b60208082526032908201527f4552433732313a207472616e7366657220746f206e6f6e20455243373231526560408201527131b2b4bb32b91034b6b83632b6b2b73a32b960711b606082015260800190565b6001600160a01b038581168252841660208201526040810183905260806060820181905260009061089990830184612b0a565b60006020828403121561331a57600080fd5b8151612adf81612aac565b601f82111561075f57600081815260208120601f850160051c8101602086101561334c5750805b601f850160051c820191505b8181101561336b57828155600101613358565b505050505050565b815167ffffffffffffffff81111561338d5761338d612e9b565b6133a18161339b8454612fbf565b84613325565b602080601f8311600181146133d657600084156133be5750858301515b600019600386901b1c1916600185901b17855561336b565b600085815260208120601f198616915b82811015613405578886015182559484019460019091019084016133e6565b50858210156134235787850151600019600388901b60f8161c191681555b5050505050600190811b01905550565b8181038181111561058b5761058b613056565b634e487b7160e01b600052603160045260246000fd5b6000825161346e818460208701612ae6565b919091019291505056fea26469706673582212208845ce3c4296204ea17be5974e695418e8ecc0e78ce9a86820d97e2ccbdd863964736f6c6343000811003368747470733a2f2f6e6674732e73332e64652e696f2e636c6f75642e6f76682e6e65742f","opcodes":"PUSH1 0xE0 PUSH1 0x40 MSTORE PUSH1 0x24 PUSH1 0x80 DUP2 DUP2 MSTORE SWAP1 PUSH3 0x3721 PUSH1 0xA0 CODECOPY PUSH1 0xFF SWAP1 PUSH3 0x22 SWAP1 DUP3 PUSH3 0x165 JUMP JUMPDEST POP PUSH7 0x38D7EA4C68000 PUSH2 0x100 SSTORE PUSH2 0x101 DUP1 SLOAD PUSH1 0x1 PUSH1 0x1 PUSH1 0xA0 SHL SUB NOT SWAP1 DUP2 AND SWAP1 SWAP2 SSTORE PUSH1 0x0 PUSH2 0x102 SSTORE PUSH2 0x103 DUP1 SLOAD SWAP1 SWAP2 AND PUSH20 0xB11CADFDD2DE8C84D626CC45BFE02B8EFFABB3EC OR SWAP1 SSTORE CALLVALUE DUP1 ISZERO PUSH3 0x76 JUMPI PUSH1 0x0 DUP1 REVERT JUMPDEST POP PUSH1 0x40 MLOAD PUSH3 0x3745 CODESIZE SUB DUP1 PUSH3 0x3745 DUP4 CODECOPY DUP2 ADD PUSH1 0x40 DUP2 SWAP1 MSTORE PUSH3 0x99 SWAP2 PUSH3 0x231 JUMP JUMPDEST PUSH2 0x101 DUP1 SLOAD PUSH1 0x1 PUSH1 0x1 PUSH1 0xA0 SHL SUB NOT AND PUSH1 0x1 PUSH1 0x1 PUSH1 0xA0 SHL SUB SWAP3 SWAP1 SWAP3 AND SWAP2 SWAP1 SWAP2 OR SWAP1 SSTORE PUSH3 0x263 JUMP JUMPDEST PUSH4 0x4E487B71 PUSH1 0xE0 SHL PUSH1 0x0 MSTORE PUSH1 0x41 PUSH1 0x4 MSTORE PUSH1 0x24 PUSH1 0x0 REVERT JUMPDEST PUSH1 0x1 DUP2 DUP2 SHR SWAP1 DUP3 AND DUP1 PUSH3 0xEB JUMPI PUSH1 0x7F DUP3 AND SWAP2 POP JUMPDEST PUSH1 0x20 DUP3 LT DUP2 SUB PUSH3 0x10C JUMPI PUSH4 0x4E487B71 PUSH1 0xE0 SHL PUSH1 0x0 MSTORE PUSH1 0x22 PUSH1 0x4 MSTORE PUSH1 0x24 PUSH1 0x0 REVERT JUMPDEST POP SWAP2 SWAP1 POP JUMP JUMPDEST PUSH1 0x1F DUP3 GT ISZERO PUSH3 0x160 JUMPI PUSH1 0x0 DUP2 DUP2 MSTORE PUSH1 0x20 DUP2 KECCAK256 PUSH1 0x1F DUP6 ADD PUSH1 0x5 SHR DUP2 ADD PUSH1 0x20 DUP7 LT ISZERO PUSH3 0x13B JUMPI POP DUP1 JUMPDEST PUSH1 0x1F DUP6 ADD PUSH1 0x5 SHR DUP3 ADD SWAP2 POP JUMPDEST DUP2 DUP2 LT ISZERO PUSH3 0x15C JUMPI DUP3 DUP2 SSTORE PUSH1 0x1 ADD PUSH3 0x147 JUMP JUMPDEST POP POP POP JUMPDEST POP POP POP JUMP JUMPDEST DUP2 MLOAD PUSH1 0x1 PUSH1 0x1 PUSH1 0x40 SHL SUB DUP2 GT ISZERO PUSH3 0x181 JUMPI PUSH3 0x181 PUSH3 0xC0 JUMP JUMPDEST PUSH3 0x199 DUP2 PUSH3 0x192 DUP5 SLOAD PUSH3 0xD6 JUMP JUMPDEST DUP5 PUSH3 0x112 JUMP JUMPDEST PUSH1 0x20 DUP1 PUSH1 0x1F DUP4 GT PUSH1 0x1 DUP2 EQ PUSH3 0x1D1 JUMPI PUSH1 0x0 DUP5 ISZERO PUSH3 0x1B8 JUMPI POP DUP6 DUP4 ADD MLOAD JUMPDEST PUSH1 0x0 NOT PUSH1 0x3 DUP7 SWAP1 SHL SHR NOT AND PUSH1 0x1 DUP6 SWAP1 SHL OR DUP6 SSTORE PUSH3 0x15C JUMP JUMPDEST PUSH1 0x0 DUP6 DUP2 MSTORE PUSH1 0x20 DUP2 KECCAK256 PUSH1 0x1F NOT DUP7 AND SWAP2 JUMPDEST DUP3 DUP2 LT ISZERO PUSH3 0x202 JUMPI DUP9 DUP7 ADD MLOAD DUP3 SSTORE SWAP5 DUP5 ADD SWAP5 PUSH1 0x1 SWAP1 SWAP2 ADD SWAP1 DUP5 ADD PUSH3 0x1E1 JUMP JUMPDEST POP DUP6 DUP3 LT ISZERO PUSH3 0x221 JUMPI DUP8 DUP6 ADD MLOAD PUSH1 0x0 NOT PUSH1 0x3 DUP9 SWAP1 SHL PUSH1 0xF8 AND SHR NOT AND DUP2 SSTORE JUMPDEST POP POP POP POP POP PUSH1 0x1 SWAP1 DUP2 SHL ADD SWAP1 SSTORE POP JUMP JUMPDEST PUSH1 0x0 PUSH1 0x20 DUP3 DUP5 SUB SLT ISZERO PUSH3 0x244 JUMPI PUSH1 0x0 DUP1 REVERT JUMPDEST DUP2 MLOAD PUSH1 0x1 PUSH1 0x1 PUSH1 0xA0 SHL SUB DUP2 AND DUP2 EQ PUSH3 0x25C JUMPI PUSH1 0x0 DUP1 REVERT JUMPDEST SWAP4 SWAP3 POP POP POP JUMP JUMPDEST PUSH2 0x34AE DUP1 PUSH3 0x273 PUSH1 0x0 CODECOPY PUSH1 0x0 RETURN INVALID PUSH1 0x80 PUSH1 0x40 MSTORE CALLVALUE DUP1 ISZERO PUSH2 0x10 JUMPI PUSH1 0x0 DUP1 REVERT JUMPDEST POP PUSH1 0x4 CALLDATASIZE LT PUSH2 0x227 JUMPI PUSH1 0x0 CALLDATALOAD PUSH1 0xE0 SHR DUP1 PUSH4 0x715018A6 GT PUSH2 0x130 JUMPI DUP1 PUSH4 0xC42A22D6 GT PUSH2 0xB8 JUMPI DUP1 PUSH4 0xE1C7392A GT PUSH2 0x7C JUMPI DUP1 PUSH4 0xE1C7392A EQ PUSH2 0x4E9 JUMPI DUP1 PUSH4 0xE47AD74D EQ PUSH2 0x4F1 JUMPI DUP1 PUSH4 0xE985E9C5 EQ PUSH2 0x504 JUMPI DUP1 PUSH4 0xEE9A31A2 EQ PUSH2 0x540 JUMPI DUP1 PUSH4 0xF2FDE38B EQ PUSH2 0x553 JUMPI PUSH1 0x0 DUP1 REVERT JUMPDEST DUP1 PUSH4 0xC42A22D6 EQ PUSH2 0x49F JUMPI DUP1 PUSH4 0xC60853F6 EQ PUSH2 0x4A7 JUMPI DUP1 PUSH4 0xC63568C7 EQ PUSH2 0x4BA JUMPI DUP1 PUSH4 0xC87B56DD EQ PUSH2 0x4CE JUMPI DUP1 PUSH4 0xDBDDB26A EQ PUSH2 0x4E1 JUMPI PUSH1 0x0 DUP1 REVERT JUMPDEST DUP1 PUSH4 0x92AE12FD GT PUSH2 0xFF JUMPI DUP1 PUSH4 0x92AE12FD EQ PUSH2 0x3E6 JUMPI DUP1 PUSH4 0x95D89B41 EQ PUSH2 0x45E JUMPI DUP1 PUSH4 0xA22CB465 EQ PUSH2 0x466 JUMPI DUP1 PUSH4 0xB479A961 EQ PUSH2 0x479 JUMPI DUP1 PUSH4 0xB88D4FDE EQ PUSH2 0x48C JUMPI PUSH1 0x0 DUP1 REVERT JUMPDEST DUP1 PUSH4 0x715018A6 EQ PUSH2 0x3A7 JUMPI DUP1 PUSH4 0x73717B08 EQ PUSH2 0x3AF JUMPI DUP1 PUSH4 0x7BEFAB32 EQ PUSH2 0x3C2 JUMPI DUP1 PUSH4 0x8DA5CB5B EQ PUSH2 0x3D5 JUMPI PUSH1 0x0 DUP1 REVERT JUMPDEST DUP1 PUSH4 0x2F745C59 GT PUSH2 0x1B3 JUMPI DUP1 PUSH4 0x4F6CCCE7 GT PUSH2 0x182 JUMPI DUP1 PUSH4 0x4F6CCCE7 EQ PUSH2 0x351 JUMPI DUP1 PUSH4 0x5F46E740 EQ PUSH2 0x364 JUMPI DUP1 PUSH4 0x6352211E EQ PUSH2 0x377 JUMPI DUP1 PUSH4 0x705FE4BE EQ PUSH2 0x38A JUMPI DUP1 PUSH4 0x70A08231 EQ PUSH2 0x394 JUMPI PUSH1 0x0 DUP1 REVERT JUMPDEST DUP1 PUSH4 0x2F745C59 EQ PUSH2 0x2F7 JUMPI DUP1 PUSH4 0x4174A596 EQ PUSH2 0x30A JUMPI DUP1 PUSH4 0x42842E0E EQ PUSH2 0x31E JUMPI DUP1 PUSH4 0x438B6300 EQ PUSH2 0x331 JUMPI PUSH1 0x0 DUP1 REVERT JUMPDEST DUP1 PUSH4 0x95EA7B3 GT PUSH2 0x1FA JUMPI DUP1 PUSH4 0x95EA7B3 EQ PUSH2 0x2AC JUMPI DUP1 PUSH4 0xBF5D35E EQ PUSH2 0x2C1 JUMPI DUP1 PUSH4 0x1249C58B EQ PUSH2 0x2D4 JUMPI DUP1 PUSH4 0x18160DDD EQ PUSH2 0x2DC JUMPI DUP1 PUSH4 0x23B872DD EQ PUSH2 0x2E4 JUMPI PUSH1 0x0 DUP1 REVERT JUMPDEST DUP1 PUSH4 0x1FFC9A7 EQ PUSH2 0x22C JUMPI DUP1 PUSH4 0x43C447C EQ PUSH2 0x254 JUMPI DUP1 PUSH4 0x6FDDE03 EQ PUSH2 0x26C JUMPI DUP1 PUSH4 0x81812FC EQ PUSH2 0x281 JUMPI JUMPDEST PUSH1 0x0 DUP1 REVERT JUMPDEST PUSH2 0x23F PUSH2 0x23A CALLDATASIZE PUSH1 0x4 PUSH2 0x2AC2 JUMP JUMPDEST PUSH2 0x566 JUMP JUMPDEST PUSH1 0x40 MLOAD SWAP1 ISZERO ISZERO DUP2 MSTORE PUSH1 0x20 ADD JUMPDEST PUSH1 0x40 MLOAD DUP1 SWAP2 SUB SWAP1 RETURN JUMPDEST PUSH2 0x25E PUSH2 0x102 SLOAD DUP2 JUMP JUMPDEST PUSH1 0x40 MLOAD SWAP1 DUP2 MSTORE PUSH1 0x20 ADD PUSH2 0x24B JUMP JUMPDEST PUSH2 0x274 PUSH2 0x591 JUMP JUMPDEST PUSH1 0x40 MLOAD PUSH2 0x24B SWAP2 SWAP1 PUSH2 0x2B36 JUMP JUMPDEST PUSH2 0x294 PUSH2 0x28F CALLDATASIZE PUSH1 0x4 PUSH2 0x2B49 JUMP JUMPDEST PUSH2 0x623 JUMP JUMPDEST PUSH1 0x40 MLOAD PUSH1 0x1 PUSH1 0x1 PUSH1 0xA0 SHL SUB SWAP1 SWAP2 AND DUP2 MSTORE PUSH1 0x20 ADD PUSH2 0x24B JUMP JUMPDEST PUSH2 0x2BF PUSH2 0x2BA CALLDATASIZE PUSH1 0x4 PUSH2 0x2B77 JUMP JUMPDEST PUSH2 0x64A JUMP JUMPDEST STOP JUMPDEST PUSH2 0x25E PUSH2 0x2CF CALLDATASIZE PUSH1 0x4 PUSH2 0x2BA3 JUMP JUMPDEST PUSH2 0x764 JUMP JUMPDEST PUSH2 0x25E PUSH2 0x8A3 JUMP JUMPDEST PUSH1 0x99 SLOAD PUSH2 0x25E JUMP JUMPDEST PUSH2 0x2BF PUSH2 0x2F2 CALLDATASIZE PUSH1 0x4 PUSH2 0x2BD8 JUMP JUMPDEST PUSH2 0x8D8 JUMP JUMPDEST PUSH2 0x25E PUSH2 0x305 CALLDATASIZE PUSH1 0x4 PUSH2 0x2B77 JUMP JUMPDEST PUSH2 0x909 JUMP JUMPDEST PUSH2 0x101 SLOAD PUSH2 0x294 SWAP1 PUSH1 0x1 PUSH1 0x1 PUSH1 0xA0 SHL SUB AND DUP2 JUMP JUMPDEST PUSH2 0x2BF PUSH2 0x32C CALLDATASIZE PUSH1 0x4 PUSH2 0x2BD8 JUMP JUMPDEST PUSH2 0x99F JUMP JUMPDEST PUSH2 0x344 PUSH2 0x33F CALLDATASIZE PUSH1 0x4 PUSH2 0x2C19 JUMP JUMPDEST PUSH2 0x9BA JUMP JUMPDEST PUSH1 0x40 MLOAD PUSH2 0x24B SWAP2 SWAP1 PUSH2 0x2C36 JUMP JUMPDEST PUSH2 0x25E PUSH2 0x35F CALLDATASIZE PUSH1 0x4 PUSH2 0x2B49 JUMP JUMPDEST PUSH2 0xA59 JUMP JUMPDEST PUSH2 0x2BF PUSH2 0x372 CALLDATASIZE PUSH1 0x4 PUSH2 0x2C7A JUMP JUMPDEST PUSH2 0xAEC JUMP JUMPDEST PUSH2 0x294 PUSH2 0x385 CALLDATASIZE PUSH1 0x4 PUSH2 0x2B49 JUMP JUMPDEST PUSH2 0xBFB JUMP JUMPDEST PUSH2 0x25E PUSH2 0x100 SLOAD DUP2 JUMP JUMPDEST PUSH2 0x25E PUSH2 0x3A2 CALLDATASIZE PUSH1 0x4 PUSH2 0x2C19 JUMP JUMPDEST PUSH2 0xC5B JUMP JUMPDEST PUSH2 0x2BF PUSH2 0xCE1 JUMP JUMPDEST PUSH1 0xFC SLOAD PUSH2 0x294 SWAP1 PUSH1 0x1 PUSH1 0x1 PUSH1 0xA0 SHL SUB AND DUP2 JUMP JUMPDEST PUSH2 0x2BF PUSH2 0x3D0 CALLDATASIZE PUSH1 0x4 PUSH2 0x2D7B JUMP JUMPDEST PUSH2 0xCF5 JUMP JUMPDEST PUSH1 0xC9 SLOAD PUSH1 0x1 PUSH1 0x1 PUSH1 0xA0 SHL SUB AND PUSH2 0x294 JUMP JUMPDEST PUSH2 0x42B PUSH2 0x3F4 CALLDATASIZE PUSH1 0x4 PUSH2 0x2B49 JUMP JUMPDEST PUSH1 0xFD PUSH1 0x20 MSTORE PUSH1 0x0 SWAP1 DUP2 MSTORE PUSH1 0x40 SWAP1 KECCAK256 DUP1 SLOAD PUSH1 0x1 DUP3 ADD SLOAD PUSH1 0x2 SWAP1 SWAP3 ADD SLOAD SWAP1 SWAP2 SWAP1 PUSH1 0x1 PUSH1 0x1 PUSH1 0xA0 SHL SUB DUP2 AND SWAP1 PUSH1 0x1 PUSH1 0xA0 SHL SWAP1 DIV PUSH2 0xFFFF AND DUP5 JUMP JUMPDEST PUSH1 0x40 MLOAD PUSH2 0x24B SWAP5 SWAP4 SWAP3 SWAP2 SWAP1 SWAP4 DUP5 MSTORE PUSH1 0x20 DUP5 ADD SWAP3 SWAP1 SWAP3 MSTORE PUSH1 0x1 PUSH1 0x1 PUSH1 0xA0 SHL SUB AND PUSH1 0x40 DUP4 ADD MSTORE PUSH2 0xFFFF AND PUSH1 0x60 DUP3 ADD MSTORE PUSH1 0x80 ADD SWAP1 JUMP JUMPDEST PUSH2 0x274 PUSH2 0x166A JUMP JUMPDEST PUSH2 0x2BF PUSH2 0x474 CALLDATASIZE PUSH1 0x4 PUSH2 0x2E62 JUMP JUMPDEST PUSH2 0x1679 JUMP JUMPDEST PUSH2 0x2BF PUSH2 0x487 CALLDATASIZE PUSH1 0x4 PUSH2 0x2B49 JUMP JUMPDEST PUSH2 0x1688 JUMP JUMPDEST PUSH2 0x2BF PUSH2 0x49A CALLDATASIZE PUSH1 0x4 PUSH2 0x2EB1 JUMP JUMPDEST PUSH2 0x16F2 JUMP JUMPDEST PUSH2 0x2BF PUSH2 0x172A JUMP JUMPDEST PUSH2 0x2BF PUSH2 0x4B5 CALLDATASIZE PUSH1 0x4 PUSH2 0x2C19 JUMP JUMPDEST PUSH2 0x1759 JUMP JUMPDEST PUSH2 0x103 SLOAD PUSH2 0x294 SWAP1 PUSH1 0x1 PUSH1 0x1 PUSH1 0xA0 SHL SUB AND DUP2 JUMP JUMPDEST PUSH2 0x274 PUSH2 0x4DC CALLDATASIZE PUSH1 0x4 PUSH2 0x2B49 JUMP JUMPDEST PUSH2 0x1793 JUMP JUMPDEST PUSH2 0x274 PUSH2 0x17BF JUMP JUMPDEST PUSH2 0x2BF PUSH2 0x184D JUMP JUMPDEST PUSH2 0x2BF PUSH2 0x4FF CALLDATASIZE PUSH1 0x4 PUSH2 0x2B49 JUMP JUMPDEST PUSH2 0x19D9 JUMP JUMPDEST PUSH2 0x23F PUSH2 0x512 CALLDATASIZE PUSH1 0x4 PUSH2 0x2F91 JUMP JUMPDEST PUSH1 0x1 PUSH1 0x1 PUSH1 0xA0 SHL SUB SWAP2 DUP3 AND PUSH1 0x0 SWAP1 DUP2 MSTORE PUSH1 0x6A PUSH1 0x20 SWAP1 DUP2 MSTORE PUSH1 0x40 DUP1 DUP4 KECCAK256 SWAP4 SWAP1 SWAP5 AND DUP3 MSTORE SWAP2 SWAP1 SWAP2 MSTORE KECCAK256 SLOAD PUSH1 0xFF AND SWAP1 JUMP JUMPDEST PUSH1 0xFB SLOAD PUSH2 0x294 SWAP1 PUSH1 0x1 PUSH1 0x1 PUSH1 0xA0 SHL SUB AND DUP2 JUMP JUMPDEST PUSH2 0x2BF PUSH2 0x561 CALLDATASIZE PUSH1 0x4 PUSH2 0x2C19 JUMP JUMPDEST PUSH2 0x1A12 JUMP JUMPDEST PUSH1 0x0 PUSH1 0x1 PUSH1 0x1 PUSH1 0xE0 SHL SUB NOT DUP3 AND PUSH4 0x780E9D63 PUSH1 0xE0 SHL EQ DUP1 PUSH2 0x58B JUMPI POP PUSH2 0x58B DUP3 PUSH2 0x1A88 JUMP JUMPDEST SWAP3 SWAP2 POP POP JUMP JUMPDEST PUSH1 0x60 PUSH1 0x65 DUP1 SLOAD PUSH2 0x5A0 SWAP1 PUSH2 0x2FBF JUMP JUMPDEST DUP1 PUSH1 0x1F ADD PUSH1 0x20 DUP1 SWAP2 DIV MUL PUSH1 0x20 ADD PUSH1 0x40 MLOAD SWAP1 DUP2 ADD PUSH1 0x40 MSTORE DUP1 SWAP3 SWAP2 SWAP1 DUP2 DUP2 MSTORE PUSH1 0x20 ADD DUP3 DUP1 SLOAD PUSH2 0x5CC SWAP1 PUSH2 0x2FBF JUMP JUMPDEST DUP1 ISZERO PUSH2 0x619 JUMPI DUP1 PUSH1 0x1F LT PUSH2 0x5EE JUMPI PUSH2 0x100 DUP1 DUP4 SLOAD DIV MUL DUP4 MSTORE SWAP2 PUSH1 0x20 ADD SWAP2 PUSH2 0x619 JUMP JUMPDEST DUP3 ADD SWAP2 SWAP1 PUSH1 0x0 MSTORE PUSH1 0x20 PUSH1 0x0 KECCAK256 SWAP1 JUMPDEST DUP2 SLOAD DUP2 MSTORE SWAP1 PUSH1 0x1 ADD SWAP1 PUSH1 0x20 ADD DUP1 DUP4 GT PUSH2 0x5FC JUMPI DUP3 SWAP1 SUB PUSH1 0x1F AND DUP3 ADD SWAP2 JUMPDEST POP POP POP POP POP SWAP1 POP SWAP1 JUMP JUMPDEST PUSH1 0x0 PUSH2 0x62E DUP3 PUSH2 0x1AD8 JUMP JUMPDEST POP PUSH1 0x0 SWAP1 DUP2 MSTORE PUSH1 0x69 PUSH1 0x20 MSTORE PUSH1 0x40 SWAP1 KECCAK256 SLOAD PUSH1 0x1 PUSH1 0x1 PUSH1 0xA0 SHL SUB AND SWAP1 JUMP JUMPDEST PUSH1 0x0 PUSH2 0x655 DUP3 PUSH2 0xBFB JUMP JUMPDEST SWAP1 POP DUP1 PUSH1 0x1 PUSH1 0x1 PUSH1 0xA0 SHL SUB AND DUP4 PUSH1 0x1 PUSH1 0x1 PUSH1 0xA0 SHL SUB AND SUB PUSH2 0x6C7 JUMPI PUSH1 0x40 MLOAD PUSH3 0x461BCD PUSH1 0xE5 SHL DUP2 MSTORE PUSH1 0x20 PUSH1 0x4 DUP3 ADD MSTORE PUSH1 0x21 PUSH1 0x24 DUP3 ADD MSTORE PUSH32 0x4552433732313A20617070726F76616C20746F2063757272656E74206F776E65 PUSH1 0x44 DUP3 ADD MSTORE PUSH1 0x39 PUSH1 0xF9 SHL PUSH1 0x64 DUP3 ADD MSTORE PUSH1 0x84 ADD JUMPDEST PUSH1 0x40 MLOAD DUP1 SWAP2 SUB SWAP1 REVERT JUMPDEST CALLER PUSH1 0x1 PUSH1 0x1 PUSH1 0xA0 SHL SUB DUP3 AND EQ DUP1 PUSH2 0x6E3 JUMPI POP PUSH2 0x6E3 DUP2 CALLER PUSH2 0x512 JUMP JUMPDEST PUSH2 0x755 JUMPI PUSH1 0x40 MLOAD PUSH3 0x461BCD PUSH1 0xE5 SHL DUP2 MSTORE PUSH1 0x20 PUSH1 0x4 DUP3 ADD MSTORE PUSH1 0x3D PUSH1 0x24 DUP3 ADD MSTORE PUSH32 0x4552433732313A20617070726F76652063616C6C6572206973206E6F7420746F PUSH1 0x44 DUP3 ADD MSTORE PUSH32 0x6B656E206F776E6572206F7220617070726F76656420666F7220616C6C000000 PUSH1 0x64 DUP3 ADD MSTORE PUSH1 0x84 ADD PUSH2 0x6BE JUMP JUMPDEST PUSH2 0x75F DUP4 DUP4 PUSH2 0x1B37 JUMP JUMPDEST POP POP POP JUMP JUMPDEST PUSH1 0x0 DUP3 DUP2 MSTORE PUSH1 0xFD PUSH1 0x20 MSTORE PUSH1 0x40 DUP2 KECCAK256 PUSH1 0x2 ADD SLOAD DUP4 SWAP1 PUSH1 0x1 PUSH1 0x1 PUSH1 0xA0 SHL SUB AND PUSH2 0x7CD JUMPI PUSH1 0x40 MLOAD PUSH3 0x461BCD PUSH1 0xE5 SHL DUP2 MSTORE PUSH1 0x20 PUSH1 0x4 DUP3 ADD MSTORE PUSH1 0x1C PUSH1 0x24 DUP3 ADD MSTORE PUSH32 0x64657374696E6174696F6E20636861696E206E6F742061637469766500000000 PUSH1 0x44 DUP3 ADD MSTORE PUSH1 0x64 ADD PUSH2 0x6BE JUMP JUMPDEST PUSH1 0x0 DUP4 DUP2 MSTORE PUSH1 0x67 PUSH1 0x20 MSTORE PUSH1 0x40 SWAP1 KECCAK256 SLOAD PUSH1 0x1 PUSH1 0x1 PUSH1 0xA0 SHL SUB AND CALLER EQ PUSH2 0x833 JUMPI PUSH1 0x40 MLOAD PUSH3 0x461BCD PUSH1 0xE5 SHL DUP2 MSTORE PUSH1 0x20 PUSH1 0x4 DUP3 ADD MSTORE PUSH1 0x17 PUSH1 0x24 DUP3 ADD MSTORE PUSH32 0x796F7520646F206E6F74206F776E2074686973206E6674000000000000000000 PUSH1 0x44 DUP3 ADD MSTORE PUSH1 0x64 ADD PUSH2 0x6BE JUMP JUMPDEST PUSH2 0x101 SLOAD PUSH2 0x102 SLOAD PUSH2 0x852 SWAP2 PUSH1 0x1 PUSH1 0x1 PUSH1 0xA0 SHL SUB AND SWAP1 CALLER SWAP1 ADDRESS SWAP1 PUSH2 0x1BA5 JUMP JUMPDEST PUSH2 0x85B DUP4 PUSH2 0x1BFF JUMP JUMPDEST PUSH1 0x40 DUP1 MLOAD PUSH1 0x1 PUSH1 0x1 PUSH1 0xA0 SHL SUB DUP8 DUP2 AND PUSH1 0x20 DUP4 ADD MSTORE DUP2 DUP4 ADD DUP7 SWAP1 MSTORE DUP3 MLOAD DUP1 DUP4 SUB DUP5 ADD DUP2 MSTORE PUSH1 0x60 SWAP1 SWAP3 ADD SWAP1 SWAP3 MSTORE PUSH2 0x103 SLOAD SWAP1 SWAP2 PUSH2 0x899 SWAP2 DUP8 SWAP2 AND DUP4 PUSH2 0x1CA2 JUMP JUMPDEST SWAP7 SWAP6 POP POP POP POP POP POP JUMP JUMPDEST PUSH1 0x0 PUSH2 0x8CA PUSH2 0x101 PUSH1 0x0 SWAP1 SLOAD SWAP1 PUSH2 0x100 EXP SWAP1 DIV PUSH1 0x1 PUSH1 0x1 PUSH1 0xA0 SHL SUB AND CALLER ADDRESS PUSH2 0x100 SLOAD PUSH2 0x1BA5 JUMP JUMPDEST PUSH2 0x8D3 CALLER PUSH2 0x1D6D JUMP JUMPDEST SWAP1 POP SWAP1 JUMP JUMPDEST PUSH2 0x8E2 CALLER DUP3 PUSH2 0x1E3E JUMP JUMPDEST PUSH2 0x8FE JUMPI PUSH1 0x40 MLOAD PUSH3 0x461BCD PUSH1 0xE5 SHL DUP2 MSTORE PUSH1 0x4 ADD PUSH2 0x6BE SWAP1 PUSH2 0x2FF3 JUMP JUMPDEST PUSH2 0x75F DUP4 DUP4 DUP4 PUSH2 0x1EBD JUMP JUMPDEST PUSH1 0x0 PUSH2 0x914 DUP4 PUSH2 0xC5B JUMP JUMPDEST DUP3 LT PUSH2 0x976 JUMPI PUSH1 0x40 MLOAD PUSH3 0x461BCD PUSH1 0xE5 SHL DUP2 MSTORE PUSH1 0x20 PUSH1 0x4 DUP3 ADD MSTORE PUSH1 0x2B PUSH1 0x24 DUP3 ADD MSTORE PUSH32 0x455243373231456E756D657261626C653A206F776E657220696E646578206F75 PUSH1 0x44 DUP3 ADD MSTORE PUSH11 0x74206F6620626F756E6473 PUSH1 0xA8 SHL PUSH1 0x64 DUP3 ADD MSTORE PUSH1 0x84 ADD PUSH2 0x6BE JUMP JUMPDEST POP PUSH1 0x1 PUSH1 0x1 PUSH1 0xA0 SHL SUB SWAP2 SWAP1 SWAP2 AND PUSH1 0x0 SWAP1 DUP2 MSTORE PUSH1 0x97 PUSH1 0x20 SWAP1 DUP2 MSTORE PUSH1 0x40 DUP1 DUP4 KECCAK256 SWAP4 DUP4 MSTORE SWAP3 SWAP1 MSTORE KECCAK256 SLOAD SWAP1 JUMP JUMPDEST PUSH2 0x75F DUP4 DUP4 DUP4 PUSH1 0x40 MLOAD DUP1 PUSH1 0x20 ADD PUSH1 0x40 MSTORE DUP1 PUSH1 0x0 DUP2 MSTORE POP PUSH2 0x16F2 JUMP JUMPDEST PUSH1 0x60 PUSH1 0x0 PUSH2 0x9C7 DUP4 PUSH2 0xC5B JUMP JUMPDEST SWAP1 POP DUP1 PUSH8 0xFFFFFFFFFFFFFFFF DUP2 GT ISZERO PUSH2 0x9E2 JUMPI PUSH2 0x9E2 PUSH2 0x2E9B JUMP JUMPDEST PUSH1 0x40 MLOAD SWAP1 DUP1 DUP3 MSTORE DUP1 PUSH1 0x20 MUL PUSH1 0x20 ADD DUP3 ADD PUSH1 0x40 MSTORE DUP1 ISZERO PUSH2 0xA0B JUMPI DUP2 PUSH1 0x20 ADD PUSH1 0x20 DUP3 MUL DUP1 CALLDATASIZE DUP4 CALLDATACOPY ADD SWAP1 POP JUMPDEST POP SWAP2 POP PUSH1 0x0 JUMPDEST DUP2 DUP2 LT ISZERO PUSH2 0xA52 JUMPI PUSH2 0xA23 DUP5 DUP3 PUSH2 0x909 JUMP JUMPDEST DUP4 DUP3 DUP2 MLOAD DUP2 LT PUSH2 0xA35 JUMPI PUSH2 0xA35 PUSH2 0x3040 JUMP JUMPDEST PUSH1 0x20 SWAP1 DUP2 MUL SWAP2 SWAP1 SWAP2 ADD ADD MSTORE DUP1 PUSH2 0xA4A DUP2 PUSH2 0x306C JUMP JUMPDEST SWAP2 POP POP PUSH2 0xA11 JUMP JUMPDEST POP POP SWAP2 SWAP1 POP JUMP JUMPDEST PUSH1 0x0 PUSH2 0xA64 PUSH1 0x99 SLOAD SWAP1 JUMP JUMPDEST DUP3 LT PUSH2 0xAC7 JUMPI PUSH1 0x40 MLOAD PUSH3 0x461BCD PUSH1 0xE5 SHL DUP2 MSTORE PUSH1 0x20 PUSH1 0x4 DUP3 ADD MSTORE PUSH1 0x2C PUSH1 0x24 DUP3 ADD MSTORE PUSH32 0x455243373231456E756D657261626C653A20676C6F62616C20696E646578206F PUSH1 0x44 DUP3 ADD MSTORE PUSH12 0x7574206F6620626F756E6473 PUSH1 0xA0 SHL PUSH1 0x64 DUP3 ADD MSTORE PUSH1 0x84 ADD PUSH2 0x6BE JUMP JUMPDEST PUSH1 0x99 DUP3 DUP2 SLOAD DUP2 LT PUSH2 0xADA JUMPI PUSH2 0xADA PUSH2 0x3040 JUMP JUMPDEST SWAP1 PUSH1 0x0 MSTORE PUSH1 0x20 PUSH1 0x0 KECCAK256 ADD SLOAD SWAP1 POP SWAP2 SWAP1 POP JUMP JUMPDEST PUSH1 0xFB SLOAD DUP6 SWAP1 DUP8 SWAP1 PUSH1 0x1 PUSH1 0x1 PUSH1 0xA0 SHL SUB AND CALLER EQ PUSH2 0xB3B JUMPI PUSH1 0x40 MLOAD PUSH3 0x461BCD PUSH1 0xE5 SHL DUP2 MSTORE PUSH1 0x20 PUSH1 0x4 DUP3 ADD MSTORE PUSH1 0xE PUSH1 0x24 DUP3 ADD MSTORE PUSH14 0x1B9BDD08185D5D1A1BDC9A5E9959 PUSH1 0x92 SHL PUSH1 0x44 DUP3 ADD MSTORE PUSH1 0x64 ADD PUSH2 0x6BE JUMP JUMPDEST PUSH1 0x0 DUP2 DUP2 MSTORE PUSH1 0xFD PUSH1 0x20 MSTORE PUSH1 0x40 SWAP1 KECCAK256 PUSH1 0x2 ADD SLOAD PUSH1 0x1 PUSH1 0x1 PUSH1 0xA0 SHL SUB DUP4 DUP2 AND SWAP2 AND EQ PUSH2 0xB98 JUMPI PUSH1 0x40 MLOAD PUSH3 0x461BCD PUSH1 0xE5 SHL DUP2 MSTORE PUSH1 0x20 PUSH1 0x4 DUP3 ADD MSTORE PUSH1 0xE PUSH1 0x24 DUP3 ADD MSTORE PUSH14 0x1B9BDD08185D5D1A1BDC9A5E9959 PUSH1 0x92 SHL PUSH1 0x44 DUP3 ADD MSTORE PUSH1 0x64 ADD PUSH2 0x6BE JUMP JUMPDEST PUSH1 0x0 DUP1 PUSH2 0xBA7 DUP6 DUP8 ADD DUP8 PUSH2 0x2B77 JUMP JUMPDEST SWAP2 POP SWAP2 POP PUSH32 0xA8142743F8F70A4C26F3691CF4ED59718381FB2F18070EC52BE1F1022D855557 DUP2 PUSH1 0x40 MLOAD PUSH2 0xBDC SWAP2 DUP2 MSTORE PUSH1 0x20 ADD SWAP1 JUMP JUMPDEST PUSH1 0x40 MLOAD DUP1 SWAP2 SUB SWAP1 LOG1 PUSH2 0xBEE DUP3 DUP3 PUSH2 0x202E JUMP JUMPDEST POP POP POP POP POP POP POP POP POP POP POP JUMP JUMPDEST PUSH1 0x0 DUP2 DUP2 MSTORE PUSH1 0x67 PUSH1 0x20 MSTORE PUSH1 0x40 DUP2 KECCAK256 SLOAD PUSH1 0x1 PUSH1 0x1 PUSH1 0xA0 SHL SUB AND DUP1 PUSH2 0x58B JUMPI PUSH1 0x40 MLOAD PUSH3 0x461BCD PUSH1 0xE5 SHL DUP2 MSTORE PUSH1 0x20 PUSH1 0x4 DUP3 ADD MSTORE PUSH1 0x18 PUSH1 0x24 DUP3 ADD MSTORE PUSH24 0x115490CDCC8C4E881A5B9D985B1A59081D1BDAD95B881251 PUSH1 0x42 SHL PUSH1 0x44 DUP3 ADD MSTORE PUSH1 0x64 ADD PUSH2 0x6BE JUMP JUMPDEST PUSH1 0x0 PUSH1 0x1 PUSH1 0x1 PUSH1 0xA0 SHL SUB DUP3 AND PUSH2 0xCC5 JUMPI PUSH1 0x40 MLOAD PUSH3 0x461BCD PUSH1 0xE5 SHL DUP2 MSTORE PUSH1 0x20 PUSH1 0x4 DUP3 ADD MSTORE PUSH1 0x29 PUSH1 0x24 DUP3 ADD MSTORE PUSH32 0x4552433732313A2061646472657373207A65726F206973206E6F742061207661 PUSH1 0x44 DUP3 ADD MSTORE PUSH9 0x3634B21037BBB732B9 PUSH1 0xB9 SHL PUSH1 0x64 DUP3 ADD MSTORE PUSH1 0x84 ADD PUSH2 0x6BE JUMP JUMPDEST POP PUSH1 0x1 PUSH1 0x1 PUSH1 0xA0 SHL SUB AND PUSH1 0x0 SWAP1 DUP2 MSTORE PUSH1 0x68 PUSH1 0x20 MSTORE PUSH1 0x40 SWAP1 KECCAK256 SLOAD SWAP1 JUMP JUMPDEST PUSH2 0xCE9 PUSH2 0x2048 JUMP JUMPDEST PUSH2 0xCF3 PUSH1 0x0 PUSH2 0x20A2 JUMP JUMPDEST JUMP JUMPDEST PUSH2 0xCFD PUSH2 0x2048 JUMP JUMPDEST PUSH1 0x1 PUSH1 0x1 PUSH1 0xA0 SHL SUB DUP10 AND PUSH2 0x11BA JUMPI CHAINID PUSH1 0x1 SUB PUSH2 0xD1C JUMPI PUSH1 0x0 SWAP9 POP PUSH2 0x116C JUMP JUMPDEST CHAINID PUSH2 0xA86A SUB PUSH2 0xD2E JUMPI PUSH1 0x0 SWAP9 POP PUSH2 0x116C JUMP JUMPDEST CHAINID PUSH2 0x2105 SUB PUSH2 0xD40 JUMPI PUSH1 0x0 SWAP9 POP PUSH2 0x116C JUMP JUMPDEST CHAINID PUSH1 0x38 SUB PUSH2 0xD51 JUMPI PUSH1 0x0 SWAP9 POP PUSH2 0x116C JUMP JUMPDEST CHAINID PUSH2 0xA4EC SUB PUSH2 0xD63 JUMPI PUSH1 0x0 SWAP9 POP PUSH2 0x116C JUMP JUMPDEST CHAINID PUSH1 0x19 SUB PUSH2 0xD74 JUMPI PUSH1 0x0 SWAP9 POP PUSH2 0x116C JUMP JUMPDEST CHAINID PUSH1 0xFA SUB PUSH2 0xD85 JUMPI PUSH1 0x0 SWAP9 POP PUSH2 0x116C JUMP JUMPDEST CHAINID PUSH2 0x6F1 SUB PUSH2 0xD97 JUMPI PUSH1 0x0 SWAP9 POP PUSH2 0x116C JUMP JUMPDEST CHAINID PUSH4 0x63564C40 SUB PUSH2 0xDAB JUMPI PUSH1 0x0 SWAP9 POP PUSH2 0x116C JUMP JUMPDEST CHAINID PUSH2 0x440 SUB PUSH2 0xDBD JUMPI PUSH1 0x0 SWAP9 POP PUSH2 0x116C JUMP JUMPDEST CHAINID PUSH2 0xA516 SUB PUSH2 0xDCF JUMPI PUSH1 0x0 SWAP9 POP PUSH2 0x116C JUMP JUMPDEST CHAINID PUSH1 0x89 SUB PUSH2 0xDE0 JUMPI PUSH1 0x0 SWAP9 POP PUSH2 0x116C JUMP JUMPDEST CHAINID PUSH2 0x171 SUB PUSH2 0xDF2 JUMPI PUSH1 0x0 SWAP9 POP PUSH2 0x116C JUMP JUMPDEST CHAINID PUSH3 0x66EEE SUB PUSH2 0xE18 JUMPI PUSH20 0x207CBCA48258591CD1E953739C663184A02BB320 SWAP9 POP PUSH2 0x116C JUMP JUMPDEST CHAINID PUSH4 0x4E454153 SUB PUSH2 0xE3F JUMPI PUSH20 0x3B5B764229B2EDE0162220AF51AB6BF7F8527A4F SWAP9 POP PUSH2 0x116C JUMP JUMPDEST CHAINID PUSH2 0xA869 SUB PUSH2 0xE64 JUMPI PUSH20 0x24BEFF24327C8E956D5FC74A5C502038683CDC0A SWAP9 POP PUSH2 0x116C JUMP JUMPDEST CHAINID PUSH3 0x14A34 SUB PUSH2 0xE8A JUMPI PUSH20 0x18716F6E46A66919DEACD3C6FD4FA6DA02FA30B2 SWAP9 POP PUSH2 0x116C JUMP JUMPDEST CHAINID PUSH1 0x61 SUB PUSH2 0xEAE JUMPI PUSH20 0x535CCED6C471EE907EEB3BBECF1C8223208CA5E0 SWAP9 POP PUSH2 0x116C JUMP JUMPDEST CHAINID PUSH2 0x1E15 SUB PUSH2 0xED3 JUMPI PUSH20 0x3B5B764229B2EDE0162220AF51AB6BF7F8527A4F SWAP9 POP PUSH2 0x116C JUMP JUMPDEST CHAINID PUSH2 0xAEF3 SUB PUSH2 0xEF8 JUMPI PUSH20 0x6E658066340C7CAE09DB68F5339DDC4B806D3598 SWAP9 POP PUSH2 0x116C JUMP JUMPDEST CHAINID PUSH2 0x152 SUB PUSH2 0xF1D JUMPI PUSH20 0x8EB10FC1793094113E7F52BA159A6AEB54CAB92C SWAP9 POP PUSH2 0x116C JUMP JUMPDEST CHAINID PUSH2 0xFA2 SUB PUSH2 0xF42 JUMPI PUSH20 0x7D474AA4DBDBC276B67ABCC5F54262978B369CEC SWAP9 POP PUSH2 0x116C JUMP JUMPDEST CHAINID PUSH2 0x5AC SUB PUSH2 0xF67 JUMPI PUSH20 0x6C83DC6C5128FF3E073E737523D2176AAEB08525 SWAP9 POP PUSH2 0x116C JUMP JUMPDEST CHAINID PUSH2 0x27D8 SUB PUSH2 0xF8C JUMPI PUSH20 0x146449FB27E4A4B4721A9C5742F3BAB1E34EB31F SWAP9 POP PUSH2 0x116C JUMP JUMPDEST CHAINID PUSH4 0x6357D2E0 SUB PUSH2 0xFB3 JUMPI PUSH20 0xE0A5CBB1F15A84C4A4A0F7E98F9721997182DED6 SWAP9 POP PUSH2 0x116C JUMP JUMPDEST CHAINID PUSH2 0x8AD SUB PUSH2 0xFD8 JUMPI PUSH20 0x3B5B764229B2EDE0162220AF51AB6BF7F8527A4F SWAP9 POP PUSH2 0x116C JUMP JUMPDEST CHAINID PUSH2 0xE704 SUB PUSH2 0xFFD JUMPI PUSH20 0x3B5B764229B2EDE0162220AF51AB6BF7F8527A4F SWAP9 POP PUSH2 0x116C JUMP JUMPDEST CHAINID PUSH2 0x257 SUB PUSH2 0x1022 JUMPI PUSH20 0x4F313CB864BD7138FDB35337182D5B0E78D9FB33 SWAP9 POP PUSH2 0x116C JUMP JUMPDEST CHAINID PUSH2 0xA515 SUB PUSH2 0x1047 JUMPI PUSH20 0x566B40DD59A868C244E1353368E08DDAD1C1D74F SWAP9 POP PUSH2 0x116C JUMP JUMPDEST CHAINID PUSH2 0x5AFF SUB PUSH2 0x106C JUMPI PUSH20 0x566B40DD59A868C244E1353368E08DDAD1C1D74F SWAP9 POP PUSH2 0x116C JUMP JUMPDEST CHAINID PUSH1 0x41 SUB PUSH2 0x1090 JUMPI PUSH20 0xF1FBB3E9977DACF3909AB541792CB2BBA10FFD5E SWAP9 POP PUSH2 0x116C JUMP JUMPDEST CHAINID PUSH3 0xAA37DC SUB PUSH2 0x10B6 JUMPI PUSH20 0xB4245BFEA4AFE63C7F7863D090166890E9FEF1B2 SWAP9 POP PUSH2 0x116C JUMP JUMPDEST CHAINID PUSH3 0x13881 SUB PUSH2 0x10DC JUMPI PUSH20 0x8A2D304547A4B93B254D906502A3FC778D78412 SWAP9 POP PUSH2 0x116C JUMP JUMPDEST CHAINID PUSH2 0x5A2 SUB PUSH2 0x1101 JUMPI PUSH20 0xCA877C797D599BE2BF8C897A3B9EBA6BA4113332 SWAP9 POP PUSH2 0x116C JUMP JUMPDEST CHAINID PUSH2 0x3AF SUB PUSH2 0x1126 JUMPI PUSH20 0x4F313CB864BD7138FDB35337182D5B0E78D9FB33 SWAP9 POP PUSH2 0x116C JUMP JUMPDEST CHAINID PUSH3 0x8274F SUB PUSH2 0x114C JUMPI PUSH20 0x23E2CE1FF48CF21239F8C5EB783CE89DF02B6F35 SWAP9 POP PUSH2 0x116C JUMP JUMPDEST CHAINID PUSH1 0xC3 SUB PUSH2 0x116C JUMPI PUSH20 0x4F313CB864BD7138FDB35337182D5B0E78D9FB33 SWAP9 POP JUMPDEST PUSH1 0x1 PUSH1 0x1 PUSH1 0xA0 SHL SUB DUP10 AND PUSH2 0x11BA JUMPI PUSH1 0x40 MLOAD PUSH3 0x461BCD PUSH1 0xE5 SHL DUP2 MSTORE PUSH1 0x20 PUSH1 0x4 DUP3 ADD MSTORE PUSH1 0x15 PUSH1 0x24 DUP3 ADD MSTORE PUSH21 0x1A5B9D985B1A590818DA185A5B881A5B881B1A5CDD PUSH1 0x5A SHL PUSH1 0x44 DUP3 ADD MSTORE PUSH1 0x64 ADD PUSH2 0x6BE JUMP JUMPDEST PUSH1 0xFB DUP1 SLOAD PUSH1 0x1 PUSH1 0x1 PUSH1 0xA0 SHL SUB NOT AND PUSH1 0x1 PUSH1 0x1 PUSH1 0xA0 SHL SUB DUP12 AND SWAP1 DUP2 OR SWAP1 SWAP2 SSTORE PUSH1 0x40 DUP1 MLOAD PUSH4 0x647846A5 PUSH1 0xE0 SHL DUP2 MSTORE SWAP1 MLOAD PUSH4 0x647846A5 SWAP2 PUSH1 0x4 DUP1 DUP3 ADD SWAP3 PUSH1 0x20 SWAP3 SWAP1 SWAP2 SWAP1 DUP3 SWAP1 SUB ADD DUP2 DUP7 GAS STATICCALL ISZERO DUP1 ISZERO PUSH2 0x1213 JUMPI RETURNDATASIZE PUSH1 0x0 DUP1 RETURNDATACOPY RETURNDATASIZE PUSH1 0x0 REVERT JUMPDEST POP POP POP POP PUSH1 0x40 MLOAD RETURNDATASIZE PUSH1 0x1F NOT PUSH1 0x1F DUP3 ADD AND DUP3 ADD DUP1 PUSH1 0x40 MSTORE POP DUP2 ADD SWAP1 PUSH2 0x1237 SWAP2 SWAP1 PUSH2 0x3085 JUMP JUMPDEST PUSH1 0xFC DUP1 SLOAD PUSH1 0x1 PUSH1 0x1 PUSH1 0xA0 SHL SUB NOT AND PUSH1 0x1 PUSH1 0x1 PUSH1 0xA0 SHL SUB SWAP3 SWAP1 SWAP3 AND SWAP2 SWAP1 SWAP2 OR SWAP1 SSTORE DUP7 PUSH1 0x0 JUMPDEST DUP2 DUP2 LT ISZERO PUSH2 0x1466 JUMPI PUSH1 0xFB SLOAD PUSH1 0x1 PUSH1 0x1 PUSH1 0xA0 SHL SUB AND PUSH4 0x27C7484E DUP12 DUP12 DUP5 DUP2 DUP2 LT PUSH2 0x1286 JUMPI PUSH2 0x1286 PUSH2 0x3040 JUMP JUMPDEST SWAP1 POP PUSH1 0x20 MUL ADD CALLDATALOAD PUSH1 0x40 MLOAD DUP3 PUSH4 0xFFFFFFFF AND PUSH1 0xE0 SHL DUP2 MSTORE PUSH1 0x4 ADD PUSH2 0x12AB SWAP2 DUP2 MSTORE PUSH1 0x20 ADD SWAP1 JUMP JUMPDEST PUSH1 0x20 PUSH1 0x40 MLOAD DUP1 DUP4 SUB DUP2 PUSH1 0x0 DUP8 GAS CALL ISZERO DUP1 ISZERO PUSH2 0x12CA JUMPI RETURNDATASIZE PUSH1 0x0 DUP1 RETURNDATACOPY RETURNDATASIZE PUSH1 0x0 REVERT JUMPDEST POP POP POP POP PUSH1 0x40 MLOAD RETURNDATASIZE PUSH1 0x1F NOT PUSH1 0x1F DUP3 ADD AND DUP3 ADD DUP1 PUSH1 0x40 MSTORE POP DUP2 ADD SWAP1 PUSH2 0x12EE SWAP2 SWAP1 PUSH2 0x30A2 JUMP JUMPDEST PUSH1 0xFD PUSH1 0x0 DUP13 DUP13 DUP6 DUP2 DUP2 LT PUSH2 0x1304 JUMPI PUSH2 0x1304 PUSH2 0x3040 JUMP JUMPDEST SWAP1 POP PUSH1 0x20 MUL ADD CALLDATALOAD DUP2 MSTORE PUSH1 0x20 ADD SWAP1 DUP2 MSTORE PUSH1 0x20 ADD PUSH1 0x0 KECCAK256 PUSH1 0x0 ADD DUP2 SWAP1 SSTORE POP DUP4 DUP4 DUP3 DUP2 DUP2 LT PUSH2 0x1332 JUMPI PUSH2 0x1332 PUSH2 0x3040 JUMP JUMPDEST SWAP1 POP PUSH1 0x20 MUL ADD PUSH1 0x20 DUP2 ADD SWAP1 PUSH2 0x1347 SWAP2 SWAP1 PUSH2 0x30BB JUMP JUMPDEST PUSH1 0xFD PUSH1 0x0 DUP13 DUP13 DUP6 DUP2 DUP2 LT PUSH2 0x135D JUMPI PUSH2 0x135D PUSH2 0x3040 JUMP JUMPDEST SWAP1 POP PUSH1 0x20 MUL ADD CALLDATALOAD DUP2 MSTORE PUSH1 0x20 ADD SWAP1 DUP2 MSTORE PUSH1 0x20 ADD PUSH1 0x0 KECCAK256 PUSH1 0x2 ADD PUSH1 0x14 PUSH2 0x100 EXP DUP2 SLOAD DUP2 PUSH2 0xFFFF MUL NOT AND SWAP1 DUP4 PUSH2 0xFFFF AND MUL OR SWAP1 SSTORE POP DUP6 DUP6 DUP3 DUP2 DUP2 LT PUSH2 0x13A1 JUMPI PUSH2 0x13A1 PUSH2 0x3040 JUMP JUMPDEST SWAP1 POP PUSH1 0x20 MUL ADD PUSH1 0x20 DUP2 ADD SWAP1 PUSH2 0x13B6 SWAP2 SWAP1 PUSH2 0x2C19 JUMP JUMPDEST PUSH1 0xFD PUSH1 0x0 DUP13 DUP13 DUP6 DUP2 DUP2 LT PUSH2 0x13CC JUMPI PUSH2 0x13CC PUSH2 0x3040 JUMP JUMPDEST SWAP1 POP PUSH1 0x20 MUL ADD CALLDATALOAD DUP2 MSTORE PUSH1 0x20 ADD SWAP1 DUP2 MSTORE PUSH1 0x20 ADD PUSH1 0x0 KECCAK256 PUSH1 0x2 ADD PUSH1 0x0 PUSH2 0x100 EXP DUP2 SLOAD DUP2 PUSH1 0x1 PUSH1 0x1 PUSH1 0xA0 SHL SUB MUL NOT AND SWAP1 DUP4 PUSH1 0x1 PUSH1 0x1 PUSH1 0xA0 SHL SUB AND MUL OR SWAP1 SSTORE POP DUP8 DUP8 DUP3 DUP2 DUP2 LT PUSH2 0x141A JUMPI PUSH2 0x141A PUSH2 0x3040 JUMP JUMPDEST SWAP1 POP PUSH1 0x20 MUL ADD CALLDATALOAD PUSH1 0xFD PUSH1 0x0 DUP13 DUP13 DUP6 DUP2 DUP2 LT PUSH2 0x1437 JUMPI PUSH2 0x1437 PUSH2 0x3040 JUMP JUMPDEST SWAP1 POP PUSH1 0x20 MUL ADD CALLDATALOAD DUP2 MSTORE PUSH1 0x20 ADD SWAP1 DUP2 MSTORE PUSH1 0x20 ADD PUSH1 0x0 KECCAK256 PUSH1 0x1 ADD DUP2 SWAP1 SSTORE POP DUP1 DUP1 PUSH2 0x145E SWAP1 PUSH2 0x306C JUMP JUMPDEST SWAP2 POP POP PUSH2 0x125B JUMP JUMPDEST POP PUSH1 0xFC SLOAD PUSH1 0x1 PUSH1 0x1 PUSH1 0xA0 SHL SUB AND ISZERO PUSH2 0x14F4 JUMPI PUSH1 0xFC SLOAD PUSH1 0xFB SLOAD PUSH1 0x40 MLOAD PUSH4 0x95EA7B3 PUSH1 0xE0 SHL DUP2 MSTORE PUSH1 0x1 PUSH1 0x1 PUSH1 0xA0 SHL SUB SWAP2 DUP3 AND PUSH1 0x4 DUP3 ADD MSTORE PUSH1 0x0 NOT PUSH1 0x24 DUP3 ADD MSTORE SWAP2 AND SWAP1 PUSH4 0x95EA7B3 SWAP1 PUSH1 0x44 ADD PUSH1 0x20 PUSH1 0x40 MLOAD DUP1 DUP4 SUB DUP2 PUSH1 0x0 DUP8 GAS CALL ISZERO DUP1 ISZERO PUSH2 0x14CE JUMPI RETURNDATASIZE PUSH1 0x0 DUP1 RETURNDATACOPY RETURNDATASIZE PUSH1 0x0 REVERT JUMPDEST POP POP POP POP PUSH1 0x40 MLOAD RETURNDATASIZE PUSH1 0x1F NOT PUSH1 0x1F DUP3 ADD AND DUP3 ADD DUP1 PUSH1 0x40 MSTORE POP DUP2 ADD SWAP1 PUSH2 0x14F2 SWAP2 SWAP1 PUSH2 0x30DF JUMP JUMPDEST POP JUMPDEST PUSH1 0xFB SLOAD PUSH1 0x40 DUP1 MLOAD PUSH4 0x3FC8CEF3 PUSH1 0xE0 SHL DUP2 MSTORE SWAP1 MLOAD PUSH1 0x0 SWAP3 PUSH1 0x1 PUSH1 0x1 PUSH1 0xA0 SHL SUB AND SWAP2 PUSH4 0x3FC8CEF3 SWAP2 PUSH1 0x4 DUP1 DUP4 ADD SWAP3 PUSH1 0x20 SWAP3 SWAP2 SWAP1 DUP3 SWAP1 SUB ADD DUP2 DUP7 GAS STATICCALL ISZERO DUP1 ISZERO PUSH2 0x153E JUMPI RETURNDATASIZE PUSH1 0x0 DUP1 RETURNDATACOPY RETURNDATASIZE PUSH1 0x0 REVERT JUMPDEST POP POP POP POP PUSH1 0x40 MLOAD RETURNDATASIZE PUSH1 0x1F NOT PUSH1 0x1F DUP3 ADD AND DUP3 ADD DUP1 PUSH1 0x40 MSTORE POP DUP2 ADD SWAP1 PUSH2 0x1562 SWAP2 SWAP1 PUSH2 0x3085 JUMP JUMPDEST PUSH1 0x1 PUSH1 0x1 PUSH1 0xA0 SHL SUB AND EQ PUSH2 0x165E JUMPI PUSH1 0xFB PUSH1 0x0 SWAP1 SLOAD SWAP1 PUSH2 0x100 EXP SWAP1 DIV PUSH1 0x1 PUSH1 0x1 PUSH1 0xA0 SHL SUB AND PUSH1 0x1 PUSH1 0x1 PUSH1 0xA0 SHL SUB AND PUSH4 0x3FC8CEF3 PUSH1 0x40 MLOAD DUP2 PUSH4 0xFFFFFFFF AND PUSH1 0xE0 SHL DUP2 MSTORE PUSH1 0x4 ADD PUSH1 0x20 PUSH1 0x40 MLOAD DUP1 DUP4 SUB DUP2 DUP7 GAS STATICCALL ISZERO DUP1 ISZERO PUSH2 0x15C3 JUMPI RETURNDATASIZE PUSH1 0x0 DUP1 RETURNDATACOPY RETURNDATASIZE PUSH1 0x0 REVERT JUMPDEST POP POP POP POP PUSH1 0x40 MLOAD RETURNDATASIZE PUSH1 0x1F NOT PUSH1 0x1F DUP3 ADD AND DUP3 ADD DUP1 PUSH1 0x40 MSTORE POP DUP2 ADD SWAP1 PUSH2 0x15E7 SWAP2 SWAP1 PUSH2 0x3085 JUMP JUMPDEST PUSH1 0xFB SLOAD PUSH1 0x40 MLOAD PUSH4 0x95EA7B3 PUSH1 0xE0 SHL DUP2 MSTORE PUSH1 0x1 PUSH1 0x1 PUSH1 0xA0 SHL SUB SWAP2 DUP3 AND PUSH1 0x4 DUP3 ADD MSTORE PUSH1 0x0 NOT PUSH1 0x24 DUP3 ADD MSTORE SWAP2 AND SWAP1 PUSH4 0x95EA7B3 SWAP1 PUSH1 0x44 ADD PUSH1 0x20 PUSH1 0x40 MLOAD DUP1 DUP4 SUB DUP2 PUSH1 0x0 DUP8 GAS CALL ISZERO DUP1 ISZERO PUSH2 0x163A JUMPI RETURNDATASIZE PUSH1 0x0 DUP1 RETURNDATACOPY RETURNDATASIZE PUSH1 0x0 REVERT JUMPDEST POP POP POP POP PUSH1 0x40 MLOAD RETURNDATASIZE PUSH1 0x1F NOT PUSH1 0x1F DUP3 ADD AND DUP3 ADD DUP1 PUSH1 0x40 MSTORE POP DUP2 ADD SWAP1 PUSH2 0xBEE SWAP2 SWAP1 PUSH2 0x30DF JUMP JUMPDEST POP POP POP POP POP POP POP POP POP POP JUMP JUMPDEST PUSH1 0x60 PUSH1 0x66 DUP1 SLOAD PUSH2 0x5A0 SWAP1 PUSH2 0x2FBF JUMP JUMPDEST PUSH2 0x1684 CALLER DUP4 DUP4 PUSH2 0x20F4 JUMP JUMPDEST POP POP JUMP JUMPDEST PUSH2 0x1690 PUSH2 0x2048 JUMP JUMPDEST PUSH1 0xFB SLOAD PUSH1 0x40 MLOAD PUSH4 0xB479A961 PUSH1 0xE0 SHL DUP2 MSTORE PUSH1 0x4 DUP2 ADD DUP4 SWAP1 MSTORE PUSH1 0x1 PUSH1 0x1 PUSH1 0xA0 SHL SUB SWAP1 SWAP2 AND SWAP1 PUSH4 0xB479A961 SWAP1 PUSH1 0x24 ADD JUMPDEST PUSH1 0x0 PUSH1 0x40 MLOAD DUP1 DUP4 SUB DUP2 PUSH1 0x0 DUP8 DUP1 EXTCODESIZE ISZERO DUP1 ISZERO PUSH2 0x16D7 JUMPI PUSH1 0x0 DUP1 REVERT JUMPDEST POP GAS CALL ISZERO DUP1 ISZERO PUSH2 0x16EB JUMPI RETURNDATASIZE PUSH1 0x0 DUP1 RETURNDATACOPY RETURNDATASIZE PUSH1 0x0 REVERT JUMPDEST POP POP POP POP POP JUMP JUMPDEST PUSH2 0x16FC CALLER DUP4 PUSH2 0x1E3E JUMP JUMPDEST PUSH2 0x1718 JUMPI PUSH1 0x40 MLOAD PUSH3 0x461BCD PUSH1 0xE5 SHL DUP2 MSTORE PUSH1 0x4 ADD PUSH2 0x6BE SWAP1 PUSH2 0x2FF3 JUMP JUMPDEST PUSH2 0x1724 DUP5 DUP5 DUP5 DUP5 PUSH2 0x21C2 JUMP JUMPDEST POP POP POP POP JUMP JUMPDEST PUSH1 0x0 SLOAD PUSH2 0x100 SWAP1 DIV PUSH1 0xFF AND PUSH2 0x1751 JUMPI PUSH1 0x40 MLOAD PUSH3 0x461BCD PUSH1 0xE5 SHL DUP2 MSTORE PUSH1 0x4 ADD PUSH2 0x6BE SWAP1 PUSH2 0x30FC JUMP JUMPDEST PUSH2 0xCF3 PUSH2 0x21F5 JUMP JUMPDEST PUSH2 0x1761 PUSH2 0x2048 JUMP JUMPDEST PUSH1 0xFB SLOAD PUSH1 0x40 MLOAD PUSH4 0x630429FB PUSH1 0xE1 SHL DUP2 MSTORE PUSH1 0x1 PUSH1 0x1 PUSH1 0xA0 SHL SUB DUP4 DUP2 AND PUSH1 0x4 DUP4 ADD MSTORE SWAP1 SWAP2 AND SWAP1 PUSH4 0xC60853F6 SWAP1 PUSH1 0x24 ADD PUSH2 0x16BD JUMP JUMPDEST PUSH1 0x60 PUSH1 0xFF DUP3 PUSH1 0x40 MLOAD PUSH1 0x20 ADD PUSH2 0x17A9 SWAP3 SWAP2 SWAP1 PUSH2 0x3147 JUMP JUMPDEST PUSH1 0x40 MLOAD PUSH1 0x20 DUP2 DUP4 SUB SUB DUP2 MSTORE SWAP1 PUSH1 0x40 MSTORE SWAP1 POP SWAP2 SWAP1 POP JUMP JUMPDEST PUSH1 0xFF DUP1 SLOAD PUSH2 0x17CC SWAP1 PUSH2 0x2FBF JUMP JUMPDEST DUP1 PUSH1 0x1F ADD PUSH1 0x20 DUP1 SWAP2 DIV MUL PUSH1 0x20 ADD PUSH1 0x40 MLOAD SWAP1 DUP2 ADD PUSH1 0x40 MSTORE DUP1 SWAP3 SWAP2 SWAP1 DUP2 DUP2 MSTORE PUSH1 0x20 ADD DUP3 DUP1 SLOAD PUSH2 0x17F8 SWAP1 PUSH2 0x2FBF JUMP JUMPDEST DUP1 ISZERO PUSH2 0x1845 JUMPI DUP1 PUSH1 0x1F LT PUSH2 0x181A JUMPI PUSH2 0x100 DUP1 DUP4 SLOAD DIV MUL DUP4 MSTORE SWAP2 PUSH1 0x20 ADD SWAP2 PUSH2 0x1845 JUMP JUMPDEST DUP3 ADD SWAP2 SWAP1 PUSH1 0x0 MSTORE PUSH1 0x20 PUSH1 0x0 KECCAK256 SWAP1 JUMPDEST DUP2 SLOAD DUP2 MSTORE SWAP1 PUSH1 0x1 ADD SWAP1 PUSH1 0x20 ADD DUP1 DUP4 GT PUSH2 0x1828 JUMPI DUP3 SWAP1 SUB PUSH1 0x1F AND DUP3 ADD SWAP2 JUMPDEST POP POP POP POP POP DUP2 JUMP JUMPDEST PUSH1 0x0 SLOAD PUSH2 0x100 SWAP1 DIV PUSH1 0xFF AND ISZERO DUP1 DUP1 ISZERO PUSH2 0x186D JUMPI POP PUSH1 0x0 SLOAD PUSH1 0x1 PUSH1 0xFF SWAP1 SWAP2 AND LT JUMPDEST DUP1 PUSH2 0x1887 JUMPI POP ADDRESS EXTCODESIZE ISZERO DUP1 ISZERO PUSH2 0x1887 JUMPI POP PUSH1 0x0 SLOAD PUSH1 0xFF AND PUSH1 0x1 EQ JUMPDEST PUSH2 0x18EA JUMPI PUSH1 0x40 MLOAD PUSH3 0x461BCD PUSH1 0xE5 SHL DUP2 MSTORE PUSH1 0x20 PUSH1 0x4 DUP3 ADD MSTORE PUSH1 0x2E PUSH1 0x24 DUP3 ADD MSTORE PUSH32 0x496E697469616C697A61626C653A20636F6E747261637420697320616C726561 PUSH1 0x44 DUP3 ADD MSTORE PUSH14 0x191E481A5B9A5D1A585B1A5E9959 PUSH1 0x92 SHL PUSH1 0x64 DUP3 ADD MSTORE PUSH1 0x84 ADD PUSH2 0x6BE JUMP JUMPDEST PUSH1 0x0 DUP1 SLOAD PUSH1 0xFF NOT AND PUSH1 0x1 OR SWAP1 SSTORE DUP1 ISZERO PUSH2 0x190D JUMPI PUSH1 0x0 DUP1 SLOAD PUSH2 0xFF00 NOT AND PUSH2 0x100 OR SWAP1 SSTORE JUMPDEST PUSH1 0x0 SLOAD PUSH2 0x100 SWAP1 DIV PUSH1 0xFF AND PUSH2 0x1934 JUMPI PUSH1 0x40 MLOAD PUSH3 0x461BCD PUSH1 0xE5 SHL DUP2 MSTORE PUSH1 0x4 ADD PUSH2 0x6BE SWAP1 PUSH2 0x30FC JUMP JUMPDEST PUSH2 0x1988 PUSH1 0x40 MLOAD DUP1 PUSH1 0x40 ADD PUSH1 0x40 MSTORE DUP1 PUSH1 0x16 DUP2 MSTORE PUSH1 0x20 ADD PUSH22 0x14DA5B5C1B194810DC9BDCDCC810DA185A5B88139195 PUSH1 0x52 SHL DUP2 MSTORE POP PUSH1 0x40 MLOAD DUP1 PUSH1 0x40 ADD PUSH1 0x40 MSTORE DUP1 PUSH1 0x4 DUP2 MSTORE PUSH1 0x20 ADD PUSH4 0x1CD39195 PUSH1 0xE2 SHL DUP2 MSTORE POP PUSH2 0x2224 JUMP JUMPDEST PUSH2 0x1990 PUSH2 0x172A JUMP JUMPDEST DUP1 ISZERO PUSH2 0x19D6 JUMPI PUSH1 0x0 DUP1 SLOAD PUSH2 0xFF00 NOT AND SWAP1 SSTORE PUSH1 0x40 MLOAD PUSH1 0x1 DUP2 MSTORE PUSH32 0x7F26B83FF96E1F2B6A682F133852F6798A09C465DA95921460CEFB3847402498 SWAP1 PUSH1 0x20 ADD PUSH1 0x40 MLOAD DUP1 SWAP2 SUB SWAP1 LOG1 JUMPDEST POP JUMP JUMPDEST PUSH2 0x19E1 PUSH2 0x2048 JUMP JUMPDEST PUSH1 0xFB SLOAD PUSH1 0x40 MLOAD PUSH4 0xE47AD74D PUSH1 0xE0 SHL DUP2 MSTORE PUSH1 0x4 DUP2 ADD DUP4 SWAP1 MSTORE PUSH1 0x1 PUSH1 0x1 PUSH1 0xA0 SHL SUB SWAP1 SWAP2 AND SWAP1 PUSH4 0xE47AD74D SWAP1 PUSH1 0x24 ADD PUSH2 0x16BD JUMP JUMPDEST PUSH2 0x1A1A PUSH2 0x2048 JUMP JUMPDEST PUSH1 0x1 PUSH1 0x1 PUSH1 0xA0 SHL SUB DUP2 AND PUSH2 0x1A7F JUMPI PUSH1 0x40 MLOAD PUSH3 0x461BCD PUSH1 0xE5 SHL DUP2 MSTORE PUSH1 0x20 PUSH1 0x4 DUP3 ADD MSTORE PUSH1 0x26 PUSH1 0x24 DUP3 ADD MSTORE PUSH32 0x4F776E61626C653A206E6577206F776E657220697320746865207A65726F2061 PUSH1 0x44 DUP3 ADD MSTORE PUSH6 0x646472657373 PUSH1 0xD0 SHL PUSH1 0x64 DUP3 ADD MSTORE PUSH1 0x84 ADD PUSH2 0x6BE JUMP JUMPDEST PUSH2 0x19D6 DUP2 PUSH2 0x20A2 JUMP JUMPDEST PUSH1 0x0 PUSH1 0x1 PUSH1 0x1 PUSH1 0xE0 SHL SUB NOT DUP3 AND PUSH4 0x80AC58CD PUSH1 0xE0 SHL EQ DUP1 PUSH2 0x1AB9 JUMPI POP PUSH1 0x1 PUSH1 0x1 PUSH1 0xE0 SHL SUB NOT DUP3 AND PUSH4 0x5B5E139F PUSH1 0xE0 SHL EQ JUMPDEST DUP1 PUSH2 0x58B JUMPI POP PUSH4 0x1FFC9A7 PUSH1 0xE0 SHL PUSH1 0x1 PUSH1 0x1 PUSH1 0xE0 SHL SUB NOT DUP4 AND EQ PUSH2 0x58B JUMP JUMPDEST PUSH1 0x0 DUP2 DUP2 MSTORE PUSH1 0x67 PUSH1 0x20 MSTORE PUSH1 0x40 SWAP1 KECCAK256 SLOAD PUSH1 0x1 PUSH1 0x1 PUSH1 0xA0 SHL SUB AND PUSH2 0x19D6 JUMPI PUSH1 0x40 MLOAD PUSH3 0x461BCD PUSH1 0xE5 SHL DUP2 MSTORE PUSH1 0x20 PUSH1 0x4 DUP3 ADD MSTORE PUSH1 0x18 PUSH1 0x24 DUP3 ADD MSTORE PUSH24 0x115490CDCC8C4E881A5B9D985B1A59081D1BDAD95B881251 PUSH1 0x42 SHL PUSH1 0x44 DUP3 ADD MSTORE PUSH1 0x64 ADD PUSH2 0x6BE JUMP JUMPDEST PUSH1 0x0 DUP2 DUP2 MSTORE PUSH1 0x69 PUSH1 0x20 MSTORE PUSH1 0x40 SWAP1 KECCAK256 DUP1 SLOAD PUSH1 0x1 PUSH1 0x1 PUSH1 0xA0 SHL SUB NOT AND PUSH1 0x1 PUSH1 0x1 PUSH1 0xA0 SHL SUB DUP5 AND SWAP1 DUP2 OR SWAP1 SWAP2 SSTORE DUP2 SWAP1 PUSH2 0x1B6C DUP3 PUSH2 0xBFB JUMP JUMPDEST PUSH1 0x1 PUSH1 0x1 PUSH1 0xA0 SHL SUB AND PUSH32 0x8C5BE1E5EBEC7D5BD14F71427D1E84F3DD0314C0F7B2291E5B200AC8C7C3B925 PUSH1 0x40 MLOAD PUSH1 0x40 MLOAD DUP1 SWAP2 SUB SWAP1 LOG4 POP POP JUMP JUMPDEST PUSH1 0x40 DUP1 MLOAD PUSH1 0x1 PUSH1 0x1 PUSH1 0xA0 SHL SUB DUP6 DUP2 AND PUSH1 0x24 DUP4 ADD MSTORE DUP5 AND PUSH1 0x44 DUP3 ADD MSTORE PUSH1 0x64 DUP1 DUP3 ADD DUP5 SWAP1 MSTORE DUP3 MLOAD DUP1 DUP4 SUB SWAP1 SWAP2 ADD DUP2 MSTORE PUSH1 0x84 SWAP1 SWAP2 ADD SWAP1 SWAP2 MSTORE PUSH1 0x20 DUP2 ADD DUP1 MLOAD PUSH1 0x1 PUSH1 0x1 PUSH1 0xE0 SHL SUB AND PUSH4 0x23B872DD PUSH1 0xE0 SHL OR SWAP1 MSTORE PUSH2 0x1724 SWAP1 DUP6 SWAP1 PUSH2 0x2255 JUMP JUMPDEST PUSH1 0x0 PUSH2 0x1C0A DUP3 PUSH2 0xBFB JUMP JUMPDEST SWAP1 POP PUSH2 0x1C1A DUP2 PUSH1 0x0 DUP5 PUSH1 0x1 PUSH2 0x232A JUMP JUMPDEST PUSH2 0x1C23 DUP3 PUSH2 0xBFB JUMP JUMPDEST PUSH1 0x0 DUP4 DUP2 MSTORE PUSH1 0x69 PUSH1 0x20 SWAP1 DUP2 MSTORE PUSH1 0x40 DUP1 DUP4 KECCAK256 DUP1 SLOAD PUSH1 0x1 PUSH1 0x1 PUSH1 0xA0 SHL SUB NOT SWAP1 DUP2 AND SWAP1 SWAP2 SSTORE PUSH1 0x1 PUSH1 0x1 PUSH1 0xA0 SHL SUB DUP6 AND DUP1 DUP6 MSTORE PUSH1 0x68 DUP5 MSTORE DUP3 DUP6 KECCAK256 DUP1 SLOAD PUSH1 0x0 NOT ADD SWAP1 SSTORE DUP8 DUP6 MSTORE PUSH1 0x67 SWAP1 SWAP4 MSTORE DUP2 DUP5 KECCAK256 DUP1 SLOAD SWAP1 SWAP2 AND SWAP1 SSTORE MLOAD SWAP3 SWAP4 POP DUP5 SWAP3 PUSH32 0xDDF252AD1BE2C89B69C2B068FC378DAA952BA7F163C4A11628F55A4DF523B3EF SWAP1 DUP4 SWAP1 LOG4 POP POP JUMP JUMPDEST PUSH1 0x0 DUP4 DUP2 MSTORE PUSH1 0xFD PUSH1 0x20 SWAP1 DUP2 MSTORE PUSH1 0x40 DUP1 DUP4 KECCAK256 DUP2 MLOAD PUSH1 0x80 DUP2 ADD DUP4 MSTORE DUP2 SLOAD DUP2 MSTORE PUSH1 0x1 DUP3 ADD SLOAD SWAP4 DUP2 ADD SWAP4 SWAP1 SWAP4 MSTORE PUSH1 0x2 ADD SLOAD PUSH1 0x1 PUSH1 0x1 PUSH1 0xA0 SHL SUB DUP1 DUP3 AND DUP5 DUP5 ADD DUP2 SWAP1 MSTORE PUSH1 0x1 PUSH1 0xA0 SHL SWAP1 SWAP3 DIV PUSH2 0xFFFF AND PUSH1 0x60 DUP6 ADD DUP2 SWAP1 MSTORE PUSH1 0xFB SLOAD SWAP4 MLOAD PUSH4 0x3F6B7243 PUSH1 0xE2 SHL DUP2 MSTORE SWAP4 SWAP1 SWAP2 AND SWAP3 PUSH4 0xFDADC90C SWAP3 PUSH2 0x1D21 SWAP3 SWAP1 SWAP2 DUP11 SWAP2 DUP10 SWAP2 DUP10 SWAP1 PUSH1 0x4 ADD PUSH2 0x31D0 JUMP JUMPDEST PUSH1 0x20 PUSH1 0x40 MLOAD DUP1 DUP4 SUB DUP2 PUSH1 0x0 DUP8 GAS CALL ISZERO DUP1 ISZERO PUSH2 0x1D40 JUMPI RETURNDATASIZE PUSH1 0x0 DUP1 RETURNDATACOPY RETURNDATASIZE PUSH1 0x0 REVERT JUMPDEST POP POP POP POP PUSH1 0x40 MLOAD RETURNDATASIZE PUSH1 0x1F NOT PUSH1 0x1F DUP3 ADD AND DUP3 ADD DUP1 PUSH1 0x40 MSTORE POP DUP2 ADD SWAP1 PUSH2 0x1D64 SWAP2 SWAP1 PUSH2 0x30A2 JUMP JUMPDEST SWAP6 SWAP5 POP POP POP POP POP JUMP JUMPDEST PUSH1 0x0 DUP1 PUSH2 0x1D79 PUSH1 0xFE SLOAD SWAP1 JUMP JUMPDEST SWAP1 POP PUSH2 0x3E8 DUP2 LT PUSH2 0x1DC3 JUMPI PUSH1 0x40 MLOAD PUSH3 0x461BCD PUSH1 0xE5 SHL DUP2 MSTORE PUSH1 0x20 PUSH1 0x4 DUP3 ADD MSTORE PUSH1 0x14 PUSH1 0x24 DUP3 ADD MSTORE PUSH20 0x6D696E74206174206D6178206361706163697479 PUSH1 0x60 SHL PUSH1 0x44 DUP3 ADD MSTORE PUSH1 0x64 ADD PUSH2 0x6BE JUMP JUMPDEST DUP1 PUSH2 0x1DD1 CHAINID PUSH3 0x989680 PUSH2 0x3214 JUMP JUMPDEST PUSH2 0x1DDB SWAP2 SWAP1 PUSH2 0x322B JUMP JUMPDEST PUSH1 0x40 DUP1 MLOAD PUSH1 0x1 PUSH1 0x1 PUSH1 0xA0 SHL SUB DUP7 AND DUP2 MSTORE PUSH1 0x20 DUP2 ADD DUP4 SWAP1 MSTORE SWAP2 SWAP4 POP PUSH32 0xF6798A560793A54C3BCFE86A93CDE1E73087D944C0EA20544137D4121396885 SWAP2 ADD PUSH1 0x40 MLOAD DUP1 SWAP2 SUB SWAP1 LOG1 PUSH2 0x1E2A DUP4 DUP4 PUSH2 0x202E JUMP JUMPDEST PUSH2 0x1E38 PUSH1 0xFE DUP1 SLOAD PUSH1 0x1 ADD SWAP1 SSTORE JUMP JUMPDEST POP SWAP2 SWAP1 POP JUMP JUMPDEST PUSH1 0x0 DUP1 PUSH2 0x1E4A DUP4 PUSH2 0xBFB JUMP JUMPDEST SWAP1 POP DUP1 PUSH1 0x1 PUSH1 0x1 PUSH1 0xA0 SHL SUB AND DUP5 PUSH1 0x1 PUSH1 0x1 PUSH1 0xA0 SHL SUB AND EQ DUP1 PUSH2 0x1E91 JUMPI POP PUSH1 0x1 PUSH1 0x1 PUSH1 0xA0 SHL SUB DUP1 DUP3 AND PUSH1 0x0 SWAP1 DUP2 MSTORE PUSH1 0x6A PUSH1 0x20 SWAP1 DUP2 MSTORE PUSH1 0x40 DUP1 DUP4 KECCAK256 SWAP4 DUP9 AND DUP4 MSTORE SWAP3 SWAP1 MSTORE KECCAK256 SLOAD PUSH1 0xFF AND JUMPDEST DUP1 PUSH2 0x1EB5 JUMPI POP DUP4 PUSH1 0x1 PUSH1 0x1 PUSH1 0xA0 SHL SUB AND PUSH2 0x1EAA DUP5 PUSH2 0x623 JUMP JUMPDEST PUSH1 0x1 PUSH1 0x1 PUSH1 0xA0 SHL SUB AND EQ JUMPDEST SWAP5 SWAP4 POP POP POP POP JUMP JUMPDEST DUP3 PUSH1 0x1 PUSH1 0x1 PUSH1 0xA0 SHL SUB AND PUSH2 0x1ED0 DUP3 PUSH2 0xBFB JUMP JUMPDEST PUSH1 0x1 PUSH1 0x1 PUSH1 0xA0 SHL SUB AND EQ PUSH2 0x1EF6 JUMPI PUSH1 0x40 MLOAD PUSH3 0x461BCD PUSH1 0xE5 SHL DUP2 MSTORE PUSH1 0x4 ADD PUSH2 0x6BE SWAP1 PUSH2 0x323E JUMP JUMPDEST PUSH1 0x1 PUSH1 0x1 PUSH1 0xA0 SHL SUB DUP3 AND PUSH2 0x1F58 JUMPI PUSH1 0x40 MLOAD PUSH3 0x461BCD PUSH1 0xE5 SHL DUP2 MSTORE PUSH1 0x20 PUSH1 0x4 DUP3 ADD MSTORE PUSH1 0x24 DUP1 DUP3 ADD MSTORE PUSH32 0x4552433732313A207472616E7366657220746F20746865207A65726F20616464 PUSH1 0x44 DUP3 ADD MSTORE PUSH4 0x72657373 PUSH1 0xE0 SHL PUSH1 0x64 DUP3 ADD MSTORE PUSH1 0x84 ADD PUSH2 0x6BE JUMP JUMPDEST PUSH2 0x1F65 DUP4 DUP4 DUP4 PUSH1 0x1 PUSH2 0x232A JUMP JUMPDEST DUP3 PUSH1 0x1 PUSH1 0x1 PUSH1 0xA0 SHL SUB AND PUSH2 0x1F78 DUP3 PUSH2 0xBFB JUMP JUMPDEST PUSH1 0x1 PUSH1 0x1 PUSH1 0xA0 SHL SUB AND EQ PUSH2 0x1F9E JUMPI PUSH1 0x40 MLOAD PUSH3 0x461BCD PUSH1 0xE5 SHL DUP2 MSTORE PUSH1 0x4 ADD PUSH2 0x6BE SWAP1 PUSH2 0x323E JUMP JUMPDEST PUSH1 0x0 DUP2 DUP2 MSTORE PUSH1 0x69 PUSH1 0x20 SWAP1 DUP2 MSTORE PUSH1 0x40 DUP1 DUP4 KECCAK256 DUP1 SLOAD PUSH1 0x1 PUSH1 0x1 PUSH1 0xA0 SHL SUB NOT SWAP1 DUP2 AND SWAP1 SWAP2 SSTORE PUSH1 0x1 PUSH1 0x1 PUSH1 0xA0 SHL SUB DUP8 DUP2 AND DUP1 DUP7 MSTORE PUSH1 0x68 DUP6 MSTORE DUP4 DUP7 KECCAK256 DUP1 SLOAD PUSH1 0x0 NOT ADD SWAP1 SSTORE SWAP1 DUP8 AND DUP1 DUP7 MSTORE DUP4 DUP7 KECCAK256 DUP1 SLOAD PUSH1 0x1 ADD SWAP1 SSTORE DUP7 DUP7 MSTORE PUSH1 0x67 SWAP1 SWAP5 MSTORE DUP3 DUP6 KECCAK256 DUP1 SLOAD SWAP1 SWAP3 AND DUP5 OR SWAP1 SWAP2 SSTORE SWAP1 MLOAD DUP5 SWAP4 PUSH32 0xDDF252AD1BE2C89B69C2B068FC378DAA952BA7F163C4A11628F55A4DF523B3EF SWAP2 LOG4 POP POP POP JUMP JUMPDEST PUSH2 0x1684 DUP3 DUP3 PUSH1 0x40 MLOAD DUP1 PUSH1 0x20 ADD PUSH1 0x40 MSTORE DUP1 PUSH1 0x0 DUP2 MSTORE POP PUSH2 0x2457 JUMP JUMPDEST PUSH1 0xC9 SLOAD PUSH1 0x1 PUSH1 0x1 PUSH1 0xA0 SHL SUB AND CALLER EQ PUSH2 0xCF3 JUMPI PUSH1 0x40 MLOAD PUSH3 0x461BCD PUSH1 0xE5 SHL DUP2 MSTORE PUSH1 0x20 PUSH1 0x4 DUP3 ADD DUP2 SWAP1 MSTORE PUSH1 0x24 DUP3 ADD MSTORE PUSH32 0x4F776E61626C653A2063616C6C6572206973206E6F7420746865206F776E6572 PUSH1 0x44 DUP3 ADD MSTORE PUSH1 0x64 ADD PUSH2 0x6BE JUMP JUMPDEST PUSH1 0xC9 DUP1 SLOAD PUSH1 0x1 PUSH1 0x1 PUSH1 0xA0 SHL SUB DUP4 DUP2 AND PUSH1 0x1 PUSH1 0x1 PUSH1 0xA0 SHL SUB NOT DUP4 AND DUP2 OR SWAP1 SWAP4 SSTORE PUSH1 0x40 MLOAD SWAP2 AND SWAP2 SWAP1 DUP3 SWAP1 PUSH32 0x8BE0079C531659141344CD1FD0A4F28419497F9722A3DAAFE3B4186F6B6457E0 SWAP1 PUSH1 0x0 SWAP1 LOG3 POP POP JUMP JUMPDEST DUP2 PUSH1 0x1 PUSH1 0x1 PUSH1 0xA0 SHL SUB AND DUP4 PUSH1 0x1 PUSH1 0x1 PUSH1 0xA0 SHL SUB AND SUB PUSH2 0x2155 JUMPI PUSH1 0x40 MLOAD PUSH3 0x461BCD PUSH1 0xE5 SHL DUP2 MSTORE PUSH1 0x20 PUSH1 0x4 DUP3 ADD MSTORE PUSH1 0x19 PUSH1 0x24 DUP3 ADD MSTORE PUSH32 0x4552433732313A20617070726F766520746F2063616C6C657200000000000000 PUSH1 0x44 DUP3 ADD MSTORE PUSH1 0x64 ADD PUSH2 0x6BE JUMP JUMPDEST PUSH1 0x1 PUSH1 0x1 PUSH1 0xA0 SHL SUB DUP4 DUP2 AND PUSH1 0x0 DUP2 DUP2 MSTORE PUSH1 0x6A PUSH1 0x20 SWAP1 DUP2 MSTORE PUSH1 0x40 DUP1 DUP4 KECCAK256 SWAP5 DUP8 AND DUP1 DUP5 MSTORE SWAP5 DUP3 MSTORE SWAP2 DUP3 SWAP1 KECCAK256 DUP1 SLOAD PUSH1 0xFF NOT AND DUP7 ISZERO ISZERO SWAP1 DUP2 OR SWAP1 SWAP2 SSTORE SWAP2 MLOAD SWAP2 DUP3 MSTORE PUSH32 0x17307EAB39AB6107E8899845AD3D59BD9653F200F220920489CA2B5937696C31 SWAP2 ADD PUSH1 0x40 MLOAD DUP1 SWAP2 SUB SWAP1 LOG3 POP POP POP JUMP JUMPDEST PUSH2 0x21CD DUP5 DUP5 DUP5 PUSH2 0x1EBD JUMP JUMPDEST PUSH2 0x21D9 DUP5 DUP5 DUP5 DUP5 PUSH2 0x248A JUMP JUMPDEST PUSH2 0x1724 JUMPI PUSH1 0x40 MLOAD PUSH3 0x461BCD PUSH1 0xE5 SHL DUP2 MSTORE PUSH1 0x4 ADD PUSH2 0x6BE SWAP1 PUSH2 0x3283 JUMP JUMPDEST PUSH1 0x0 SLOAD PUSH2 0x100 SWAP1 DIV PUSH1 0xFF AND PUSH2 0x221C JUMPI PUSH1 0x40 MLOAD PUSH3 0x461BCD PUSH1 0xE5 SHL DUP2 MSTORE PUSH1 0x4 ADD PUSH2 0x6BE SWAP1 PUSH2 0x30FC JUMP JUMPDEST PUSH2 0xCF3 PUSH2 0x258B JUMP JUMPDEST PUSH1 0x0 SLOAD PUSH2 0x100 SWAP1 DIV PUSH1 0xFF AND PUSH2 0x224B JUMPI PUSH1 0x40 MLOAD PUSH3 0x461BCD PUSH1 0xE5 SHL DUP2 MSTORE PUSH1 0x4 ADD PUSH2 0x6BE SWAP1 PUSH2 0x30FC JUMP JUMPDEST PUSH2 0x1684 DUP3 DUP3 PUSH2 0x25BB JUMP JUMPDEST PUSH1 0x0 PUSH2 0x22AA DUP3 PUSH1 0x40 MLOAD DUP1 PUSH1 0x40 ADD PUSH1 0x40 MSTORE DUP1 PUSH1 0x20 DUP2 MSTORE PUSH1 0x20 ADD PUSH32 0x5361666545524332303A206C6F772D6C6576656C2063616C6C206661696C6564 DUP2 MSTORE POP DUP6 PUSH1 0x1 PUSH1 0x1 PUSH1 0xA0 SHL SUB AND PUSH2 0x25FB SWAP1 SWAP3 SWAP2 SWAP1 PUSH4 0xFFFFFFFF AND JUMP JUMPDEST SWAP1 POP DUP1 MLOAD PUSH1 0x0 EQ DUP1 PUSH2 0x22CB JUMPI POP DUP1 DUP1 PUSH1 0x20 ADD SWAP1 MLOAD DUP2 ADD SWAP1 PUSH2 0x22CB SWAP2 SWAP1 PUSH2 0x30DF JUMP JUMPDEST PUSH2 0x75F JUMPI PUSH1 0x40 MLOAD PUSH3 0x461BCD PUSH1 0xE5 SHL DUP2 MSTORE PUSH1 0x20 PUSH1 0x4 DUP3 ADD MSTORE PUSH1 0x2A PUSH1 0x24 DUP3 ADD MSTORE PUSH32 0x5361666545524332303A204552433230206F7065726174696F6E20646964206E PUSH1 0x44 DUP3 ADD MSTORE PUSH10 0x1BDD081CDD58D8D95959 PUSH1 0xB2 SHL PUSH1 0x64 DUP3 ADD MSTORE PUSH1 0x84 ADD PUSH2 0x6BE JUMP JUMPDEST PUSH1 0x1 DUP2 GT ISZERO PUSH2 0x2399 JUMPI PUSH1 0x40 MLOAD PUSH3 0x461BCD PUSH1 0xE5 SHL DUP2 MSTORE PUSH1 0x20 PUSH1 0x4 DUP3 ADD MSTORE PUSH1 0x35 PUSH1 0x24 DUP3 ADD MSTORE PUSH32 0x455243373231456E756D657261626C653A20636F6E7365637574697665207472 PUSH1 0x44 DUP3 ADD MSTORE PUSH21 0x185B9CD9995C9CC81B9BDD081CDD5C1C1BDC9D1959 PUSH1 0x5A SHL PUSH1 0x64 DUP3 ADD MSTORE PUSH1 0x84 ADD PUSH2 0x6BE JUMP JUMPDEST DUP2 PUSH1 0x1 PUSH1 0x1 PUSH1 0xA0 SHL SUB DUP6 AND PUSH2 0x23F5 JUMPI PUSH2 0x23F0 DUP2 PUSH1 0x99 DUP1 SLOAD PUSH1 0x0 DUP4 DUP2 MSTORE PUSH1 0x9A PUSH1 0x20 MSTORE PUSH1 0x40 DUP2 KECCAK256 DUP3 SWAP1 SSTORE PUSH1 0x1 DUP3 ADD DUP4 SSTORE SWAP2 SWAP1 SWAP2 MSTORE PUSH32 0x72A152DDFB8E864297C917AF52EA6C1C68AEAD0FEE1A62673FCC7E0C94979D00 ADD SSTORE JUMP JUMPDEST PUSH2 0x2418 JUMP JUMPDEST DUP4 PUSH1 0x1 PUSH1 0x1 PUSH1 0xA0 SHL SUB AND DUP6 PUSH1 0x1 PUSH1 0x1 PUSH1 0xA0 SHL SUB AND EQ PUSH2 0x2418 JUMPI PUSH2 0x2418 DUP6 DUP3 PUSH2 0x260A JUMP JUMPDEST PUSH1 0x1 PUSH1 0x1 PUSH1 0xA0 SHL SUB DUP5 AND PUSH2 0x2434 JUMPI PUSH2 0x242F DUP2 PUSH2 0x26A7 JUMP JUMPDEST PUSH2 0x16EB JUMP JUMPDEST DUP5 PUSH1 0x1 PUSH1 0x1 PUSH1 0xA0 SHL SUB AND DUP5 PUSH1 0x1 PUSH1 0x1 PUSH1 0xA0 SHL SUB AND EQ PUSH2 0x16EB JUMPI PUSH2 0x16EB DUP5 DUP3 PUSH2 0x2756 JUMP JUMPDEST PUSH2 0x2461 DUP4 DUP4 PUSH2 0x279A JUMP JUMPDEST PUSH2 0x246E PUSH1 0x0 DUP5 DUP5 DUP5 PUSH2 0x248A JUMP JUMPDEST PUSH2 0x75F JUMPI PUSH1 0x40 MLOAD PUSH3 0x461BCD PUSH1 0xE5 SHL DUP2 MSTORE PUSH1 0x4 ADD PUSH2 0x6BE SWAP1 PUSH2 0x3283 JUMP JUMPDEST PUSH1 0x0 PUSH1 0x1 PUSH1 0x1 PUSH1 0xA0 SHL SUB DUP5 AND EXTCODESIZE ISZERO PUSH2 0x2580 JUMPI PUSH1 0x40 MLOAD PUSH4 0xA85BD01 PUSH1 0xE1 SHL DUP2 MSTORE PUSH1 0x1 PUSH1 0x1 PUSH1 0xA0 SHL SUB DUP6 AND SWAP1 PUSH4 0x150B7A02 SWAP1 PUSH2 0x24CE SWAP1 CALLER SWAP1 DUP10 SWAP1 DUP9 SWAP1 DUP9 SWAP1 PUSH1 0x4 ADD PUSH2 0x32D5 JUMP JUMPDEST PUSH1 0x20 PUSH1 0x40 MLOAD DUP1 DUP4 SUB DUP2 PUSH1 0x0 DUP8 GAS CALL SWAP3 POP POP POP DUP1 ISZERO PUSH2 0x2509 JUMPI POP PUSH1 0x40 DUP1 MLOAD PUSH1 0x1F RETURNDATASIZE SWAP1 DUP2 ADD PUSH1 0x1F NOT AND DUP3 ADD SWAP1 SWAP3 MSTORE PUSH2 0x2506 SWAP2 DUP2 ADD SWAP1 PUSH2 0x3308 JUMP JUMPDEST PUSH1 0x1 JUMPDEST PUSH2 0x2566 JUMPI RETURNDATASIZE DUP1 DUP1 ISZERO PUSH2 0x2537 JUMPI PUSH1 0x40 MLOAD SWAP2 POP PUSH1 0x1F NOT PUSH1 0x3F RETURNDATASIZE ADD AND DUP3 ADD PUSH1 0x40 MSTORE RETURNDATASIZE DUP3 MSTORE RETURNDATASIZE PUSH1 0x0 PUSH1 0x20 DUP5 ADD RETURNDATACOPY PUSH2 0x253C JUMP JUMPDEST PUSH1 0x60 SWAP2 POP JUMPDEST POP DUP1 MLOAD PUSH1 0x0 SUB PUSH2 0x255E JUMPI PUSH1 0x40 MLOAD PUSH3 0x461BCD PUSH1 0xE5 SHL DUP2 MSTORE PUSH1 0x4 ADD PUSH2 0x6BE SWAP1 PUSH2 0x3283 JUMP JUMPDEST DUP1 MLOAD DUP2 PUSH1 0x20 ADD REVERT JUMPDEST PUSH1 0x1 PUSH1 0x1 PUSH1 0xE0 SHL SUB NOT AND PUSH4 0xA85BD01 PUSH1 0xE1 SHL EQ SWAP1 POP PUSH2 0x1EB5 JUMP JUMPDEST POP PUSH1 0x1 SWAP5 SWAP4 POP POP POP POP JUMP JUMPDEST PUSH1 0x0 SLOAD PUSH2 0x100 SWAP1 DIV PUSH1 0xFF AND PUSH2 0x25B2 JUMPI PUSH1 0x40 MLOAD PUSH3 0x461BCD PUSH1 0xE5 SHL DUP2 MSTORE PUSH1 0x4 ADD PUSH2 0x6BE SWAP1 PUSH2 0x30FC JUMP JUMPDEST PUSH2 0xCF3 CALLER PUSH2 0x20A2 JUMP JUMPDEST PUSH1 0x0 SLOAD PUSH2 0x100 SWAP1 DIV PUSH1 0xFF AND PUSH2 0x25E2 JUMPI PUSH1 0x40 MLOAD PUSH3 0x461BCD PUSH1 0xE5 SHL DUP2 MSTORE PUSH1 0x4 ADD PUSH2 0x6BE SWAP1 PUSH2 0x30FC JUMP JUMPDEST PUSH1 0x65 PUSH2 0x25EE DUP4 DUP3 PUSH2 0x3373 JUMP JUMPDEST POP PUSH1 0x66 PUSH2 0x75F DUP3 DUP3 PUSH2 0x3373 JUMP JUMPDEST PUSH1 0x60 PUSH2 0x1EB5 DUP5 DUP5 PUSH1 0x0 DUP6 PUSH2 0x2933 JUMP JUMPDEST PUSH1 0x0 PUSH1 0x1 PUSH2 0x2617 DUP5 PUSH2 0xC5B JUMP JUMPDEST PUSH2 0x2621 SWAP2 SWAP1 PUSH2 0x3433 JUMP JUMPDEST PUSH1 0x0 DUP4 DUP2 MSTORE PUSH1 0x98 PUSH1 0x20 MSTORE PUSH1 0x40 SWAP1 KECCAK256 SLOAD SWAP1 SWAP2 POP DUP1 DUP3 EQ PUSH2 0x2674 JUMPI PUSH1 0x1 PUSH1 0x1 PUSH1 0xA0 SHL SUB DUP5 AND PUSH1 0x0 SWAP1 DUP2 MSTORE PUSH1 0x97 PUSH1 0x20 SWAP1 DUP2 MSTORE PUSH1 0x40 DUP1 DUP4 KECCAK256 DUP6 DUP5 MSTORE DUP3 MSTORE DUP1 DUP4 KECCAK256 SLOAD DUP5 DUP5 MSTORE DUP2 DUP5 KECCAK256 DUP2 SWAP1 SSTORE DUP4 MSTORE PUSH1 0x98 SWAP1 SWAP2 MSTORE SWAP1 KECCAK256 DUP2 SWAP1 SSTORE JUMPDEST POP PUSH1 0x0 SWAP2 DUP3 MSTORE PUSH1 0x98 PUSH1 0x20 SWAP1 DUP2 MSTORE PUSH1 0x40 DUP1 DUP5 KECCAK256 DUP5 SWAP1 SSTORE PUSH1 0x1 PUSH1 0x1 PUSH1 0xA0 SHL SUB SWAP1 SWAP5 AND DUP4 MSTORE PUSH1 0x97 DUP2 MSTORE DUP4 DUP4 KECCAK256 SWAP2 DUP4 MSTORE MSTORE SWAP1 DUP2 KECCAK256 SSTORE JUMP JUMPDEST PUSH1 0x99 SLOAD PUSH1 0x0 SWAP1 PUSH2 0x26B9 SWAP1 PUSH1 0x1 SWAP1 PUSH2 0x3433 JUMP JUMPDEST PUSH1 0x0 DUP4 DUP2 MSTORE PUSH1 0x9A PUSH1 0x20 MSTORE PUSH1 0x40 DUP2 KECCAK256 SLOAD PUSH1 0x99 DUP1 SLOAD SWAP4 SWAP5 POP SWAP1 SWAP3 DUP5 SWAP1 DUP2 LT PUSH2 0x26E1 JUMPI PUSH2 0x26E1 PUSH2 0x3040 JUMP JUMPDEST SWAP1 PUSH1 0x0 MSTORE PUSH1 0x20 PUSH1 0x0 KECCAK256 ADD SLOAD SWAP1 POP DUP1 PUSH1 0x99 DUP4 DUP2 SLOAD DUP2 LT PUSH2 0x2702 JUMPI PUSH2 0x2702 PUSH2 0x3040 JUMP JUMPDEST PUSH1 0x0 SWAP2 DUP3 MSTORE PUSH1 0x20 DUP1 DUP4 KECCAK256 SWAP1 SWAP2 ADD SWAP3 SWAP1 SWAP3 SSTORE DUP3 DUP2 MSTORE PUSH1 0x9A SWAP1 SWAP2 MSTORE PUSH1 0x40 DUP1 DUP3 KECCAK256 DUP5 SWAP1 SSTORE DUP6 DUP3 MSTORE DUP2 KECCAK256 SSTORE PUSH1 0x99 DUP1 SLOAD DUP1 PUSH2 0x273A JUMPI PUSH2 0x273A PUSH2 0x3446 JUMP JUMPDEST PUSH1 0x1 SWAP1 SUB DUP2 DUP2 SWAP1 PUSH1 0x0 MSTORE PUSH1 0x20 PUSH1 0x0 KECCAK256 ADD PUSH1 0x0 SWAP1 SSTORE SWAP1 SSTORE POP POP POP POP JUMP JUMPDEST PUSH1 0x0 PUSH2 0x2761 DUP4 PUSH2 0xC5B JUMP JUMPDEST PUSH1 0x1 PUSH1 0x1 PUSH1 0xA0 SHL SUB SWAP1 SWAP4 AND PUSH1 0x0 SWAP1 DUP2 MSTORE PUSH1 0x97 PUSH1 0x20 SWAP1 DUP2 MSTORE PUSH1 0x40 DUP1 DUP4 KECCAK256 DUP7 DUP5 MSTORE DUP3 MSTORE DUP1 DUP4 KECCAK256 DUP6 SWAP1 SSTORE SWAP4 DUP3 MSTORE PUSH1 0x98 SWAP1 MSTORE SWAP2 SWAP1 SWAP2 KECCAK256 SWAP2 SWAP1 SWAP2 SSTORE POP JUMP JUMPDEST PUSH1 0x1 PUSH1 0x1 PUSH1 0xA0 SHL SUB DUP3 AND PUSH2 0x27F0 JUMPI PUSH1 0x40 MLOAD PUSH3 0x461BCD PUSH1 0xE5 SHL DUP2 MSTORE PUSH1 0x20 PUSH1 0x4 DUP3 ADD DUP2 SWAP1 MSTORE PUSH1 0x24 DUP3 ADD MSTORE PUSH32 0x4552433732313A206D696E7420746F20746865207A65726F2061646472657373 PUSH1 0x44 DUP3 ADD MSTORE PUSH1 0x64 ADD PUSH2 0x6BE JUMP JUMPDEST PUSH1 0x0 DUP2 DUP2 MSTORE PUSH1 0x67 PUSH1 0x20 MSTORE PUSH1 0x40 SWAP1 KECCAK256 SLOAD PUSH1 0x1 PUSH1 0x1 PUSH1 0xA0 SHL SUB AND ISZERO PUSH2 0x2855 JUMPI PUSH1 0x40 MLOAD PUSH3 0x461BCD PUSH1 0xE5 SHL DUP2 MSTORE PUSH1 0x20 PUSH1 0x4 DUP3 ADD MSTORE PUSH1 0x1C PUSH1 0x24 DUP3 ADD MSTORE PUSH32 0x4552433732313A20746F6B656E20616C7265616479206D696E74656400000000 PUSH1 0x44 DUP3 ADD MSTORE PUSH1 0x64 ADD PUSH2 0x6BE JUMP JUMPDEST PUSH2 0x2863 PUSH1 0x0 DUP4 DUP4 PUSH1 0x1 PUSH2 0x232A JUMP JUMPDEST PUSH1 0x0 DUP2 DUP2 MSTORE PUSH1 0x67 PUSH1 0x20 MSTORE PUSH1 0x40 SWAP1 KECCAK256 SLOAD PUSH1 0x1 PUSH1 0x1 PUSH1 0xA0 SHL SUB AND ISZERO PUSH2 0x28C8 JUMPI PUSH1 0x40 MLOAD PUSH3 0x461BCD PUSH1 0xE5 SHL DUP2 MSTORE PUSH1 0x20 PUSH1 0x4 DUP3 ADD MSTORE PUSH1 0x1C PUSH1 0x24 DUP3 ADD MSTORE PUSH32 0x4552433732313A20746F6B656E20616C7265616479206D696E74656400000000 PUSH1 0x44 DUP3 ADD MSTORE PUSH1 0x64 ADD PUSH2 0x6BE JUMP JUMPDEST PUSH1 0x1 PUSH1 0x1 PUSH1 0xA0 SHL SUB DUP3 AND PUSH1 0x0 DUP2 DUP2 MSTORE PUSH1 0x68 PUSH1 0x20 SWAP1 DUP2 MSTORE PUSH1 0x40 DUP1 DUP4 KECCAK256 DUP1 SLOAD PUSH1 0x1 ADD SWAP1 SSTORE DUP5 DUP4 MSTORE PUSH1 0x67 SWAP1 SWAP2 MSTORE DUP1 DUP3 KECCAK256 DUP1 SLOAD PUSH1 0x1 PUSH1 0x1 PUSH1 0xA0 SHL SUB NOT AND DUP5 OR SWAP1 SSTORE MLOAD DUP4 SWAP3 SWAP2 SWAP1 PUSH32 0xDDF252AD1BE2C89B69C2B068FC378DAA952BA7F163C4A11628F55A4DF523B3EF SWAP1 DUP3 SWAP1 LOG4 POP POP JUMP JUMPDEST PUSH1 0x60 DUP3 SELFBALANCE LT ISZERO PUSH2 0x2994 JUMPI PUSH1 0x40 MLOAD PUSH3 0x461BCD PUSH1 0xE5 SHL DUP2 MSTORE PUSH1 0x20 PUSH1 0x4 DUP3 ADD MSTORE PUSH1 0x26 PUSH1 0x24 DUP3 ADD MSTORE PUSH32 0x416464726573733A20696E73756666696369656E742062616C616E636520666F PUSH1 0x44 DUP3 ADD MSTORE PUSH6 0x1C8818D85B1B PUSH1 0xD2 SHL PUSH1 0x64 DUP3 ADD MSTORE PUSH1 0x84 ADD PUSH2 0x6BE JUMP JUMPDEST PUSH1 0x0 DUP1 DUP7 PUSH1 0x1 PUSH1 0x1 PUSH1 0xA0 SHL SUB AND DUP6 DUP8 PUSH1 0x40 MLOAD PUSH2 0x29B0 SWAP2 SWAP1 PUSH2 0x345C JUMP JUMPDEST PUSH1 0x0 PUSH1 0x40 MLOAD DUP1 DUP4 SUB DUP2 DUP6 DUP8 GAS CALL SWAP3 POP POP POP RETURNDATASIZE DUP1 PUSH1 0x0 DUP2 EQ PUSH2 0x29ED JUMPI PUSH1 0x40 MLOAD SWAP2 POP PUSH1 0x1F NOT PUSH1 0x3F RETURNDATASIZE ADD AND DUP3 ADD PUSH1 0x40 MSTORE RETURNDATASIZE DUP3 MSTORE RETURNDATASIZE PUSH1 0x0 PUSH1 0x20 DUP5 ADD RETURNDATACOPY PUSH2 0x29F2 JUMP JUMPDEST PUSH1 0x60 SWAP2 POP JUMPDEST POP SWAP2 POP SWAP2 POP PUSH2 0x2A03 DUP8 DUP4 DUP4 DUP8 PUSH2 0x2A0E JUMP JUMPDEST SWAP8 SWAP7 POP POP POP POP POP POP POP JUMP JUMPDEST PUSH1 0x60 DUP4 ISZERO PUSH2 0x2A7D JUMPI DUP3 MLOAD PUSH1 0x0 SUB PUSH2 0x2A76 JUMPI PUSH1 0x1 PUSH1 0x1 PUSH1 0xA0 SHL SUB DUP6 AND EXTCODESIZE PUSH2 0x2A76 JUMPI PUSH1 0x40 MLOAD PUSH3 0x461BCD PUSH1 0xE5 SHL DUP2 MSTORE PUSH1 0x20 PUSH1 0x4 DUP3 ADD MSTORE PUSH1 0x1D PUSH1 0x24 DUP3 ADD MSTORE PUSH32 0x416464726573733A2063616C6C20746F206E6F6E2D636F6E7472616374000000 PUSH1 0x44 DUP3 ADD MSTORE PUSH1 0x64 ADD PUSH2 0x6BE JUMP JUMPDEST POP DUP2 PUSH2 0x1EB5 JUMP JUMPDEST PUSH2 0x1EB5 DUP4 DUP4 DUP2 MLOAD ISZERO PUSH2 0x2A92 JUMPI DUP2 MLOAD DUP1 DUP4 PUSH1 0x20 ADD REVERT JUMPDEST DUP1 PUSH1 0x40 MLOAD PUSH3 0x461BCD PUSH1 0xE5 SHL DUP2 MSTORE PUSH1 0x4 ADD PUSH2 0x6BE SWAP2 SWAP1 PUSH2 0x2B36 JUMP JUMPDEST PUSH1 0x1 PUSH1 0x1 PUSH1 0xE0 SHL SUB NOT DUP2 AND DUP2 EQ PUSH2 0x19D6 JUMPI PUSH1 0x0 DUP1 REVERT JUMPDEST PUSH1 0x0 PUSH1 0x20 DUP3 DUP5 SUB SLT ISZERO PUSH2 0x2AD4 JUMPI PUSH1 0x0 DUP1 REVERT JUMPDEST DUP2 CALLDATALOAD PUSH2 0x2ADF DUP2 PUSH2 0x2AAC JUMP JUMPDEST SWAP4 SWAP3 POP POP POP JUMP JUMPDEST PUSH1 0x0 JUMPDEST DUP4 DUP2 LT ISZERO PUSH2 0x2B01 JUMPI DUP2 DUP2 ADD MLOAD DUP4 DUP3 ADD MSTORE PUSH1 0x20 ADD PUSH2 0x2AE9 JUMP JUMPDEST POP POP PUSH1 0x0 SWAP2 ADD MSTORE JUMP JUMPDEST PUSH1 0x0 DUP2 MLOAD DUP1 DUP5 MSTORE PUSH2 0x2B22 DUP2 PUSH1 0x20 DUP7 ADD PUSH1 0x20 DUP7 ADD PUSH2 0x2AE6 JUMP JUMPDEST PUSH1 0x1F ADD PUSH1 0x1F NOT AND SWAP3 SWAP1 SWAP3 ADD PUSH1 0x20 ADD SWAP3 SWAP2 POP POP JUMP JUMPDEST PUSH1 0x20 DUP2 MSTORE PUSH1 0x0 PUSH2 0x2ADF PUSH1 0x20 DUP4 ADD DUP5 PUSH2 0x2B0A JUMP JUMPDEST PUSH1 0x0 PUSH1 0x20 DUP3 DUP5 SUB SLT ISZERO PUSH2 0x2B5B JUMPI PUSH1 0x0 DUP1 REVERT JUMPDEST POP CALLDATALOAD SWAP2 SWAP1 POP JUMP JUMPDEST PUSH1 0x1 PUSH1 0x1 PUSH1 0xA0 SHL SUB DUP2 AND DUP2 EQ PUSH2 0x19D6 JUMPI PUSH1 0x0 DUP1 REVERT JUMPDEST PUSH1 0x0 DUP1 PUSH1 0x40 DUP4 DUP6 SUB SLT ISZERO PUSH2 0x2B8A JUMPI PUSH1 0x0 DUP1 REVERT JUMPDEST DUP3 CALLDATALOAD PUSH2 0x2B95 DUP2 PUSH2 0x2B62 JUMP JUMPDEST SWAP5 PUSH1 0x20 SWAP4 SWAP1 SWAP4 ADD CALLDATALOAD SWAP4 POP POP POP JUMP JUMPDEST PUSH1 0x0 DUP1 PUSH1 0x0 PUSH1 0x60 DUP5 DUP7 SUB SLT ISZERO PUSH2 0x2BB8 JUMPI PUSH1 0x0 DUP1 REVERT JUMPDEST DUP4 CALLDATALOAD PUSH2 0x2BC3 DUP2 PUSH2 0x2B62 JUMP JUMPDEST SWAP6 PUSH1 0x20 DUP6 ADD CALLDATALOAD SWAP6 POP PUSH1 0x40 SWAP1 SWAP5 ADD CALLDATALOAD SWAP4 SWAP3 POP POP POP JUMP JUMPDEST PUSH1 0x0 DUP1 PUSH1 0x0 PUSH1 0x60 DUP5 DUP7 SUB SLT ISZERO PUSH2 0x2BED JUMPI PUSH1 0x0 DUP1 REVERT JUMPDEST DUP4 CALLDATALOAD PUSH2 0x2BF8 DUP2 PUSH2 0x2B62 JUMP JUMPDEST SWAP3 POP PUSH1 0x20 DUP5 ADD CALLDATALOAD PUSH2 0x2C08 DUP2 PUSH2 0x2B62 JUMP JUMPDEST SWAP3 SWAP6 SWAP3 SWAP5 POP POP POP PUSH1 0x40 SWAP2 SWAP1 SWAP2 ADD CALLDATALOAD SWAP1 JUMP JUMPDEST PUSH1 0x0 PUSH1 0x20 DUP3 DUP5 SUB SLT ISZERO PUSH2 0x2C2B JUMPI PUSH1 0x0 DUP1 REVERT JUMPDEST DUP2 CALLDATALOAD PUSH2 0x2ADF DUP2 PUSH2 0x2B62 JUMP JUMPDEST PUSH1 0x20 DUP1 DUP3 MSTORE DUP3 MLOAD DUP3 DUP3 ADD DUP2 SWAP1 MSTORE PUSH1 0x0 SWAP2 SWAP1 DUP5 DUP3 ADD SWAP1 PUSH1 0x40 DUP6 ADD SWAP1 DUP5 JUMPDEST DUP2 DUP2 LT ISZERO PUSH2 0x2C6E JUMPI DUP4 MLOAD DUP4 MSTORE SWAP3 DUP5 ADD SWAP3 SWAP2 DUP5 ADD SWAP2 PUSH1 0x1 ADD PUSH2 0x2C52 JUMP JUMPDEST POP SWAP1 SWAP7 SWAP6 POP POP POP POP POP POP JUMP JUMPDEST PUSH1 0x0 DUP1 PUSH1 0x0 DUP1 PUSH1 0x0 DUP1 PUSH1 0x0 PUSH1 0xC0 DUP9 DUP11 SUB SLT ISZERO PUSH2 0x2C95 JUMPI PUSH1 0x0 DUP1 REVERT JUMPDEST DUP8 CALLDATALOAD SWAP7 POP PUSH1 0x20 DUP9 ADD CALLDATALOAD SWAP6 POP PUSH1 0x40 DUP9 ADD CALLDATALOAD PUSH2 0x2CAE DUP2 PUSH2 0x2B62 JUMP JUMPDEST SWAP5 POP PUSH1 0x60 DUP9 ADD CALLDATALOAD PUSH2 0x2CBE DUP2 PUSH2 0x2B62 JUMP JUMPDEST SWAP4 POP PUSH1 0x80 DUP9 ADD CALLDATALOAD SWAP3 POP PUSH1 0xA0 DUP9 ADD CALLDATALOAD PUSH8 0xFFFFFFFFFFFFFFFF DUP1 DUP3 GT ISZERO PUSH2 0x2CE2 JUMPI PUSH1 0x0 DUP1 REVERT JUMPDEST DUP2 DUP11 ADD SWAP2 POP DUP11 PUSH1 0x1F DUP4 ADD SLT PUSH2 0x2CF6 JUMPI PUSH1 0x0 DUP1 REVERT JUMPDEST DUP2 CALLDATALOAD DUP2 DUP2 GT ISZERO PUSH2 0x2D05 JUMPI PUSH1 0x0 DUP1 REVERT JUMPDEST DUP12 PUSH1 0x20 DUP3 DUP6 ADD ADD GT ISZERO PUSH2 0x2D17 JUMPI PUSH1 0x0 DUP1 REVERT JUMPDEST PUSH1 0x20 DUP4 ADD SWAP5 POP DUP1 SWAP4 POP POP POP POP SWAP3 SWAP6 SWAP9 SWAP2 SWAP5 SWAP8 POP SWAP3 SWAP6 POP JUMP JUMPDEST PUSH1 0x0 DUP1 DUP4 PUSH1 0x1F DUP5 ADD SLT PUSH2 0x2D41 JUMPI PUSH1 0x0 DUP1 REVERT JUMPDEST POP DUP2 CALLDATALOAD PUSH8 0xFFFFFFFFFFFFFFFF DUP2 GT ISZERO PUSH2 0x2D59 JUMPI PUSH1 0x0 DUP1 REVERT JUMPDEST PUSH1 0x20 DUP4 ADD SWAP2 POP DUP4 PUSH1 0x20 DUP3 PUSH1 0x5 SHL DUP6 ADD ADD GT ISZERO PUSH2 0x2D74 JUMPI PUSH1 0x0 DUP1 REVERT JUMPDEST SWAP3 POP SWAP3 SWAP1 POP JUMP JUMPDEST PUSH1 0x0 DUP1 PUSH1 0x0 DUP1 PUSH1 0x0 DUP1 PUSH1 0x0 DUP1 PUSH1 0x0 PUSH1 0xA0 DUP11 DUP13 SUB SLT ISZERO PUSH2 0x2D99 JUMPI PUSH1 0x0 DUP1 REVERT JUMPDEST DUP10 CALLDATALOAD PUSH2 0x2DA4 DUP2 PUSH2 0x2B62 JUMP JUMPDEST SWAP9 POP PUSH1 0x20 DUP11 ADD CALLDATALOAD PUSH8 0xFFFFFFFFFFFFFFFF DUP1 DUP3 GT ISZERO PUSH2 0x2DC1 JUMPI PUSH1 0x0 DUP1 REVERT JUMPDEST PUSH2 0x2DCD DUP14 DUP4 DUP15 ADD PUSH2 0x2D2F JUMP JUMPDEST SWAP1 SWAP11 POP SWAP9 POP PUSH1 0x40 DUP13 ADD CALLDATALOAD SWAP2 POP DUP1 DUP3 GT ISZERO PUSH2 0x2DE6 JUMPI PUSH1 0x0 DUP1 REVERT JUMPDEST PUSH2 0x2DF2 DUP14 DUP4 DUP15 ADD PUSH2 0x2D2F JUMP JUMPDEST SWAP1 SWAP9 POP SWAP7 POP PUSH1 0x60 DUP13 ADD CALLDATALOAD SWAP2 POP DUP1 DUP3 GT ISZERO PUSH2 0x2E0B JUMPI PUSH1 0x0 DUP1 REVERT JUMPDEST PUSH2 0x2E17 DUP14 DUP4 DUP15 ADD PUSH2 0x2D2F JUMP JUMPDEST SWAP1 SWAP7 POP SWAP5 POP PUSH1 0x80 DUP13 ADD CALLDATALOAD SWAP2 POP DUP1 DUP3 GT ISZERO PUSH2 0x2E30 JUMPI PUSH1 0x0 DUP1 REVERT JUMPDEST POP PUSH2 0x2E3D DUP13 DUP3 DUP14 ADD PUSH2 0x2D2F JUMP JUMPDEST SWAP2 POP DUP1 SWAP4 POP POP DUP1 SWAP2 POP POP SWAP3 SWAP6 SWAP9 POP SWAP3 SWAP6 SWAP9 POP SWAP3 SWAP6 SWAP9 JUMP JUMPDEST DUP1 ISZERO ISZERO DUP2 EQ PUSH2 0x19D6 JUMPI PUSH1 0x0 DUP1 REVERT JUMPDEST PUSH1 0x0 DUP1 PUSH1 0x40 DUP4 DUP6 SUB SLT ISZERO PUSH2 0x2E75 JUMPI PUSH1 0x0 DUP1 REVERT JUMPDEST DUP3 CALLDATALOAD PUSH2 0x2E80 DUP2 PUSH2 0x2B62 JUMP JUMPDEST SWAP2 POP PUSH1 0x20 DUP4 ADD CALLDATALOAD PUSH2 0x2E90 DUP2 PUSH2 0x2E54 JUMP JUMPDEST DUP1 SWAP2 POP POP SWAP3 POP SWAP3 SWAP1 POP JUMP JUMPDEST PUSH4 0x4E487B71 PUSH1 0xE0 SHL PUSH1 0x0 MSTORE PUSH1 0x41 PUSH1 0x4 MSTORE PUSH1 0x24 PUSH1 0x0 REVERT JUMPDEST PUSH1 0x0 DUP1 PUSH1 0x0 DUP1 PUSH1 0x80 DUP6 DUP8 SUB SLT ISZERO PUSH2 0x2EC7 JUMPI PUSH1 0x0 DUP1 REVERT JUMPDEST DUP5 CALLDATALOAD PUSH2 0x2ED2 DUP2 PUSH2 0x2B62 JUMP JUMPDEST SWAP4 POP PUSH1 0x20 DUP6 ADD CALLDATALOAD PUSH2 0x2EE2 DUP2 PUSH2 0x2B62 JUMP JUMPDEST SWAP3 POP PUSH1 0x40 DUP6 ADD CALLDATALOAD SWAP2 POP PUSH1 0x60 DUP6 ADD CALLDATALOAD PUSH8 0xFFFFFFFFFFFFFFFF DUP1 DUP3 GT ISZERO PUSH2 0x2F06 JUMPI PUSH1 0x0 DUP1 REVERT JUMPDEST DUP2 DUP8 ADD SWAP2 POP DUP8 PUSH1 0x1F DUP4 ADD SLT PUSH2 0x2F1A JUMPI PUSH1 0x0 DUP1 REVERT JUMPDEST DUP2 CALLDATALOAD DUP2 DUP2 GT ISZERO PUSH2 0x2F2C JUMPI PUSH2 0x2F2C PUSH2 0x2E9B JUMP JUMPDEST PUSH1 0x40 MLOAD PUSH1 0x1F DUP3 ADD PUSH1 0x1F NOT SWAP1 DUP2 AND PUSH1 0x3F ADD AND DUP2 ADD SWAP1 DUP4 DUP3 GT DUP2 DUP4 LT OR ISZERO PUSH2 0x2F54 JUMPI PUSH2 0x2F54 PUSH2 0x2E9B JUMP JUMPDEST DUP2 PUSH1 0x40 MSTORE DUP3 DUP2 MSTORE DUP11 PUSH1 0x20 DUP5 DUP8 ADD ADD GT ISZERO PUSH2 0x2F6D JUMPI PUSH1 0x0 DUP1 REVERT JUMPDEST DUP3 PUSH1 0x20 DUP7 ADD PUSH1 0x20 DUP4 ADD CALLDATACOPY PUSH1 0x0 PUSH1 0x20 DUP5 DUP4 ADD ADD MSTORE DUP1 SWAP6 POP POP POP POP POP POP SWAP3 SWAP6 SWAP2 SWAP5 POP SWAP3 POP JUMP JUMPDEST PUSH1 0x0 DUP1 PUSH1 0x40 DUP4 DUP6 SUB SLT ISZERO PUSH2 0x2FA4 JUMPI PUSH1 0x0 DUP1 REVERT JUMPDEST DUP3 CALLDATALOAD PUSH2 0x2FAF DUP2 PUSH2 0x2B62 JUMP JUMPDEST SWAP2 POP PUSH1 0x20 DUP4 ADD CALLDATALOAD PUSH2 0x2E90 DUP2 PUSH2 0x2B62 JUMP JUMPDEST PUSH1 0x1 DUP2 DUP2 SHR SWAP1 DUP3 AND DUP1 PUSH2 0x2FD3 JUMPI PUSH1 0x7F DUP3 AND SWAP2 POP JUMPDEST PUSH1 0x20 DUP3 LT DUP2 SUB PUSH2 0x1E38 JUMPI PUSH4 0x4E487B71 PUSH1 0xE0 SHL PUSH1 0x0 MSTORE PUSH1 0x22 PUSH1 0x4 MSTORE PUSH1 0x24 PUSH1 0x0 REVERT JUMPDEST PUSH1 0x20 DUP1 DUP3 MSTORE PUSH1 0x2D SWAP1 DUP3 ADD MSTORE PUSH32 0x4552433732313A2063616C6C6572206973206E6F7420746F6B656E206F776E65 PUSH1 0x40 DUP3 ADD MSTORE PUSH13 0x1C881BDC88185C1C1C9BDD9959 PUSH1 0x9A SHL PUSH1 0x60 DUP3 ADD MSTORE PUSH1 0x80 ADD SWAP1 JUMP JUMPDEST PUSH4 0x4E487B71 PUSH1 0xE0 SHL PUSH1 0x0 MSTORE PUSH1 0x32 PUSH1 0x4 MSTORE PUSH1 0x24 PUSH1 0x0 REVERT JUMPDEST PUSH4 0x4E487B71 PUSH1 0xE0 SHL PUSH1 0x0 MSTORE PUSH1 0x11 PUSH1 0x4 MSTORE PUSH1 0x24 PUSH1 0x0 REVERT JUMPDEST PUSH1 0x0 PUSH1 0x1 DUP3 ADD PUSH2 0x307E JUMPI PUSH2 0x307E PUSH2 0x3056 JUMP JUMPDEST POP PUSH1 0x1 ADD SWAP1 JUMP JUMPDEST PUSH1 0x0 PUSH1 0x20 DUP3 DUP5 SUB SLT ISZERO PUSH2 0x3097 JUMPI PUSH1 0x0 DUP1 REVERT JUMPDEST DUP2 MLOAD PUSH2 0x2ADF DUP2 PUSH2 0x2B62 JUMP JUMPDEST PUSH1 0x0 PUSH1 0x20 DUP3 DUP5 SUB SLT ISZERO PUSH2 0x30B4 JUMPI PUSH1 0x0 DUP1 REVERT JUMPDEST POP MLOAD SWAP2 SWAP1 POP JUMP JUMPDEST PUSH1 0x0 PUSH1 0x20 DUP3 DUP5 SUB SLT ISZERO PUSH2 0x30CD JUMPI PUSH1 0x0 DUP1 REVERT JUMPDEST DUP2 CALLDATALOAD PUSH2 0xFFFF DUP2 AND DUP2 EQ PUSH2 0x2ADF JUMPI PUSH1 0x0 DUP1 REVERT JUMPDEST PUSH1 0x0 PUSH1 0x20 DUP3 DUP5 SUB SLT ISZERO PUSH2 0x30F1 JUMPI PUSH1 0x0 DUP1 REVERT JUMPDEST DUP2 MLOAD PUSH2 0x2ADF DUP2 PUSH2 0x2E54 JUMP JUMPDEST PUSH1 0x20 DUP1 DUP3 MSTORE PUSH1 0x2B SWAP1 DUP3 ADD MSTORE PUSH32 0x496E697469616C697A61626C653A20636F6E7472616374206973206E6F742069 PUSH1 0x40 DUP3 ADD MSTORE PUSH11 0x6E697469616C697A696E67 PUSH1 0xA8 SHL PUSH1 0x60 DUP3 ADD MSTORE PUSH1 0x80 ADD SWAP1 JUMP JUMPDEST PUSH1 0x0 DUP1 DUP5 SLOAD PUSH2 0x3155 DUP2 PUSH2 0x2FBF JUMP JUMPDEST PUSH1 0x1 DUP3 DUP2 AND DUP1 ISZERO PUSH2 0x316D JUMPI PUSH1 0x1 DUP2 EQ PUSH2 0x3182 JUMPI PUSH2 0x31B1 JUMP JUMPDEST PUSH1 0xFF NOT DUP5 AND DUP8 MSTORE DUP3 ISZERO ISZERO DUP4 MUL DUP8 ADD SWAP5 POP PUSH2 0x31B1 JUMP JUMPDEST DUP9 PUSH1 0x0 MSTORE PUSH1 0x20 DUP1 PUSH1 0x0 KECCAK256 PUSH1 0x0 JUMPDEST DUP6 DUP2 LT ISZERO PUSH2 0x31A8 JUMPI DUP2 SLOAD DUP11 DUP3 ADD MSTORE SWAP1 DUP5 ADD SWAP1 DUP3 ADD PUSH2 0x318F JUMP JUMPDEST POP POP POP DUP3 DUP8 ADD SWAP5 POP JUMPDEST POP POP POP SWAP4 DUP2 MSTORE PUSH5 0x173539B7B7 PUSH1 0xD9 SHL PUSH1 0x20 DUP3 ADD MSTORE PUSH1 0x25 ADD SWAP5 SWAP4 POP POP POP POP JUMP JUMPDEST PUSH1 0x1 DUP1 PUSH1 0xA0 SHL SUB DUP7 AND DUP2 MSTORE DUP5 PUSH1 0x20 DUP3 ADD MSTORE PUSH1 0xA0 PUSH1 0x40 DUP3 ADD MSTORE PUSH1 0x0 PUSH2 0x31F7 PUSH1 0xA0 DUP4 ADD DUP7 PUSH2 0x2B0A JUMP JUMPDEST PUSH2 0xFFFF SWAP5 SWAP1 SWAP5 AND PUSH1 0x60 DUP4 ADD MSTORE POP SWAP1 ISZERO ISZERO PUSH1 0x80 SWAP1 SWAP2 ADD MSTORE SWAP4 SWAP3 POP POP POP JUMP JUMPDEST DUP1 DUP3 MUL DUP2 ISZERO DUP3 DUP3 DIV DUP5 EQ OR PUSH2 0x58B JUMPI PUSH2 0x58B PUSH2 0x3056 JUMP JUMPDEST DUP1 DUP3 ADD DUP1 DUP3 GT ISZERO PUSH2 0x58B JUMPI PUSH2 0x58B PUSH2 0x3056 JUMP JUMPDEST PUSH1 0x20 DUP1 DUP3 MSTORE PUSH1 0x25 SWAP1 DUP3 ADD MSTORE PUSH32 0x4552433732313A207472616E736665722066726F6D20696E636F727265637420 PUSH1 0x40 DUP3 ADD MSTORE PUSH5 0x37BBB732B9 PUSH1 0xD9 SHL PUSH1 0x60 DUP3 ADD MSTORE PUSH1 0x80 ADD SWAP1 JUMP JUMPDEST PUSH1 0x20 DUP1 DUP3 MSTORE PUSH1 0x32 SWAP1 DUP3 ADD MSTORE PUSH32 0x4552433732313A207472616E7366657220746F206E6F6E204552433732315265 PUSH1 0x40 DUP3 ADD MSTORE PUSH18 0x31B2B4BB32B91034B6B83632B6B2B73A32B9 PUSH1 0x71 SHL PUSH1 0x60 DUP3 ADD MSTORE PUSH1 0x80 ADD SWAP1 JUMP JUMPDEST PUSH1 0x1 PUSH1 0x1 PUSH1 0xA0 SHL SUB DUP6 DUP2 AND DUP3 MSTORE DUP5 AND PUSH1 0x20 DUP3 ADD MSTORE PUSH1 0x40 DUP2 ADD DUP4 SWAP1 MSTORE PUSH1 0x80 PUSH1 0x60 DUP3 ADD DUP2 SWAP1 MSTORE PUSH1 0x0 SWAP1 PUSH2 0x899 SWAP1 DUP4 ADD DUP5 PUSH2 0x2B0A JUMP JUMPDEST PUSH1 0x0 PUSH1 0x20 DUP3 DUP5 SUB SLT ISZERO PUSH2 0x331A JUMPI PUSH1 0x0 DUP1 REVERT JUMPDEST DUP2 MLOAD PUSH2 0x2ADF DUP2 PUSH2 0x2AAC JUMP JUMPDEST PUSH1 0x1F DUP3 GT ISZERO PUSH2 0x75F JUMPI PUSH1 0x0 DUP2 DUP2 MSTORE PUSH1 0x20 DUP2 KECCAK256 PUSH1 0x1F DUP6 ADD PUSH1 0x5 SHR DUP2 ADD PUSH1 0x20 DUP7 LT ISZERO PUSH2 0x334C JUMPI POP DUP1 JUMPDEST PUSH1 0x1F DUP6 ADD PUSH1 0x5 SHR DUP3 ADD SWAP2 POP JUMPDEST DUP2 DUP2 LT ISZERO PUSH2 0x336B JUMPI DUP3 DUP2 SSTORE PUSH1 0x1 ADD PUSH2 0x3358 JUMP JUMPDEST POP POP POP POP POP POP JUMP JUMPDEST DUP2 MLOAD PUSH8 0xFFFFFFFFFFFFFFFF DUP2 GT ISZERO PUSH2 0x338D JUMPI PUSH2 0x338D PUSH2 0x2E9B JUMP JUMPDEST PUSH2 0x33A1 DUP2 PUSH2 0x339B DUP5 SLOAD PUSH2 0x2FBF JUMP JUMPDEST DUP5 PUSH2 0x3325 JUMP JUMPDEST PUSH1 0x20 DUP1 PUSH1 0x1F DUP4 GT PUSH1 0x1 DUP2 EQ PUSH2 0x33D6 JUMPI PUSH1 0x0 DUP5 ISZERO PUSH2 0x33BE JUMPI POP DUP6 DUP4 ADD MLOAD JUMPDEST PUSH1 0x0 NOT PUSH1 0x3 DUP7 SWAP1 SHL SHR NOT AND PUSH1 0x1 DUP6 SWAP1 SHL OR DUP6 SSTORE PUSH2 0x336B JUMP JUMPDEST PUSH1 0x0 DUP6 DUP2 MSTORE PUSH1 0x20 DUP2 KECCAK256 PUSH1 0x1F NOT DUP7 AND SWAP2 JUMPDEST DUP3 DUP2 LT ISZERO PUSH2 0x3405 JUMPI DUP9 DUP7 ADD MLOAD DUP3 SSTORE SWAP5 DUP5 ADD SWAP5 PUSH1 0x1 SWAP1 SWAP2 ADD SWAP1 DUP5 ADD PUSH2 0x33E6 JUMP JUMPDEST POP DUP6 DUP3 LT ISZERO PUSH2 0x3423 JUMPI DUP8 DUP6 ADD MLOAD PUSH1 0x0 NOT PUSH1 0x3 DUP9 SWAP1 SHL PUSH1 0xF8 AND SHR NOT AND DUP2 SSTORE JUMPDEST POP POP POP POP POP PUSH1 0x1 SWAP1 DUP2 SHL ADD SWAP1 SSTORE POP JUMP JUMPDEST DUP2 DUP2 SUB DUP2 DUP2 GT ISZERO PUSH2 0x58B JUMPI PUSH2 0x58B PUSH2 0x3056 JUMP JUMPDEST PUSH4 0x4E487B71 PUSH1 0xE0 SHL PUSH1 0x0 MSTORE PUSH1 0x31 PUSH1 0x4 MSTORE PUSH1 0x24 PUSH1 0x0 REVERT JUMPDEST PUSH1 0x0 DUP3 MLOAD PUSH2 0x346E DUP2 DUP5 PUSH1 0x20 DUP8 ADD PUSH2 0x2AE6 JUMP JUMPDEST SWAP2 SWAP1 SWAP2 ADD SWAP3 SWAP2 POP POP JUMP INVALID LOG2 PUSH5 0x6970667358 0x22 SLT KECCAK256 DUP9 GASLIMIT 0xCE EXTCODECOPY TIMESTAMP SWAP7 KECCAK256 0x4E LOG1 PUSH28 0xE5974E695418E8ECC0E78CE9A86820D97E2CCBDD863964736F6C6343 STOP ADDMOD GT STOP CALLER PUSH9 0x747470733A2F2F6E66 PUSH21 0x732E73332E64652E696F2E636C6F75642E6F76682E PUSH15 0x65742F000000000000000000000000 "},"gasEstimates":{"creation":{"codeDepositCost":"2697200","executionCost":"infinite","totalCost":"infinite"},"external":{"BASE_URI()":"infinite","BRIDGE()":"2447","BRIDGE_PRICE()":"2364","BUY_PRICE()":"2406","BUY_TOKEN()":"2405","CHAINS(uint256)":"6859","FEE_TOKEN()":"2405","REFERRAL()":"2426","__MessageV3Client_init()":"infinite","approve(address,uint256)":"infinite","balanceOf(address)":"2716","bridge(address,uint256,uint256)":"infinite","configureBridge(address,uint256[],uint256[],address[],uint16[])":"infinite","getApproved(uint256)":"4837","init()":"infinite","isApprovedForAll(address,address)":"infinite","messageProcess(uint256,uint256,address,address,uint256,bytes)":"infinite","mint()":"infinite","name()":"infinite","owner()":"2443","ownerOf(uint256)":"2627","renounceOwnership()":"infinite","safeTransferFrom(address,address,uint256)":"infinite","safeTransferFrom(address,address,uint256,bytes)":"infinite","setApprovalForAll(address,bool)":"infinite","setExsig(address)":"infinite","setMaxfee(uint256)":"infinite","setMaxgas(uint256)":"infinite","supportsInterface(bytes4)":"infinite","symbol()":"infinite","tokenByIndex(uint256)":"6760","tokenOfOwnerByIndex(address,uint256)":"4970","tokenURI(uint256)":"infinite","totalSupply()":"2404","transferFrom(address,address,uint256)":"infinite","transferOwnership(address)":"infinite","walletOfOwner(address)":"infinite"},"internal":{"_mint(address)":"infinite"}},"methodIdentifiers":{"BASE_URI()":"dbddb26a","BRIDGE()":"ee9a31a2","BRIDGE_PRICE()":"043c447c","BUY_PRICE()":"705fe4be","BUY_TOKEN()":"4174a596","CHAINS(uint256)":"92ae12fd","FEE_TOKEN()":"73717b08","REFERRAL()":"c63568c7","__MessageV3Client_init()":"c42a22d6","approve(address,uint256)":"095ea7b3","balanceOf(address)":"70a08231","bridge(address,uint256,uint256)":"0bf5d35e","configureBridge(address,uint256[],uint256[],address[],uint16[])":"7befab32","getApproved(uint256)":"081812fc","init()":"e1c7392a","isApprovedForAll(address,address)":"e985e9c5","messageProcess(uint256,uint256,address,address,uint256,bytes)":"5f46e740","mint()":"1249c58b","name()":"06fdde03","owner()":"8da5cb5b","ownerOf(uint256)":"6352211e","renounceOwnership()":"715018a6","safeTransferFrom(address,address,uint256)":"42842e0e","safeTransferFrom(address,address,uint256,bytes)":"b88d4fde","setApprovalForAll(address,bool)":"a22cb465","setExsig(address)":"c60853f6","setMaxfee(uint256)":"b479a961","setMaxgas(uint256)":"e47ad74d","supportsInterface(bytes4)":"01ffc9a7","symbol()":"95d89b41","tokenByIndex(uint256)":"4f6ccce7","tokenOfOwnerByIndex(address,uint256)":"2f745c59","tokenURI(uint256)":"c87b56dd","totalSupply()":"18160ddd","transferFrom(address,address,uint256)":"23b872dd","transferOwnership(address)":"f2fde38b","walletOfOwner(address)":"438b6300"}},"storageLayout":{"storage":[{"astId":138,"contract":"contracts/SimpleNFT.sol:SimpleNFT","label":"_initialized","offset":0,"slot":"0","type":"t_uint8"},{"astId":141,"contract":"contracts/SimpleNFT.sol:SimpleNFT","label":"_initializing","offset":1,"slot":"0","type":"t_bool"},{"astId":2189,"contract":"contracts/SimpleNFT.sol:SimpleNFT","label":"__gap","offset":0,"slot":"1","type":"t_array(t_uint256)50_storage"},{"astId":2462,"contract":"contracts/SimpleNFT.sol:SimpleNFT","label":"__gap","offset":0,"slot":"51","type":"t_array(t_uint256)50_storage"},{"astId":329,"contract":"contracts/SimpleNFT.sol:SimpleNFT","label":"_name","offset":0,"slot":"101","type":"t_string_storage"},{"astId":331,"contract":"contracts/SimpleNFT.sol:SimpleNFT","label":"_symbol","offset":0,"slot":"102","type":"t_string_storage"},{"astId":335,"contract":"contracts/SimpleNFT.sol:SimpleNFT","label":"_owners","offset":0,"slot":"103","type":"t_mapping(t_uint256,t_address)"},{"astId":339,"contract":"contracts/SimpleNFT.sol:SimpleNFT","label":"_balances","offset":0,"slot":"104","type":"t_mapping(t_address,t_uint256)"},{"astId":343,"contract":"contracts/SimpleNFT.sol:SimpleNFT","label":"_tokenApprovals","offset":0,"slot":"105","type":"t_mapping(t_uint256,t_address)"},{"astId":349,"contract":"contracts/SimpleNFT.sol:SimpleNFT","label":"_operatorApprovals","offset":0,"slot":"106","type":"t_mapping(t_address,t_mapping(t_address,t_bool))"},{"astId":1251,"contract":"contracts/SimpleNFT.sol:SimpleNFT","label":"__gap","offset":0,"slot":"107","type":"t_array(t_uint256)44_storage"},{"astId":1416,"contract":"contracts/SimpleNFT.sol:SimpleNFT","label":"_ownedTokens","offset":0,"slot":"151","type":"t_mapping(t_address,t_mapping(t_uint256,t_uint256))"},{"astId":1420,"contract":"contracts/SimpleNFT.sol:SimpleNFT","label":"_ownedTokensIndex","offset":0,"slot":"152","type":"t_mapping(t_uint256,t_uint256)"},{"astId":1423,"contract":"contracts/SimpleNFT.sol:SimpleNFT","label":"_allTokens","offset":0,"slot":"153","type":"t_array(t_uint256)dyn_storage"},{"astId":1427,"contract":"contracts/SimpleNFT.sol:SimpleNFT","label":"_allTokensIndex","offset":0,"slot":"154","type":"t_mapping(t_uint256,t_uint256)"},{"astId":1759,"contract":"contracts/SimpleNFT.sol:SimpleNFT","label":"__gap","offset":0,"slot":"155","type":"t_array(t_uint256)46_storage"},{"astId":10,"contract":"contracts/SimpleNFT.sol:SimpleNFT","label":"_owner","offset":0,"slot":"201","type":"t_address"},{"astId":130,"contract":"contracts/SimpleNFT.sol:SimpleNFT","label":"__gap","offset":0,"slot":"202","type":"t_array(t_uint256)49_storage"},{"astId":4476,"contract":"contracts/SimpleNFT.sol:SimpleNFT","label":"BRIDGE","offset":0,"slot":"251","type":"t_contract(IMessageV3)4465"},{"astId":4479,"contract":"contracts/SimpleNFT.sol:SimpleNFT","label":"FEE_TOKEN","offset":0,"slot":"252","type":"t_contract(IERC20)3524"},{"astId":4493,"contract":"contracts/SimpleNFT.sol:SimpleNFT","label":"CHAINS","offset":0,"slot":"253","type":"t_mapping(t_uint256,t_struct(ChainData)4488_storage)"},{"astId":5314,"contract":"contracts/SimpleNFT.sol:SimpleNFT","label":"COUNTER","offset":0,"slot":"254","type":"t_struct(Counter)4272_storage"},{"astId":5317,"contract":"contracts/SimpleNFT.sol:SimpleNFT","label":"BASE_URI","offset":0,"slot":"255","type":"t_string_storage"},{"astId":5320,"contract":"contracts/SimpleNFT.sol:SimpleNFT","label":"BUY_PRICE","offset":0,"slot":"256","type":"t_uint256"},{"astId":5329,"contract":"contracts/SimpleNFT.sol:SimpleNFT","label":"BUY_TOKEN","offset":0,"slot":"257","type":"t_contract(IERC20)3524"},{"astId":5332,"contract":"contracts/SimpleNFT.sol:SimpleNFT","label":"BRIDGE_PRICE","offset":0,"slot":"258","type":"t_uint256"},{"astId":5335,"contract":"contracts/SimpleNFT.sol:SimpleNFT","label":"REFERRAL","offset":0,"slot":"259","type":"t_address"}],"types":{"t_address":{"encoding":"inplace","label":"address","numberOfBytes":"20"},"t_array(t_uint256)44_storage":{"base":"t_uint256","encoding":"inplace","label":"uint256[44]","numberOfBytes":"1408"},"t_array(t_uint256)46_storage":{"base":"t_uint256","encoding":"inplace","label":"uint256[46]","numberOfBytes":"1472"},"t_array(t_uint256)49_storage":{"base":"t_uint256","encoding":"inplace","label":"uint256[49]","numberOfBytes":"1568"},"t_array(t_uint256)50_storage":{"base":"t_uint256","encoding":"inplace","label":"uint256[50]","numberOfBytes":"1600"},"t_array(t_uint256)dyn_storage":{"base":"t_uint256","encoding":"dynamic_array","label":"uint256[]","numberOfBytes":"32"},"t_bool":{"encoding":"inplace","label":"bool","numberOfBytes":"1"},"t_contract(IERC20)3524":{"encoding":"inplace","label":"contract IERC20","numberOfBytes":"20"},"t_contract(IMessageV3)4465":{"encoding":"inplace","label":"contract IMessageV3","numberOfBytes":"20"},"t_mapping(t_address,t_bool)":{"encoding":"mapping","key":"t_address","label":"mapping(address => bool)","numberOfBytes":"32","value":"t_bool"},"t_mapping(t_address,t_mapping(t_address,t_bool))":{"encoding":"mapping","key":"t_address","label":"mapping(address => mapping(address => bool))","numberOfBytes":"32","value":"t_mapping(t_address,t_bool)"},"t_mapping(t_address,t_mapping(t_uint256,t_uint256))":{"encoding":"mapping","key":"t_address","label":"mapping(address => mapping(uint256 => uint256))","numberOfBytes":"32","value":"t_mapping(t_uint256,t_uint256)"},"t_mapping(t_address,t_uint256)":{"encoding":"mapping","key":"t_address","label":"mapping(address => uint256)","numberOfBytes":"32","value":"t_uint256"},"t_mapping(t_uint256,t_address)":{"encoding":"mapping","key":"t_uint256","label":"mapping(uint256 => address)","numberOfBytes":"32","value":"t_address"},"t_mapping(t_uint256,t_struct(ChainData)4488_storage)":{"encoding":"mapping","key":"t_uint256","label":"mapping(uint256 => struct MessageV3ClientUpgradeable.ChainData)","numberOfBytes":"32","value":"t_struct(ChainData)4488_storage"},"t_mapping(t_uint256,t_uint256)":{"encoding":"mapping","key":"t_uint256","label":"mapping(uint256 => uint256)","numberOfBytes":"32","value":"t_uint256"},"t_string_storage":{"encoding":"bytes","label":"string","numberOfBytes":"32"},"t_struct(ChainData)4488_storage":{"encoding":"inplace","label":"struct MessageV3ClientUpgradeable.ChainData","members":[{"astId":4481,"contract":"contracts/SimpleNFT.sol:SimpleNFT","label":"fee","offset":0,"slot":"0","type":"t_uint256"},{"astId":4483,"contract":"contracts/SimpleNFT.sol:SimpleNFT","label":"price","offset":0,"slot":"1","type":"t_uint256"},{"astId":4485,"contract":"contracts/SimpleNFT.sol:SimpleNFT","label":"endpoint","offset":0,"slot":"2","type":"t_address"},{"astId":4487,"contract":"contracts/SimpleNFT.sol:SimpleNFT","label":"confirmations","offset":20,"slot":"2","type":"t_uint16"}],"numberOfBytes":"96"},"t_struct(Counter)4272_storage":{"encoding":"inplace","label":"struct Counters.Counter","members":[{"astId":4271,"contract":"contracts/SimpleNFT.sol:SimpleNFT","label":"_value","offset":0,"slot":"0","type":"t_uint256"}],"numberOfBytes":"32"},"t_uint16":{"encoding":"inplace","label":"uint16","numberOfBytes":"2"},"t_uint256":{"encoding":"inplace","label":"uint256","numberOfBytes":"32"},"t_uint8":{"encoding":"inplace","label":"uint8","numberOfBytes":"1"}}},"userdoc":{"kind":"user","methods":{"configureBridge(address,uint256[],uint256[],address[],uint16[])":{"notice":"OWNER "},"messageProcess(uint256,uint256,address,address,uint256,bytes)":{"notice":"BRIDGE RECEIVER "},"mint()":{"notice":"USER "},"walletOfOwner(address)":{"notice":"VIEWS "}},"version":1}}}}