{
  "address": "0x02996C46c6c0a8C5450d0C497597074e86480126",
  "abi": [
    {
      "inputs": [
        {
          "internalType": "address",
          "name": "_buyToken",
          "type": "address"
        }
      ],
      "stateMutability": "nonpayable",
      "type": "constructor"
    },
    {
      "anonymous": false,
      "inputs": [
        {
          "indexed": true,
          "internalType": "address",
          "name": "owner",
          "type": "address"
        },
        {
          "indexed": true,
          "internalType": "address",
          "name": "approved",
          "type": "address"
        },
        {
          "indexed": true,
          "internalType": "uint256",
          "name": "tokenId",
          "type": "uint256"
        }
      ],
      "name": "Approval",
      "type": "event"
    },
    {
      "anonymous": false,
      "inputs": [
        {
          "indexed": true,
          "internalType": "address",
          "name": "owner",
          "type": "address"
        },
        {
          "indexed": true,
          "internalType": "address",
          "name": "operator",
          "type": "address"
        },
        {
          "indexed": false,
          "internalType": "bool",
          "name": "approved",
          "type": "bool"
        }
      ],
      "name": "ApprovalForAll",
      "type": "event"
    },
    {
      "anonymous": false,
      "inputs": [
        {
          "indexed": false,
          "internalType": "uint8",
          "name": "version",
          "type": "uint8"
        }
      ],
      "name": "Initialized",
      "type": "event"
    },
    {
      "anonymous": false,
      "inputs": [
        {
          "indexed": false,
          "internalType": "address",
          "name": "to",
          "type": "address"
        },
        {
          "indexed": false,
          "internalType": "uint256",
          "name": "id",
          "type": "uint256"
        }
      ],
      "name": "Mint",
      "type": "event"
    },
    {
      "anonymous": false,
      "inputs": [
        {
          "indexed": true,
          "internalType": "address",
          "name": "previousOwner",
          "type": "address"
        },
        {
          "indexed": true,
          "internalType": "address",
          "name": "newOwner",
          "type": "address"
        }
      ],
      "name": "OwnershipTransferred",
      "type": "event"
    },
    {
      "anonymous": false,
      "inputs": [
        {
          "indexed": false,
          "internalType": "uint256",
          "name": "id",
          "type": "uint256"
        }
      ],
      "name": "Received",
      "type": "event"
    },
    {
      "anonymous": false,
      "inputs": [
        {
          "indexed": true,
          "internalType": "address",
          "name": "from",
          "type": "address"
        },
        {
          "indexed": true,
          "internalType": "address",
          "name": "to",
          "type": "address"
        },
        {
          "indexed": true,
          "internalType": "uint256",
          "name": "tokenId",
          "type": "uint256"
        }
      ],
      "name": "Transfer",
      "type": "event"
    },
    {
      "inputs": [],
      "name": "BASE_URI",
      "outputs": [
        {
          "internalType": "string",
          "name": "",
          "type": "string"
        }
      ],
      "stateMutability": "view",
      "type": "function"
    },
    {
      "inputs": [],
      "name": "BRIDGE",
      "outputs": [
        {
          "internalType": "contract IMessageV3",
          "name": "",
          "type": "address"
        }
      ],
      "stateMutability": "view",
      "type": "function"
    },
    {
      "inputs": [
        {
          "internalType": "uint256",
          "name": "",
          "type": "uint256"
        }
      ],
      "name": "BRIDGE_PRICE",
      "outputs": [
        {
          "internalType": "uint256",
          "name": "",
          "type": "uint256"
        }
      ],
      "stateMutability": "view",
      "type": "function"
    },
    {
      "inputs": [],
      "name": "BUY_PRICE",
      "outputs": [
        {
          "internalType": "uint256",
          "name": "",
          "type": "uint256"
        }
      ],
      "stateMutability": "view",
      "type": "function"
    },
    {
      "inputs": [],
      "name": "BUY_TOKEN",
      "outputs": [
        {
          "internalType": "contract IERC20",
          "name": "",
          "type": "address"
        }
      ],
      "stateMutability": "view",
      "type": "function"
    },
    {
      "inputs": [
        {
          "internalType": "uint256",
          "name": "",
          "type": "uint256"
        }
      ],
      "name": "CHAINS",
      "outputs": [
        {
          "internalType": "uint256",
          "name": "fee",
          "type": "uint256"
        },
        {
          "internalType": "uint256",
          "name": "price",
          "type": "uint256"
        },
        {
          "internalType": "address",
          "name": "endpoint",
          "type": "address"
        },
        {
          "internalType": "uint16",
          "name": "confirmations",
          "type": "uint16"
        }
      ],
      "stateMutability": "view",
      "type": "function"
    },
    {
      "inputs": [],
      "name": "FEE_TOKEN",
      "outputs": [
        {
          "internalType": "contract IERC20",
          "name": "",
          "type": "address"
        }
      ],
      "stateMutability": "view",
      "type": "function"
    },
    {
      "inputs": [],
      "name": "REFERRAL",
      "outputs": [
        {
          "internalType": "address",
          "name": "",
          "type": "address"
        }
      ],
      "stateMutability": "view",
      "type": "function"
    },
    {
      "inputs": [
        {
          "internalType": "address",
          "name": "to",
          "type": "address"
        },
        {
          "internalType": "uint256",
          "name": "tokenId",
          "type": "uint256"
        }
      ],
      "name": "approve",
      "outputs": [],
      "stateMutability": "nonpayable",
      "type": "function"
    },
    {
      "inputs": [
        {
          "internalType": "address",
          "name": "owner",
          "type": "address"
        }
      ],
      "name": "balanceOf",
      "outputs": [
        {
          "internalType": "uint256",
          "name": "",
          "type": "uint256"
        }
      ],
      "stateMutability": "view",
      "type": "function"
    },
    {
      "inputs": [
        {
          "internalType": "address",
          "name": "_to",
          "type": "address"
        },
        {
          "internalType": "uint256",
          "name": "_chainId",
          "type": "uint256"
        },
        {
          "internalType": "uint256",
          "name": "_nftId",
          "type": "uint256"
        }
      ],
      "name": "bridge",
      "outputs": [
        {
          "internalType": "uint256",
          "name": "_txId",
          "type": "uint256"
        }
      ],
      "stateMutability": "nonpayable",
      "type": "function"
    },
    {
      "inputs": [
        {
          "internalType": "address",
          "name": "_bridge",
          "type": "address"
        },
        {
          "internalType": "uint256[]",
          "name": "_chains",
          "type": "uint256[]"
        },
        {
          "internalType": "uint256[]",
          "name": "_prices",
          "type": "uint256[]"
        },
        {
          "internalType": "address[]",
          "name": "_endpoints",
          "type": "address[]"
        },
        {
          "internalType": "uint16[]",
          "name": "_confirmations",
          "type": "uint16[]"
        }
      ],
      "name": "configureBridge",
      "outputs": [],
      "stateMutability": "nonpayable",
      "type": "function"
    },
    {
      "inputs": [
        {
          "internalType": "uint256",
          "name": "tokenId",
          "type": "uint256"
        }
      ],
      "name": "getApproved",
      "outputs": [
        {
          "internalType": "address",
          "name": "",
          "type": "address"
        }
      ],
      "stateMutability": "view",
      "type": "function"
    },
    {
      "inputs": [],
      "name": "init",
      "outputs": [],
      "stateMutability": "nonpayable",
      "type": "function"
    },
    {
      "inputs": [
        {
          "internalType": "address",
          "name": "owner",
          "type": "address"
        },
        {
          "internalType": "address",
          "name": "operator",
          "type": "address"
        }
      ],
      "name": "isApprovedForAll",
      "outputs": [
        {
          "internalType": "bool",
          "name": "",
          "type": "bool"
        }
      ],
      "stateMutability": "view",
      "type": "function"
    },
    {
      "inputs": [
        {
          "internalType": "uint256",
          "name": "",
          "type": "uint256"
        },
        {
          "internalType": "uint256",
          "name": "_sourceChainId",
          "type": "uint256"
        },
        {
          "internalType": "address",
          "name": "_sender",
          "type": "address"
        },
        {
          "internalType": "address",
          "name": "",
          "type": "address"
        },
        {
          "internalType": "uint256",
          "name": "",
          "type": "uint256"
        },
        {
          "internalType": "bytes",
          "name": "_data",
          "type": "bytes"
        }
      ],
      "name": "messageProcess",
      "outputs": [],
      "stateMutability": "nonpayable",
      "type": "function"
    },
    {
      "inputs": [],
      "name": "mint",
      "outputs": [
        {
          "internalType": "uint256",
          "name": "_nftId",
          "type": "uint256"
        }
      ],
      "stateMutability": "nonpayable",
      "type": "function"
    },
    {
      "inputs": [],
      "name": "name",
      "outputs": [
        {
          "internalType": "string",
          "name": "",
          "type": "string"
        }
      ],
      "stateMutability": "view",
      "type": "function"
    },
    {
      "inputs": [],
      "name": "owner",
      "outputs": [
        {
          "internalType": "address",
          "name": "",
          "type": "address"
        }
      ],
      "stateMutability": "view",
      "type": "function"
    },
    {
      "inputs": [
        {
          "internalType": "uint256",
          "name": "tokenId",
          "type": "uint256"
        }
      ],
      "name": "ownerOf",
      "outputs": [
        {
          "internalType": "address",
          "name": "",
          "type": "address"
        }
      ],
      "stateMutability": "view",
      "type": "function"
    },
    {
      "inputs": [],
      "name": "renounceOwnership",
      "outputs": [],
      "stateMutability": "nonpayable",
      "type": "function"
    },
    {
      "inputs": [
        {
          "internalType": "address",
          "name": "from",
          "type": "address"
        },
        {
          "internalType": "address",
          "name": "to",
          "type": "address"
        },
        {
          "internalType": "uint256",
          "name": "tokenId",
          "type": "uint256"
        }
      ],
      "name": "safeTransferFrom",
      "outputs": [],
      "stateMutability": "nonpayable",
      "type": "function"
    },
    {
      "inputs": [
        {
          "internalType": "address",
          "name": "from",
          "type": "address"
        },
        {
          "internalType": "address",
          "name": "to",
          "type": "address"
        },
        {
          "internalType": "uint256",
          "name": "tokenId",
          "type": "uint256"
        },
        {
          "internalType": "bytes",
          "name": "data",
          "type": "bytes"
        }
      ],
      "name": "safeTransferFrom",
      "outputs": [],
      "stateMutability": "nonpayable",
      "type": "function"
    },
    {
      "inputs": [
        {
          "internalType": "address",
          "name": "operator",
          "type": "address"
        },
        {
          "internalType": "bool",
          "name": "approved",
          "type": "bool"
        }
      ],
      "name": "setApprovalForAll",
      "outputs": [],
      "stateMutability": "nonpayable",
      "type": "function"
    },
    {
      "inputs": [
        {
          "internalType": "address",
          "name": "_signer",
          "type": "address"
        }
      ],
      "name": "setExsig",
      "outputs": [],
      "stateMutability": "nonpayable",
      "type": "function"
    },
    {
      "inputs": [
        {
          "internalType": "uint256",
          "name": "_maxFee",
          "type": "uint256"
        }
      ],
      "name": "setMaxfee",
      "outputs": [],
      "stateMutability": "nonpayable",
      "type": "function"
    },
    {
      "inputs": [
        {
          "internalType": "uint256",
          "name": "_maxGas",
          "type": "uint256"
        }
      ],
      "name": "setMaxgas",
      "outputs": [],
      "stateMutability": "nonpayable",
      "type": "function"
    },
    {
      "inputs": [
        {
          "internalType": "bytes4",
          "name": "interfaceId",
          "type": "bytes4"
        }
      ],
      "name": "supportsInterface",
      "outputs": [
        {
          "internalType": "bool",
          "name": "",
          "type": "bool"
        }
      ],
      "stateMutability": "view",
      "type": "function"
    },
    {
      "inputs": [],
      "name": "symbol",
      "outputs": [
        {
          "internalType": "string",
          "name": "",
          "type": "string"
        }
      ],
      "stateMutability": "view",
      "type": "function"
    },
    {
      "inputs": [
        {
          "internalType": "uint256",
          "name": "index",
          "type": "uint256"
        }
      ],
      "name": "tokenByIndex",
      "outputs": [
        {
          "internalType": "uint256",
          "name": "",
          "type": "uint256"
        }
      ],
      "stateMutability": "view",
      "type": "function"
    },
    {
      "inputs": [
        {
          "internalType": "address",
          "name": "owner",
          "type": "address"
        },
        {
          "internalType": "uint256",
          "name": "index",
          "type": "uint256"
        }
      ],
      "name": "tokenOfOwnerByIndex",
      "outputs": [
        {
          "internalType": "uint256",
          "name": "",
          "type": "uint256"
        }
      ],
      "stateMutability": "view",
      "type": "function"
    },
    {
      "inputs": [
        {
          "internalType": "uint256",
          "name": "_nftId",
          "type": "uint256"
        }
      ],
      "name": "tokenURI",
      "outputs": [
        {
          "internalType": "string",
          "name": "_uri",
          "type": "string"
        }
      ],
      "stateMutability": "view",
      "type": "function"
    },
    {
      "inputs": [],
      "name": "totalSupply",
      "outputs": [
        {
          "internalType": "uint256",
          "name": "",
          "type": "uint256"
        }
      ],
      "stateMutability": "view",
      "type": "function"
    },
    {
      "inputs": [
        {
          "internalType": "address",
          "name": "from",
          "type": "address"
        },
        {
          "internalType": "address",
          "name": "to",
          "type": "address"
        },
        {
          "internalType": "uint256",
          "name": "tokenId",
          "type": "uint256"
        }
      ],
      "name": "transferFrom",
      "outputs": [],
      "stateMutability": "nonpayable",
      "type": "function"
    },
    {
      "inputs": [
        {
          "internalType": "address",
          "name": "newOwner",
          "type": "address"
        }
      ],
      "name": "transferOwnership",
      "outputs": [],
      "stateMutability": "nonpayable",
      "type": "function"
    },
    {
      "inputs": [
        {
          "internalType": "address",
          "name": "_owner",
          "type": "address"
        }
      ],
      "name": "walletOfOwner",
      "outputs": [
        {
          "internalType": "uint256[]",
          "name": "_nftIds",
          "type": "uint256[]"
        }
      ],
      "stateMutability": "view",
      "type": "function"
    }
  ],
  "transactionHash": "0x015fc0dd1013200601a1fca8c88615e67e86d1c45f8a37d7d78a6d5dc93cf5ed",
  "args": [
    "0x448811d70486296d4e2B60E4258328957C94EaA7"
  ],
  "numDeployments": 1,
  "solcInputHash": "791022ea8a3ac32e211f9be98134d3a0",
  "bytecode": "0x60e060405260246080818152906200358460a03960ff906200002290826200015f565b5066038d7ea4c680006101005561010180546001600160a01b0319908116909155610102805490911673b11cadfdd2de8c84d626cc45bfe02b8effabb3ec1790553480156200007057600080fd5b50604051620035a8380380620035a883398101604081905262000093916200022b565b61010180546001600160a01b0319166001600160a01b03929092169190911790556200025d565b634e487b7160e01b600052604160045260246000fd5b600181811c90821680620000e557607f821691505b6020821081036200010657634e487b7160e01b600052602260045260246000fd5b50919050565b601f8211156200015a57600081815260208120601f850160051c81016020861015620001355750805b601f850160051c820191505b81811015620001565782815560010162000141565b5050505b505050565b81516001600160401b038111156200017b576200017b620000ba565b62000193816200018c8454620000d0565b846200010c565b602080601f831160018114620001cb5760008415620001b25750858301515b600019600386901b1c1916600185901b17855562000156565b600085815260208120601f198616915b82811015620001fc57888601518255948401946001909101908401620001db565b50858210156200021b5787850151600019600388901b60f8161c191681555b5050505050600190811b01905550565b6000602082840312156200023e57600080fd5b81516001600160a01b03811681146200025657600080fd5b9392505050565b613317806200026d6000396000f3fe608060405234801561001057600080fd5b506004361061021c5760003560e01c806373717b0811610125578063c63568c7116100ad578063e47ad74d1161007c578063e47ad74d146104d4578063e985e9c5146104e7578063ee9a31a214610523578063f2fde38b14610536578063f551e24e1461054957600080fd5b8063c63568c71461049d578063c87b56dd146104b1578063dbddb26a146104c4578063e1c7392a146104cc57600080fd5b806395d89b41116100f457806395d89b4114610449578063a22cb46514610451578063b479a96114610464578063b88d4fde14610477578063c60853f61461048a57600080fd5b806373717b081461039a5780637befab32146103ad5780638da5cb5b146103c057806392ae12fd146103d157600080fd5b80634174a596116101a85780635f46e740116101775780635f46e7401461034f5780636352211e14610362578063705fe4be1461037557806370a082311461037f578063715018a61461039257600080fd5b80634174a596146102f557806342842e0e14610309578063438b63001461031c5780634f6ccce71461033c57600080fd5b80630bf5d35e116101ef5780630bf5d35e1461029e5780631249c58b146102bf57806318160ddd146102c757806323b872dd146102cf5780632f745c59146102e257600080fd5b806301ffc9a71461022157806306fdde0314610249578063081812fc1461025e578063095ea7b314610289575b600080fd5b61023461022f36600461292b565b61056a565b60405190151581526020015b60405180910390f35b610251610595565b604051610240919061299f565b61027161026c3660046129b2565b610627565b6040516001600160a01b039091168152602001610240565b61029c6102973660046129e0565b61064e565b005b6102b16102ac366004612a0c565b610768565b604051908152602001610240565b6102b16108b6565b6099546102b1565b61029c6102dd366004612a41565b6108eb565b6102b16102f03660046129e0565b61091c565b61010154610271906001600160a01b031681565b61029c610317366004612a41565b6109b2565b61032f61032a366004612a82565b6109cd565b6040516102409190612a9f565b6102b161034a3660046129b2565b610a6c565b61029c61035d366004612ae3565b610aff565b6102716103703660046129b2565b610c0e565b6102b16101005481565b6102b161038d366004612a82565b610c6e565b61029c610cf4565b60fc54610271906001600160a01b031681565b61029c6103bb366004612be4565b610d08565b60c9546001600160a01b0316610271565b6104166103df3660046129b2565b60fd602052600090815260409020805460018201546002909201549091906001600160a01b03811690600160a01b900461ffff1684565b604051610240949392919093845260208401929092526001600160a01b0316604083015261ffff16606082015260800190565b61025161159d565b61029c61045f366004612ccb565b6115ac565b61029c6104723660046129b2565b6115bb565b61029c610485366004612d1a565b611625565b61029c610498366004612a82565b61165d565b61010254610271906001600160a01b031681565b6102516104bf3660046129b2565b611697565b6102516116c3565b61029c611751565b61029c6104e23660046129b2565b6118dd565b6102346104f5366004612dfa565b6001600160a01b039182166000908152606a6020908152604080832093909416825291909152205460ff1690565b60fb54610271906001600160a01b031681565b61029c610544366004612a82565b611916565b6102b16105573660046129b2565b6101036020526000908152604090205481565b60006001600160e01b0319821663780e9d6360e01b148061058f575061058f8261198c565b92915050565b6060606580546105a490612e28565b80601f01602080910402602001604051908101604052809291908181526020018280546105d090612e28565b801561061d5780601f106105f25761010080835404028352916020019161061d565b820191906000526020600020905b81548152906001019060200180831161060057829003601f168201915b5050505050905090565b6000610632826119dc565b506000908152606960205260409020546001600160a01b031690565b600061065982610c0e565b9050806001600160a01b0316836001600160a01b0316036106cb5760405162461bcd60e51b815260206004820152602160248201527f4552433732313a20617070726f76616c20746f2063757272656e74206f776e656044820152603960f91b60648201526084015b60405180910390fd5b336001600160a01b03821614806106e757506106e781336104f5565b6107595760405162461bcd60e51b815260206004820152603d60248201527f4552433732313a20617070726f76652063616c6c6572206973206e6f7420746f60448201527f6b656e206f776e6572206f7220617070726f76656420666f7220616c6c00000060648201526084016106c2565b6107638383611a3b565b505050565b600082815260fd602052604081206002015483906001600160a01b03166107d15760405162461bcd60e51b815260206004820152601c60248201527f64657374696e6174696f6e20636861696e206e6f74206163746976650000000060448201526064016106c2565b6000838152606760205260409020546001600160a01b031633146108375760405162461bcd60e51b815260206004820152601760248201527f796f7520646f206e6f74206f776e2074686973206e667400000000000000000060448201526064016106c2565b6101015460008581526101036020526040902054610862916001600160a01b03169033903090611aa9565b61086e336000856108eb565b604080516001600160a01b03878116602083015281830186905282518083038401815260609092019092526101025490916108ac9187911683611b03565b9695505050505050565b60006108dd61010160009054906101000a90046001600160a01b0316333061010054611aa9565b6108e633611bce565b905090565b6108f53382611c9f565b6109115760405162461bcd60e51b81526004016106c290612e5c565b610763838383611d1e565b600061092783610c6e565b82106109895760405162461bcd60e51b815260206004820152602b60248201527f455243373231456e756d657261626c653a206f776e657220696e646578206f7560448201526a74206f6620626f756e647360a81b60648201526084016106c2565b506001600160a01b03919091166000908152609760209081526040808320938352929052205490565b61076383838360405180602001604052806000815250611625565b606060006109da83610c6e565b90508067ffffffffffffffff8111156109f5576109f5612d04565b604051908082528060200260200182016040528015610a1e578160200160208202803683370190505b50915060005b81811015610a6557610a36848261091c565b838281518110610a4857610a48612ea9565b602090810291909101015280610a5d81612ed5565b915050610a24565b5050919050565b6000610a7760995490565b8210610ada5760405162461bcd60e51b815260206004820152602c60248201527f455243373231456e756d657261626c653a20676c6f62616c20696e646578206f60448201526b7574206f6620626f756e647360a01b60648201526084016106c2565b60998281548110610aed57610aed612ea9565b90600052602060002001549050919050565b60fb54859087906001600160a01b03163314610b4e5760405162461bcd60e51b815260206004820152600e60248201526d1b9bdd08185d5d1a1bdc9a5e995960921b60448201526064016106c2565b600081815260fd60205260409020600201546001600160a01b03838116911614610bab5760405162461bcd60e51b815260206004820152600e60248201526d1b9bdd08185d5d1a1bdc9a5e995960921b60448201526064016106c2565b600080610bba858701876129e0565b915091507fa8142743f8f70a4c26f3691cf4ed59718381fb2f18070ec52be1f1022d85555781604051610bef91815260200190565b60405180910390a1610c018282611e8f565b5050505050505050505050565b6000818152606760205260408120546001600160a01b03168061058f5760405162461bcd60e51b8152602060048201526018602482015277115490cdcc8c4e881a5b9d985b1a59081d1bdad95b88125160421b60448201526064016106c2565b60006001600160a01b038216610cd85760405162461bcd60e51b815260206004820152602960248201527f4552433732313a2061646472657373207a65726f206973206e6f7420612076616044820152683634b21037bbb732b960b91b60648201526084016106c2565b506001600160a01b031660009081526068602052604090205490565b610cfc611ea9565b610d066000611f03565b565b610d10611ea9565b6001600160a01b0389166110ed5746600103610d2f576000985061109f565b4661a86a03610d41576000985061109f565b4661210503610d53576000985061109f565b46603803610d64576000985061109f565b4661a4ec03610d76576000985061109f565b46601903610d87576000985061109f565b4660fa03610d98576000985061109f565b466106f103610daa576000985061109f565b466363564c4003610dbe576000985061109f565b4661044003610dd0576000985061109f565b4661a51603610de2576000985061109f565b46608903610df3576000985061109f565b4661017103610e05576000985061109f565b4662066eee03610e2b577305730dac0b9cd39f37f0415eb4e503ea7a8bba1b985061109f565b4661a86903610e505773665b3d012b8ead9fdb7aa973bb79af3c035d7c1b985061109f565b4662014a3403610e765773558c52b67594faf5fdb0caacaa906d05ae1f3c4f985061109f565b46606103610e9a5773a143a4d139b85959b20c8c50e52b4845e5c16bd4985061109f565b4661aef303610ebf5773a15714c2a4079f7c0e1a40d85361de4f8a0c515e985061109f565b4661015203610ee457739a535f991620615f2a24ba28949b056afe6bd1da985061109f565b46610fa203610f095773491f2495d20b81f9674386fb698b15e99a206dea985061109f565b466105ac03610f2e57738683c7031e38577c720ca97874698b2a2e05bdc1985061109f565b466127d803610f535773f0b8dfcddc9587d00f3ace2d123fd1f04ddb6211985061109f565b46636357d2e003610f7a57735eb3c4f89d76c05b81714d6126642ef6ea86c9ae985061109f565b4661025703610f9f5773292a4a28f143b951fbe8bba32d176c33674286ad985061109f565b46604103610fc35773dd15300544b66ffacd50ea5917194142f04a0b9a985061109f565b4662aa37dc03610fe957732ba3070e0ff0fd46bc300fb071b6771ff094a2d1985061109f565b46620138810361100f5773a4f33ae2d9a72091cf0fd2b6d142d9d6de3e8bca985061109f565b466105a2036110345773990033c63b9c270af8315f7f8db3afc9b0e408dd985061109f565b466103af036110595773c864d304f9238ef4788da60d743589a31bf8a843985061109f565b466208274f0361107f5773a648df7adfa847cf0149083857dda1680926899f985061109f565b4660c30361109f577379fed6ab7d2b277a415d0d58dbcbbcbe06d4d23d98505b6001600160a01b0389166110ed5760405162461bcd60e51b81526020600482015260156024820152741a5b9d985b1a590818da185a5b881a5b881b1a5cdd605a1b60448201526064016106c2565b60fb80546001600160a01b0319166001600160a01b038b169081179091556040805163647846a560e01b8152905163647846a5916004808201926020929091908290030181865afa158015611146573d6000803e3d6000fd5b505050506040513d601f19601f8201168201806040525081019061116a9190612eee565b60fc80546001600160a01b0319166001600160a01b03929092169190911790558660005b818110156113995760fb546001600160a01b03166327c7484e8b8b848181106111b9576111b9612ea9565b905060200201356040518263ffffffff1660e01b81526004016111de91815260200190565b6020604051808303816000875af11580156111fd573d6000803e3d6000fd5b505050506040513d601f19601f820116820180604052508101906112219190612f0b565b60fd60008c8c8581811061123757611237612ea9565b9050602002013581526020019081526020016000206000018190555083838281811061126557611265612ea9565b905060200201602081019061127a9190612f24565b60fd60008c8c8581811061129057611290612ea9565b90506020020135815260200190815260200160002060020160146101000a81548161ffff021916908361ffff1602179055508585828181106112d4576112d4612ea9565b90506020020160208101906112e99190612a82565b60fd60008c8c858181106112ff576112ff612ea9565b90506020020135815260200190815260200160002060020160006101000a8154816001600160a01b0302191690836001600160a01b0316021790555087878281811061134d5761134d612ea9565b9050602002013560fd60008c8c8581811061136a5761136a612ea9565b90506020020135815260200190815260200160002060010181905550808061139190612ed5565b91505061118e565b5060fc546001600160a01b0316156114275760fc5460fb5460405163095ea7b360e01b81526001600160a01b039182166004820152600019602482015291169063095ea7b3906044016020604051808303816000875af1158015611401573d6000803e3d6000fd5b505050506040513d601f19601f820116820180604052508101906114259190612f48565b505b60fb5460408051633fc8cef360e01b815290516000926001600160a01b031691633fc8cef39160048083019260209291908290030181865afa158015611471573d6000803e3d6000fd5b505050506040513d601f19601f820116820180604052508101906114959190612eee565b6001600160a01b0316146115915760fb60009054906101000a90046001600160a01b03166001600160a01b0316633fc8cef36040518163ffffffff1660e01b8152600401602060405180830381865afa1580156114f6573d6000803e3d6000fd5b505050506040513d601f19601f8201168201806040525081019061151a9190612eee565b60fb5460405163095ea7b360e01b81526001600160a01b039182166004820152600019602482015291169063095ea7b3906044016020604051808303816000875af115801561156d573d6000803e3d6000fd5b505050506040513d601f19601f82011682018060405250810190610c019190612f48565b50505050505050505050565b6060606680546105a490612e28565b6115b7338383611f55565b5050565b6115c3611ea9565b60fb5460405163b479a96160e01b8152600481018390526001600160a01b039091169063b479a961906024015b600060405180830381600087803b15801561160a57600080fd5b505af115801561161e573d6000803e3d6000fd5b5050505050565b61162f3383611c9f565b61164b5760405162461bcd60e51b81526004016106c290612e5c565b61165784848484612023565b50505050565b611665611ea9565b60fb5460405163630429fb60e11b81526001600160a01b0383811660048301529091169063c60853f6906024016115f0565b606060ff826040516020016116ad929190612f65565b6040516020818303038152906040529050919050565b60ff80546116d090612e28565b80601f01602080910402602001604051908101604052809291908181526020018280546116fc90612e28565b80156117495780601f1061171e57610100808354040283529160200191611749565b820191906000526020600020905b81548152906001019060200180831161172c57829003601f168201915b505050505081565b600054610100900460ff16158080156117715750600054600160ff909116105b8061178b5750303b15801561178b575060005460ff166001145b6117ee5760405162461bcd60e51b815260206004820152602e60248201527f496e697469616c697a61626c653a20636f6e747261637420697320616c72656160448201526d191e481a5b9a5d1a585b1a5e995960921b60648201526084016106c2565b6000805460ff191660011790558015611811576000805461ff0019166101001790555b600054610100900460ff166118385760405162461bcd60e51b81526004016106c290612fee565b61188c6040518060400160405280601681526020017514da5b5c1b194810dc9bdcdcc810da185a5b8813919560521b815250604051806040016040528060048152602001631cd3919560e21b815250612056565b611894612087565b80156118da576000805461ff0019169055604051600181527f7f26b83ff96e1f2b6a682f133852f6798a09c465da95921460cefb38474024989060200160405180910390a15b50565b6118e5611ea9565b60fb5460405163e47ad74d60e01b8152600481018390526001600160a01b039091169063e47ad74d906024016115f0565b61191e611ea9565b6001600160a01b0381166119835760405162461bcd60e51b815260206004820152602660248201527f4f776e61626c653a206e6577206f776e657220697320746865207a65726f206160448201526564647265737360d01b60648201526084016106c2565b6118da81611f03565b60006001600160e01b031982166380ac58cd60e01b14806119bd57506001600160e01b03198216635b5e139f60e01b145b8061058f57506301ffc9a760e01b6001600160e01b031983161461058f565b6000818152606760205260409020546001600160a01b03166118da5760405162461bcd60e51b8152602060048201526018602482015277115490cdcc8c4e881a5b9d985b1a59081d1bdad95b88125160421b60448201526064016106c2565b600081815260696020526040902080546001600160a01b0319166001600160a01b0384169081179091558190611a7082610c0e565b6001600160a01b03167f8c5be1e5ebec7d5bd14f71427d1e84f3dd0314c0f7b2291e5b200ac8c7c3b92560405160405180910390a45050565b604080516001600160a01b0385811660248301528416604482015260648082018490528251808303909101815260849091019091526020810180516001600160e01b03166323b872dd60e01b17905261165790859061208f565b600083815260fd60209081526040808320815160808101835281548152600182015493810193909352600201546001600160a01b03808216848401819052600160a01b90920461ffff166060850181905260fb549351633f6b724360e21b8152939091169263fdadc90c92611b829290918a9189918990600401613039565b6020604051808303816000875af1158015611ba1573d6000803e3d6000fd5b505050506040513d601f19601f82011682018060405250810190611bc59190612f0b565b95945050505050565b600080611bda60fe5490565b90506103e88110611c245760405162461bcd60e51b81526020600482015260146024820152736d696e74206174206d617820636170616369747960601b60448201526064016106c2565b80611c32466298968061307d565b611c3c9190613094565b604080516001600160a01b0386168152602081018390529193507f0f6798a560793a54c3bcfe86a93cde1e73087d944c0ea20544137d4121396885910160405180910390a1611c8b8383611e8f565b611c9960fe80546001019055565b50919050565b600080611cab83610c0e565b9050806001600160a01b0316846001600160a01b03161480611cf257506001600160a01b038082166000908152606a602090815260408083209388168352929052205460ff165b80611d165750836001600160a01b0316611d0b84610627565b6001600160a01b0316145b949350505050565b826001600160a01b0316611d3182610c0e565b6001600160a01b031614611d575760405162461bcd60e51b81526004016106c2906130a7565b6001600160a01b038216611db95760405162461bcd60e51b8152602060048201526024808201527f4552433732313a207472616e7366657220746f20746865207a65726f206164646044820152637265737360e01b60648201526084016106c2565b611dc68383836001612164565b826001600160a01b0316611dd982610c0e565b6001600160a01b031614611dff5760405162461bcd60e51b81526004016106c2906130a7565b600081815260696020908152604080832080546001600160a01b03199081169091556001600160a01b0387811680865260688552838620805460001901905590871680865283862080546001019055868652606790945282852080549092168417909155905184937fddf252ad1be2c89b69c2b068fc378daa952ba7f163c4a11628f55a4df523b3ef91a4505050565b6115b7828260405180602001604052806000815250612291565b60c9546001600160a01b03163314610d065760405162461bcd60e51b815260206004820181905260248201527f4f776e61626c653a2063616c6c6572206973206e6f7420746865206f776e657260448201526064016106c2565b60c980546001600160a01b038381166001600160a01b0319831681179093556040519116919082907f8be0079c531659141344cd1fd0a4f28419497f9722a3daafe3b4186f6b6457e090600090a35050565b816001600160a01b0316836001600160a01b031603611fb65760405162461bcd60e51b815260206004820152601960248201527f4552433732313a20617070726f766520746f2063616c6c65720000000000000060448201526064016106c2565b6001600160a01b038381166000818152606a6020908152604080832094871680845294825291829020805460ff191686151590811790915591519182527f17307eab39ab6107e8899845ad3d59bd9653f200f220920489ca2b5937696c31910160405180910390a3505050565b61202e848484611d1e565b61203a848484846122c4565b6116575760405162461bcd60e51b81526004016106c2906130ec565b600054610100900460ff1661207d5760405162461bcd60e51b81526004016106c290612fee565b6115b782826123c5565b610d06612405565b60006120e4826040518060400160405280602081526020017f5361666545524332303a206c6f772d6c6576656c2063616c6c206661696c6564815250856001600160a01b03166124349092919063ffffffff16565b90508051600014806121055750808060200190518101906121059190612f48565b6107635760405162461bcd60e51b815260206004820152602a60248201527f5361666545524332303a204552433230206f7065726174696f6e20646964206e6044820152691bdd081cdd58d8d9595960b21b60648201526084016106c2565b60018111156121d35760405162461bcd60e51b815260206004820152603560248201527f455243373231456e756d657261626c653a20636f6e7365637574697665207472604482015274185b9cd9995c9cc81b9bdd081cdd5c1c1bdc9d1959605a1b60648201526084016106c2565b816001600160a01b03851661222f5761222a81609980546000838152609a60205260408120829055600182018355919091527f72a152ddfb8e864297c917af52ea6c1c68aead0fee1a62673fcc7e0c94979d000155565b612252565b836001600160a01b0316856001600160a01b031614612252576122528582612443565b6001600160a01b03841661226e57612269816124e0565b61161e565b846001600160a01b0316846001600160a01b03161461161e5761161e848261258f565b61229b83836125d3565b6122a860008484846122c4565b6107635760405162461bcd60e51b81526004016106c2906130ec565b60006001600160a01b0384163b156123ba57604051630a85bd0160e11b81526001600160a01b0385169063150b7a029061230890339089908890889060040161313e565b6020604051808303816000875af1925050508015612343575060408051601f3d908101601f1916820190925261234091810190613171565b60015b6123a0573d808015612371576040519150601f19603f3d011682016040523d82523d6000602084013e612376565b606091505b5080516000036123985760405162461bcd60e51b81526004016106c2906130ec565b805181602001fd5b6001600160e01b031916630a85bd0160e11b149050611d16565b506001949350505050565b600054610100900460ff166123ec5760405162461bcd60e51b81526004016106c290612fee565b60656123f883826131dc565b50606661076382826131dc565b600054610100900460ff1661242c5760405162461bcd60e51b81526004016106c290612fee565b610d0661276c565b6060611d16848460008561279c565b6000600161245084610c6e565b61245a919061329c565b6000838152609860205260409020549091508082146124ad576001600160a01b03841660009081526097602090815260408083208584528252808320548484528184208190558352609890915290208190555b5060009182526098602090815260408084208490556001600160a01b039094168352609781528383209183525290812055565b6099546000906124f29060019061329c565b6000838152609a60205260408120546099805493945090928490811061251a5761251a612ea9565b90600052602060002001549050806099838154811061253b5761253b612ea9565b6000918252602080832090910192909255828152609a90915260408082208490558582528120556099805480612573576125736132af565b6001900381819060005260206000200160009055905550505050565b600061259a83610c6e565b6001600160a01b039093166000908152609760209081526040808320868452825280832085905593825260989052919091209190915550565b6001600160a01b0382166126295760405162461bcd60e51b815260206004820181905260248201527f4552433732313a206d696e7420746f20746865207a65726f206164647265737360448201526064016106c2565b6000818152606760205260409020546001600160a01b03161561268e5760405162461bcd60e51b815260206004820152601c60248201527f4552433732313a20746f6b656e20616c7265616479206d696e7465640000000060448201526064016106c2565b61269c600083836001612164565b6000818152606760205260409020546001600160a01b0316156127015760405162461bcd60e51b815260206004820152601c60248201527f4552433732313a20746f6b656e20616c7265616479206d696e7465640000000060448201526064016106c2565b6001600160a01b038216600081815260686020908152604080832080546001019055848352606790915280822080546001600160a01b0319168417905551839291907fddf252ad1be2c89b69c2b068fc378daa952ba7f163c4a11628f55a4df523b3ef908290a45050565b600054610100900460ff166127935760405162461bcd60e51b81526004016106c290612fee565b610d0633611f03565b6060824710156127fd5760405162461bcd60e51b815260206004820152602660248201527f416464726573733a20696e73756666696369656e742062616c616e636520666f6044820152651c8818d85b1b60d21b60648201526084016106c2565b600080866001600160a01b0316858760405161281991906132c5565b60006040518083038185875af1925050503d8060008114612856576040519150601f19603f3d011682016040523d82523d6000602084013e61285b565b606091505b509150915061286c87838387612877565b979650505050505050565b606083156128e65782516000036128df576001600160a01b0385163b6128df5760405162461bcd60e51b815260206004820152601d60248201527f416464726573733a2063616c6c20746f206e6f6e2d636f6e747261637400000060448201526064016106c2565b5081611d16565b611d1683838151156128fb5781518083602001fd5b8060405162461bcd60e51b81526004016106c2919061299f565b6001600160e01b0319811681146118da57600080fd5b60006020828403121561293d57600080fd5b813561294881612915565b9392505050565b60005b8381101561296a578181015183820152602001612952565b50506000910152565b6000815180845261298b81602086016020860161294f565b601f01601f19169290920160200192915050565b6020815260006129486020830184612973565b6000602082840312156129c457600080fd5b5035919050565b6001600160a01b03811681146118da57600080fd5b600080604083850312156129f357600080fd5b82356129fe816129cb565b946020939093013593505050565b600080600060608486031215612a2157600080fd5b8335612a2c816129cb565b95602085013595506040909401359392505050565b600080600060608486031215612a5657600080fd5b8335612a61816129cb565b92506020840135612a71816129cb565b929592945050506040919091013590565b600060208284031215612a9457600080fd5b8135612948816129cb565b6020808252825182820181905260009190848201906040850190845b81811015612ad757835183529284019291840191600101612abb565b50909695505050505050565b600080600080600080600060c0888a031215612afe57600080fd5b87359650602088013595506040880135612b17816129cb565b94506060880135612b27816129cb565b93506080880135925060a088013567ffffffffffffffff80821115612b4b57600080fd5b818a0191508a601f830112612b5f57600080fd5b813581811115612b6e57600080fd5b8b6020828501011115612b8057600080fd5b60208301945080935050505092959891949750929550565b60008083601f840112612baa57600080fd5b50813567ffffffffffffffff811115612bc257600080fd5b6020830191508360208260051b8501011115612bdd57600080fd5b9250929050565b600080600080600080600080600060a08a8c031215612c0257600080fd5b8935612c0d816129cb565b985060208a013567ffffffffffffffff80821115612c2a57600080fd5b612c368d838e01612b98565b909a50985060408c0135915080821115612c4f57600080fd5b612c5b8d838e01612b98565b909850965060608c0135915080821115612c7457600080fd5b612c808d838e01612b98565b909650945060808c0135915080821115612c9957600080fd5b50612ca68c828d01612b98565b915080935050809150509295985092959850929598565b80151581146118da57600080fd5b60008060408385031215612cde57600080fd5b8235612ce9816129cb565b91506020830135612cf981612cbd565b809150509250929050565b634e487b7160e01b600052604160045260246000fd5b60008060008060808587031215612d3057600080fd5b8435612d3b816129cb565b93506020850135612d4b816129cb565b925060408501359150606085013567ffffffffffffffff80821115612d6f57600080fd5b818701915087601f830112612d8357600080fd5b813581811115612d9557612d95612d04565b604051601f8201601f19908116603f01168101908382118183101715612dbd57612dbd612d04565b816040528281528a6020848701011115612dd657600080fd5b82602086016020830137600060208483010152809550505050505092959194509250565b60008060408385031215612e0d57600080fd5b8235612e18816129cb565b91506020830135612cf9816129cb565b600181811c90821680612e3c57607f821691505b602082108103611c9957634e487b7160e01b600052602260045260246000fd5b6020808252602d908201527f4552433732313a2063616c6c6572206973206e6f7420746f6b656e206f776e6560408201526c1c881bdc88185c1c1c9bdd9959609a1b606082015260800190565b634e487b7160e01b600052603260045260246000fd5b634e487b7160e01b600052601160045260246000fd5b600060018201612ee757612ee7612ebf565b5060010190565b600060208284031215612f0057600080fd5b8151612948816129cb565b600060208284031215612f1d57600080fd5b5051919050565b600060208284031215612f3657600080fd5b813561ffff8116811461294857600080fd5b600060208284031215612f5a57600080fd5b815161294881612cbd565b6000808454612f7381612e28565b60018281168015612f8b5760018114612fa057612fcf565b60ff1984168752821515830287019450612fcf565b8860005260208060002060005b85811015612fc65781548a820152908401908201612fad565b50505082870194505b50505093815264173539b7b760d91b6020820152602501949350505050565b6020808252602b908201527f496e697469616c697a61626c653a20636f6e7472616374206973206e6f74206960408201526a6e697469616c697a696e6760a81b606082015260800190565b60018060a01b038616815284602082015260a06040820152600061306060a0830186612973565b61ffff949094166060830152509015156080909101529392505050565b808202811582820484141761058f5761058f612ebf565b8082018082111561058f5761058f612ebf565b60208082526025908201527f4552433732313a207472616e736665722066726f6d20696e636f72726563742060408201526437bbb732b960d91b606082015260800190565b60208082526032908201527f4552433732313a207472616e7366657220746f206e6f6e20455243373231526560408201527131b2b4bb32b91034b6b83632b6b2b73a32b960711b606082015260800190565b6001600160a01b03858116825284166020820152604081018390526080606082018190526000906108ac90830184612973565b60006020828403121561318357600080fd5b815161294881612915565b601f82111561076357600081815260208120601f850160051c810160208610156131b55750805b601f850160051c820191505b818110156131d4578281556001016131c1565b505050505050565b815167ffffffffffffffff8111156131f6576131f6612d04565b61320a816132048454612e28565b8461318e565b602080601f83116001811461323f57600084156132275750858301515b600019600386901b1c1916600185901b1785556131d4565b600085815260208120601f198616915b8281101561326e5788860151825594840194600190910190840161324f565b508582101561328c5787850151600019600388901b60f8161c191681555b5050505050600190811b01905550565b8181038181111561058f5761058f612ebf565b634e487b7160e01b600052603160045260246000fd5b600082516132d781846020870161294f565b919091019291505056fea26469706673582212208c92f05202bdf5a0c066598e1eb3c829b078c8cdb7664391290c1ca0b2c36ec364736f6c6343000811003368747470733a2f2f6e6674732e73332e64652e696f2e636c6f75642e6f76682e6e65742f",
  "devdoc": {
    "kind": "dev",
    "methods": {
      "approve(address,uint256)": {
        "details": "See {IERC721-approve}."
      },
      "balanceOf(address)": {
        "details": "See {IERC721-balanceOf}."
      },
      "getApproved(uint256)": {
        "details": "See {IERC721-getApproved}."
      },
      "isApprovedForAll(address,address)": {
        "details": "See {IERC721-isApprovedForAll}."
      },
      "name()": {
        "details": "See {IERC721Metadata-name}."
      },
      "owner()": {
        "details": "Returns the address of the current owner."
      },
      "ownerOf(uint256)": {
        "details": "See {IERC721-ownerOf}."
      },
      "renounceOwnership()": {
        "details": "Leaves the contract without owner. It will not be possible to call `onlyOwner` functions. Can only be called by the current owner. NOTE: Renouncing ownership will leave the contract without an owner, thereby disabling any functionality that is only available to the owner."
      },
      "safeTransferFrom(address,address,uint256)": {
        "details": "See {IERC721-safeTransferFrom}."
      },
      "safeTransferFrom(address,address,uint256,bytes)": {
        "details": "See {IERC721-safeTransferFrom}."
      },
      "setApprovalForAll(address,bool)": {
        "details": "See {IERC721-setApprovalForAll}."
      },
      "supportsInterface(bytes4)": {
        "details": "See {IERC165-supportsInterface}."
      },
      "symbol()": {
        "details": "See {IERC721Metadata-symbol}."
      },
      "tokenByIndex(uint256)": {
        "details": "See {IERC721Enumerable-tokenByIndex}."
      },
      "tokenOfOwnerByIndex(address,uint256)": {
        "details": "See {IERC721Enumerable-tokenOfOwnerByIndex}."
      },
      "totalSupply()": {
        "details": "See {IERC721Enumerable-totalSupply}."
      },
      "transferFrom(address,address,uint256)": {
        "details": "See {IERC721-transferFrom}."
      },
      "transferOwnership(address)": {
        "details": "Transfers ownership of the contract to a new account (`newOwner`). Can only be called by the current owner."
      }
    },
    "version": 1
  },
  "userdoc": {
    "kind": "user",
    "methods": {
      "configureBridge(address,uint256[],uint256[],address[],uint16[])": {
        "notice": "OWNER "
      },
      "messageProcess(uint256,uint256,address,address,uint256,bytes)": {
        "notice": "BRIDGE RECEIVER "
      },
      "mint()": {
        "notice": "USER "
      },
      "walletOfOwner(address)": {
        "notice": "VIEWS "
      }
    },
    "version": 1
  },
  "storageLayout": {
    "storage": [
      {
        "astId": 138,
        "contract": "contracts/SimpleNFT.sol:SimpleNFT",
        "label": "_initialized",
        "offset": 0,
        "slot": "0",
        "type": "t_uint8"
      },
      {
        "astId": 141,
        "contract": "contracts/SimpleNFT.sol:SimpleNFT",
        "label": "_initializing",
        "offset": 1,
        "slot": "0",
        "type": "t_bool"
      },
      {
        "astId": 2189,
        "contract": "contracts/SimpleNFT.sol:SimpleNFT",
        "label": "__gap",
        "offset": 0,
        "slot": "1",
        "type": "t_array(t_uint256)50_storage"
      },
      {
        "astId": 2462,
        "contract": "contracts/SimpleNFT.sol:SimpleNFT",
        "label": "__gap",
        "offset": 0,
        "slot": "51",
        "type": "t_array(t_uint256)50_storage"
      },
      {
        "astId": 329,
        "contract": "contracts/SimpleNFT.sol:SimpleNFT",
        "label": "_name",
        "offset": 0,
        "slot": "101",
        "type": "t_string_storage"
      },
      {
        "astId": 331,
        "contract": "contracts/SimpleNFT.sol:SimpleNFT",
        "label": "_symbol",
        "offset": 0,
        "slot": "102",
        "type": "t_string_storage"
      },
      {
        "astId": 335,
        "contract": "contracts/SimpleNFT.sol:SimpleNFT",
        "label": "_owners",
        "offset": 0,
        "slot": "103",
        "type": "t_mapping(t_uint256,t_address)"
      },
      {
        "astId": 339,
        "contract": "contracts/SimpleNFT.sol:SimpleNFT",
        "label": "_balances",
        "offset": 0,
        "slot": "104",
        "type": "t_mapping(t_address,t_uint256)"
      },
      {
        "astId": 343,
        "contract": "contracts/SimpleNFT.sol:SimpleNFT",
        "label": "_tokenApprovals",
        "offset": 0,
        "slot": "105",
        "type": "t_mapping(t_uint256,t_address)"
      },
      {
        "astId": 349,
        "contract": "contracts/SimpleNFT.sol:SimpleNFT",
        "label": "_operatorApprovals",
        "offset": 0,
        "slot": "106",
        "type": "t_mapping(t_address,t_mapping(t_address,t_bool))"
      },
      {
        "astId": 1251,
        "contract": "contracts/SimpleNFT.sol:SimpleNFT",
        "label": "__gap",
        "offset": 0,
        "slot": "107",
        "type": "t_array(t_uint256)44_storage"
      },
      {
        "astId": 1416,
        "contract": "contracts/SimpleNFT.sol:SimpleNFT",
        "label": "_ownedTokens",
        "offset": 0,
        "slot": "151",
        "type": "t_mapping(t_address,t_mapping(t_uint256,t_uint256))"
      },
      {
        "astId": 1420,
        "contract": "contracts/SimpleNFT.sol:SimpleNFT",
        "label": "_ownedTokensIndex",
        "offset": 0,
        "slot": "152",
        "type": "t_mapping(t_uint256,t_uint256)"
      },
      {
        "astId": 1423,
        "contract": "contracts/SimpleNFT.sol:SimpleNFT",
        "label": "_allTokens",
        "offset": 0,
        "slot": "153",
        "type": "t_array(t_uint256)dyn_storage"
      },
      {
        "astId": 1427,
        "contract": "contracts/SimpleNFT.sol:SimpleNFT",
        "label": "_allTokensIndex",
        "offset": 0,
        "slot": "154",
        "type": "t_mapping(t_uint256,t_uint256)"
      },
      {
        "astId": 1759,
        "contract": "contracts/SimpleNFT.sol:SimpleNFT",
        "label": "__gap",
        "offset": 0,
        "slot": "155",
        "type": "t_array(t_uint256)46_storage"
      },
      {
        "astId": 10,
        "contract": "contracts/SimpleNFT.sol:SimpleNFT",
        "label": "_owner",
        "offset": 0,
        "slot": "201",
        "type": "t_address"
      },
      {
        "astId": 130,
        "contract": "contracts/SimpleNFT.sol:SimpleNFT",
        "label": "__gap",
        "offset": 0,
        "slot": "202",
        "type": "t_array(t_uint256)49_storage"
      },
      {
        "astId": 4476,
        "contract": "contracts/SimpleNFT.sol:SimpleNFT",
        "label": "BRIDGE",
        "offset": 0,
        "slot": "251",
        "type": "t_contract(IMessageV3)4465"
      },
      {
        "astId": 4479,
        "contract": "contracts/SimpleNFT.sol:SimpleNFT",
        "label": "FEE_TOKEN",
        "offset": 0,
        "slot": "252",
        "type": "t_contract(IERC20)3524"
      },
      {
        "astId": 4493,
        "contract": "contracts/SimpleNFT.sol:SimpleNFT",
        "label": "CHAINS",
        "offset": 0,
        "slot": "253",
        "type": "t_mapping(t_uint256,t_struct(ChainData)4488_storage)"
      },
      {
        "astId": 5240,
        "contract": "contracts/SimpleNFT.sol:SimpleNFT",
        "label": "COUNTER",
        "offset": 0,
        "slot": "254",
        "type": "t_struct(Counter)4272_storage"
      },
      {
        "astId": 5243,
        "contract": "contracts/SimpleNFT.sol:SimpleNFT",
        "label": "BASE_URI",
        "offset": 0,
        "slot": "255",
        "type": "t_string_storage"
      },
      {
        "astId": 5246,
        "contract": "contracts/SimpleNFT.sol:SimpleNFT",
        "label": "BUY_PRICE",
        "offset": 0,
        "slot": "256",
        "type": "t_uint256"
      },
      {
        "astId": 5255,
        "contract": "contracts/SimpleNFT.sol:SimpleNFT",
        "label": "BUY_TOKEN",
        "offset": 0,
        "slot": "257",
        "type": "t_contract(IERC20)3524"
      },
      {
        "astId": 5258,
        "contract": "contracts/SimpleNFT.sol:SimpleNFT",
        "label": "REFERRAL",
        "offset": 0,
        "slot": "258",
        "type": "t_address"
      },
      {
        "astId": 5262,
        "contract": "contracts/SimpleNFT.sol:SimpleNFT",
        "label": "BRIDGE_PRICE",
        "offset": 0,
        "slot": "259",
        "type": "t_mapping(t_uint256,t_uint256)"
      }
    ],
    "types": {
      "t_address": {
        "encoding": "inplace",
        "label": "address",
        "numberOfBytes": "20"
      },
      "t_array(t_uint256)44_storage": {
        "base": "t_uint256",
        "encoding": "inplace",
        "label": "uint256[44]",
        "numberOfBytes": "1408"
      },
      "t_array(t_uint256)46_storage": {
        "base": "t_uint256",
        "encoding": "inplace",
        "label": "uint256[46]",
        "numberOfBytes": "1472"
      },
      "t_array(t_uint256)49_storage": {
        "base": "t_uint256",
        "encoding": "inplace",
        "label": "uint256[49]",
        "numberOfBytes": "1568"
      },
      "t_array(t_uint256)50_storage": {
        "base": "t_uint256",
        "encoding": "inplace",
        "label": "uint256[50]",
        "numberOfBytes": "1600"
      },
      "t_array(t_uint256)dyn_storage": {
        "base": "t_uint256",
        "encoding": "dynamic_array",
        "label": "uint256[]",
        "numberOfBytes": "32"
      },
      "t_bool": {
        "encoding": "inplace",
        "label": "bool",
        "numberOfBytes": "1"
      },
      "t_contract(IERC20)3524": {
        "encoding": "inplace",
        "label": "contract IERC20",
        "numberOfBytes": "20"
      },
      "t_contract(IMessageV3)4465": {
        "encoding": "inplace",
        "label": "contract IMessageV3",
        "numberOfBytes": "20"
      },
      "t_mapping(t_address,t_bool)": {
        "encoding": "mapping",
        "key": "t_address",
        "label": "mapping(address => bool)",
        "numberOfBytes": "32",
        "value": "t_bool"
      },
      "t_mapping(t_address,t_mapping(t_address,t_bool))": {
        "encoding": "mapping",
        "key": "t_address",
        "label": "mapping(address => mapping(address => bool))",
        "numberOfBytes": "32",
        "value": "t_mapping(t_address,t_bool)"
      },
      "t_mapping(t_address,t_mapping(t_uint256,t_uint256))": {
        "encoding": "mapping",
        "key": "t_address",
        "label": "mapping(address => mapping(uint256 => uint256))",
        "numberOfBytes": "32",
        "value": "t_mapping(t_uint256,t_uint256)"
      },
      "t_mapping(t_address,t_uint256)": {
        "encoding": "mapping",
        "key": "t_address",
        "label": "mapping(address => uint256)",
        "numberOfBytes": "32",
        "value": "t_uint256"
      },
      "t_mapping(t_uint256,t_address)": {
        "encoding": "mapping",
        "key": "t_uint256",
        "label": "mapping(uint256 => address)",
        "numberOfBytes": "32",
        "value": "t_address"
      },
      "t_mapping(t_uint256,t_struct(ChainData)4488_storage)": {
        "encoding": "mapping",
        "key": "t_uint256",
        "label": "mapping(uint256 => struct MessageV3ClientUpgradeable.ChainData)",
        "numberOfBytes": "32",
        "value": "t_struct(ChainData)4488_storage"
      },
      "t_mapping(t_uint256,t_uint256)": {
        "encoding": "mapping",
        "key": "t_uint256",
        "label": "mapping(uint256 => uint256)",
        "numberOfBytes": "32",
        "value": "t_uint256"
      },
      "t_string_storage": {
        "encoding": "bytes",
        "label": "string",
        "numberOfBytes": "32"
      },
      "t_struct(ChainData)4488_storage": {
        "encoding": "inplace",
        "label": "struct MessageV3ClientUpgradeable.ChainData",
        "members": [
          {
            "astId": 4481,
            "contract": "contracts/SimpleNFT.sol:SimpleNFT",
            "label": "fee",
            "offset": 0,
            "slot": "0",
            "type": "t_uint256"
          },
          {
            "astId": 4483,
            "contract": "contracts/SimpleNFT.sol:SimpleNFT",
            "label": "price",
            "offset": 0,
            "slot": "1",
            "type": "t_uint256"
          },
          {
            "astId": 4485,
            "contract": "contracts/SimpleNFT.sol:SimpleNFT",
            "label": "endpoint",
            "offset": 0,
            "slot": "2",
            "type": "t_address"
          },
          {
            "astId": 4487,
            "contract": "contracts/SimpleNFT.sol:SimpleNFT",
            "label": "confirmations",
            "offset": 20,
            "slot": "2",
            "type": "t_uint16"
          }
        ],
        "numberOfBytes": "96"
      },
      "t_struct(Counter)4272_storage": {
        "encoding": "inplace",
        "label": "struct Counters.Counter",
        "members": [
          {
            "astId": 4271,
            "contract": "contracts/SimpleNFT.sol:SimpleNFT",
            "label": "_value",
            "offset": 0,
            "slot": "0",
            "type": "t_uint256"
          }
        ],
        "numberOfBytes": "32"
      },
      "t_uint16": {
        "encoding": "inplace",
        "label": "uint16",
        "numberOfBytes": "2"
      },
      "t_uint256": {
        "encoding": "inplace",
        "label": "uint256",
        "numberOfBytes": "32"
      },
      "t_uint8": {
        "encoding": "inplace",
        "label": "uint8",
        "numberOfBytes": "1"
      }
    }
  }
}