{
  "_format": "hh-sol-artifact-1",
  "contractName": "MockWETH",
  "sourceName": "contracts/mocks/MockWETH.sol",
  "abi": [
    {
      "inputs": [],
      "payable": false,
      "stateMutability": "nonpayable",
      "type": "constructor"
    },
    {
      "anonymous": false,
      "inputs": [
        {
          "indexed": true,
          "internalType": "address",
          "name": "owner",
          "type": "address"
        },
        {
          "indexed": true,
          "internalType": "address",
          "name": "spender",
          "type": "address"
        },
        {
          "indexed": false,
          "internalType": "uint256",
          "name": "value",
          "type": "uint256"
        }
      ],
      "name": "Approval",
      "type": "event"
    },
    {
      "anonymous": false,
      "inputs": [
        {
          "indexed": false,
          "internalType": "address",
          "name": "account",
          "type": "address"
        }
      ],
      "name": "Paused",
      "type": "event"
    },
    {
      "anonymous": false,
      "inputs": [
        {
          "indexed": true,
          "internalType": "address",
          "name": "account",
          "type": "address"
        }
      ],
      "name": "PauserAdded",
      "type": "event"
    },
    {
      "anonymous": false,
      "inputs": [
        {
          "indexed": true,
          "internalType": "address",
          "name": "account",
          "type": "address"
        }
      ],
      "name": "PauserRemoved",
      "type": "event"
    },
    {
      "anonymous": false,
      "inputs": [
        {
          "indexed": true,
          "internalType": "address",
          "name": "from",
          "type": "address"
        },
        {
          "indexed": true,
          "internalType": "address",
          "name": "to",
          "type": "address"
        },
        {
          "indexed": false,
          "internalType": "uint256",
          "name": "value",
          "type": "uint256"
        }
      ],
      "name": "Transfer",
      "type": "event"
    },
    {
      "anonymous": false,
      "inputs": [
        {
          "indexed": false,
          "internalType": "address",
          "name": "account",
          "type": "address"
        }
      ],
      "name": "Unpaused",
      "type": "event"
    },
    {
      "constant": true,
      "inputs": [],
      "name": "ERR_INVALID_ZERO_VALUE",
      "outputs": [
        {
          "internalType": "uint256",
          "name": "",
          "type": "uint256"
        }
      ],
      "payable": false,
      "stateMutability": "view",
      "type": "function"
    },
    {
      "constant": true,
      "inputs": [],
      "name": "ERR_NO_ERROR",
      "outputs": [
        {
          "internalType": "uint256",
          "name": "",
          "type": "uint256"
        }
      ],
      "payable": false,
      "stateMutability": "view",
      "type": "function"
    },
    {
      "constant": false,
      "inputs": [
        {
          "internalType": "address",
          "name": "account",
          "type": "address"
        }
      ],
      "name": "addPauser",
      "outputs": [],
      "payable": false,
      "stateMutability": "nonpayable",
      "type": "function"
    },
    {
      "constant": true,
      "inputs": [
        {
          "internalType": "address",
          "name": "owner",
          "type": "address"
        },
        {
          "internalType": "address",
          "name": "spender",
          "type": "address"
        }
      ],
      "name": "allowance",
      "outputs": [
        {
          "internalType": "uint256",
          "name": "",
          "type": "uint256"
        }
      ],
      "payable": false,
      "stateMutability": "view",
      "type": "function"
    },
    {
      "constant": false,
      "inputs": [
        {
          "internalType": "address",
          "name": "spender",
          "type": "address"
        },
        {
          "internalType": "uint256",
          "name": "value",
          "type": "uint256"
        }
      ],
      "name": "approve",
      "outputs": [
        {
          "internalType": "bool",
          "name": "",
          "type": "bool"
        }
      ],
      "payable": false,
      "stateMutability": "nonpayable",
      "type": "function"
    },
    {
      "constant": true,
      "inputs": [
        {
          "internalType": "address",
          "name": "account",
          "type": "address"
        }
      ],
      "name": "balanceOf",
      "outputs": [
        {
          "internalType": "uint256",
          "name": "",
          "type": "uint256"
        }
      ],
      "payable": false,
      "stateMutability": "view",
      "type": "function"
    },
    {
      "constant": true,
      "inputs": [],
      "name": "decimals",
      "outputs": [
        {
          "internalType": "uint8",
          "name": "",
          "type": "uint8"
        }
      ],
      "payable": false,
      "stateMutability": "view",
      "type": "function"
    },
    {
      "constant": false,
      "inputs": [
        {
          "internalType": "address",
          "name": "spender",
          "type": "address"
        },
        {
          "internalType": "uint256",
          "name": "subtractedValue",
          "type": "uint256"
        }
      ],
      "name": "decreaseAllowance",
      "outputs": [
        {
          "internalType": "bool",
          "name": "",
          "type": "bool"
        }
      ],
      "payable": false,
      "stateMutability": "nonpayable",
      "type": "function"
    },
    {
      "constant": false,
      "inputs": [],
      "name": "deposit",
      "outputs": [
        {
          "internalType": "uint256",
          "name": "",
          "type": "uint256"
        }
      ],
      "payable": true,
      "stateMutability": "payable",
      "type": "function"
    },
    {
      "constant": false,
      "inputs": [
        {
          "internalType": "address",
          "name": "spender",
          "type": "address"
        },
        {
          "internalType": "uint256",
          "name": "addedValue",
          "type": "uint256"
        }
      ],
      "name": "increaseAllowance",
      "outputs": [
        {
          "internalType": "bool",
          "name": "",
          "type": "bool"
        }
      ],
      "payable": false,
      "stateMutability": "nonpayable",
      "type": "function"
    },
    {
      "constant": true,
      "inputs": [
        {
          "internalType": "address",
          "name": "account",
          "type": "address"
        }
      ],
      "name": "isPauser",
      "outputs": [
        {
          "internalType": "bool",
          "name": "",
          "type": "bool"
        }
      ],
      "payable": false,
      "stateMutability": "view",
      "type": "function"
    },
    {
      "constant": true,
      "inputs": [],
      "name": "name",
      "outputs": [
        {
          "internalType": "string",
          "name": "",
          "type": "string"
        }
      ],
      "payable": false,
      "stateMutability": "view",
      "type": "function"
    },
    {
      "constant": false,
      "inputs": [],
      "name": "pause",
      "outputs": [],
      "payable": false,
      "stateMutability": "nonpayable",
      "type": "function"
    },
    {
      "constant": true,
      "inputs": [],
      "name": "paused",
      "outputs": [
        {
          "internalType": "bool",
          "name": "",
          "type": "bool"
        }
      ],
      "payable": false,
      "stateMutability": "view",
      "type": "function"
    },
    {
      "constant": false,
      "inputs": [],
      "name": "renouncePauser",
      "outputs": [],
      "payable": false,
      "stateMutability": "nonpayable",
      "type": "function"
    },
    {
      "constant": true,
      "inputs": [],
      "name": "symbol",
      "outputs": [
        {
          "internalType": "string",
          "name": "",
          "type": "string"
        }
      ],
      "payable": false,
      "stateMutability": "view",
      "type": "function"
    },
    {
      "constant": true,
      "inputs": [],
      "name": "totalSupply",
      "outputs": [
        {
          "internalType": "uint256",
          "name": "",
          "type": "uint256"
        }
      ],
      "payable": false,
      "stateMutability": "view",
      "type": "function"
    },
    {
      "constant": false,
      "inputs": [
        {
          "internalType": "address",
          "name": "to",
          "type": "address"
        },
        {
          "internalType": "uint256",
          "name": "value",
          "type": "uint256"
        }
      ],
      "name": "transfer",
      "outputs": [
        {
          "internalType": "bool",
          "name": "",
          "type": "bool"
        }
      ],
      "payable": false,
      "stateMutability": "nonpayable",
      "type": "function"
    },
    {
      "constant": false,
      "inputs": [
        {
          "internalType": "address",
          "name": "from",
          "type": "address"
        },
        {
          "internalType": "address",
          "name": "to",
          "type": "address"
        },
        {
          "internalType": "uint256",
          "name": "value",
          "type": "uint256"
        }
      ],
      "name": "transferFrom",
      "outputs": [
        {
          "internalType": "bool",
          "name": "",
          "type": "bool"
        }
      ],
      "payable": false,
      "stateMutability": "nonpayable",
      "type": "function"
    },
    {
      "constant": false,
      "inputs": [],
      "name": "unpause",
      "outputs": [],
      "payable": false,
      "stateMutability": "nonpayable",
      "type": "function"
    },
    {
      "constant": false,
      "inputs": [
        {
          "internalType": "uint256",
          "name": "amount",
          "type": "uint256"
        }
      ],
      "name": "withdraw",
      "outputs": [
        {
          "internalType": "uint256",
          "name": "",
          "type": "uint256"
        }
      ],
      "payable": false,
      "stateMutability": "nonpayable",
      "type": "function"
    }
  ],
  "bytecode": "0x60806040523480156200001157600080fd5b506040805180820182526005808252640e8ae8aa8960db1b602080840182815285518087019096529285528401528151919291601291620000569160039190620001fe565b5081516200006c906004906020850190620001fe565b506005805460ff191660ff9290921691909117905550620000a1905062000092620000b1565b6001600160e01b03620000b616565b6007805460ff19169055620002a0565b335b90565b620000d18160066200010860201b620013871790919060201c565b6040516001600160a01b038216907f6719d08c1888103bea251a4ed56406bd0c3e69723c8a1686e017e7bbe159b6f890600090a250565b6200011d82826001600160e01b036200019516565b1562000170576040805162461bcd60e51b815260206004820152601f60248201527f526f6c65733a206163636f756e7420616c72656164792068617320726f6c6500604482015290519081900360640190fd5b6001600160a01b0316600090815260209190915260409020805460ff19166001179055565b60006001600160a01b038216620001de5760405162461bcd60e51b8152600401808060200182810382526022815260200180620018a46022913960400191505060405180910390fd5b506001600160a01b03166000908152602091909152604090205460ff1690565b828054600181600116156101000203166002900490600052602060002090601f016020900481019282601f106200024157805160ff191683800117855562000271565b8280016001018555821562000271579182015b828111156200027157825182559160200191906001019062000254565b506200027f92915062000283565b5090565b620000b391905b808211156200027f57600081556001016200028a565b6115f480620002b06000396000f3fe60806040526004361061012a5760003560e01c80635c975abb116100ab5780638456cb591161006f5780638456cb591461040257806395d89b4114610417578063a457c2d71461042c578063a9059cbb14610465578063d0e30db01461049e578063dd62ed3e146104a65761012a565b80635c975abb1461035d5780636d7497b3146103725780636ef8d66d1461038757806370a082311461039c57806382dc1ec4146103cf5761012a565b8063313ce567116100f2578063313ce5671461029a57806335052d6e146102c557806339509351146102da5780633f4ba83a1461031357806346fbf68e1461032a5761012a565b806306fdde031461012f578063095ea7b3146101b957806318160ddd1461020657806323b872dd1461022d5780632e1a7d4d14610270575b600080fd5b34801561013b57600080fd5b506101446104e1565b6040805160208082528351818301528351919283929083019185019080838360005b8381101561017e578181015183820152602001610166565b50505050905090810190601f1680156101ab5780820380516001836020036101000a031916815260200191505b509250505060405180910390f35b3480156101c557600080fd5b506101f2600480360360408110156101dc57600080fd5b506001600160a01b038135169060200135610578565b604080519115158252519081900360200190f35b34801561021257600080fd5b5061021b6105d7565b60408051918252519081900360200190f35b34801561023957600080fd5b506101f26004803603606081101561025057600080fd5b506001600160a01b038135811691602081013590911690604001356105dd565b34801561027c57600080fd5b5061021b6004803603602081101561029357600080fd5b503561063e565b3480156102a657600080fd5b506102af6106db565b6040805160ff9092168252519081900360200190f35b3480156102d157600080fd5b5061021b6106e4565b3480156102e657600080fd5b506101f2600480360360408110156102fd57600080fd5b506001600160a01b0381351690602001356106e9565b34801561031f57600080fd5b50610328610741565b005b34801561033657600080fd5b506101f26004803603602081101561034d57600080fd5b50356001600160a01b031661082a565b34801561036957600080fd5b506101f2610843565b34801561037e57600080fd5b5061021b61084c565b34801561039357600080fd5b50610328610851565b3480156103a857600080fd5b5061021b600480360360208110156103bf57600080fd5b50356001600160a01b0316610863565b3480156103db57600080fd5b50610328600480360360208110156103f257600080fd5b50356001600160a01b031661087e565b34801561040e57600080fd5b506103286108d0565b34801561042357600080fd5b50610144610997565b34801561043857600080fd5b506101f26004803603604081101561044f57600080fd5b506001600160a01b0381351690602001356109f8565b34801561047157600080fd5b506101f26004803603604081101561048857600080fd5b506001600160a01b038135169060200135610a50565b61021b610aa8565b3480156104b257600080fd5b5061021b600480360360408110156104c957600080fd5b506001600160a01b0381358116916020013516610b13565b60038054604080516020601f600260001961010060018816150201909516949094049384018190048102820181019092528281526060939092909183018282801561056d5780601f106105425761010080835404028352916020019161056d565b820191906000526020600020905b81548152906001019060200180831161055057829003601f168201915b505050505090505b90565b60075460009060ff16156105c6576040805162461bcd60e51b815260206004820152601060248201526f14185d5cd8589b194e881c185d5cd95960821b604482015290519081900360640190fd5b6105d08383610b3e565b9392505050565b60025490565b60075460009060ff161561062b576040805162461bcd60e51b815260206004820152601060248201526f14185d5cd8589b194e881c185d5cd95960821b604482015290519081900360640190fd5b610636848484610b5b565b949350505050565b60075460009060ff161561068c576040805162461bcd60e51b815260206004820152601060248201526f14185d5cd8589b194e881c185d5cd95960821b604482015290519081900360640190fd5b81610699575060016106d6565b6106a33383610be8565b604051339083156108fc029084906000818181858888f193505050501580156106d0573d6000803e3d6000fd5b50600090505b919050565b60055460ff1690565b600081565b60075460009060ff1615610737576040805162461bcd60e51b815260206004820152601060248201526f14185d5cd8589b194e881c185d5cd95960821b604482015290519081900360640190fd5b6105d08383610ce4565b61075161074c610d38565b61082a565b61078c5760405162461bcd60e51b815260040180806020018281038252603081526020018061144e6030913960400191505060405180910390fd5b60075460ff166107da576040805162461bcd60e51b815260206004820152601460248201527314185d5cd8589b194e881b9bdd081c185d5cd95960621b604482015290519081900360640190fd5b6007805460ff191690557f5db9ee0a495bf2e6ff9c91a7834c1ba4fdd244a5e8aa4e537bd38aeae4b073aa61080d610d38565b604080516001600160a01b039092168252519081900360200190a1565b600061083d60068363ffffffff610d3c16565b92915050565b60075460ff1690565b600181565b61086161085c610d38565b610da3565b565b6001600160a01b031660009081526020819052604090205490565b61088961074c610d38565b6108c45760405162461bcd60e51b815260040180806020018281038252603081526020018061144e6030913960400191505060405180910390fd5b6108cd81610deb565b50565b6108db61074c610d38565b6109165760405162461bcd60e51b815260040180806020018281038252603081526020018061144e6030913960400191505060405180910390fd5b60075460ff1615610961576040805162461bcd60e51b815260206004820152601060248201526f14185d5cd8589b194e881c185d5cd95960821b604482015290519081900360640190fd5b6007805460ff191660011790557f62e78cea01bee320cd4e420270b5ea74000d11b0c9f74754ebdbfc544b05a25861080d610d38565b60048054604080516020601f600260001961010060018816150201909516949094049384018190048102820181019092528281526060939092909183018282801561056d5780601f106105425761010080835404028352916020019161056d565b60075460009060ff1615610a46576040805162461bcd60e51b815260206004820152601060248201526f14185d5cd8589b194e881c185d5cd95960821b604482015290519081900360640190fd5b6105d08383610e33565b60075460009060ff1615610a9e576040805162461bcd60e51b815260206004820152601060248201526f14185d5cd8589b194e881c185d5cd95960821b604482015290519081900360640190fd5b6105d08383610ea1565b60075460009060ff1615610af6576040805162461bcd60e51b815260206004820152601060248201526f14185d5cd8589b194e881c185d5cd95960821b604482015290519081900360640190fd5b34610b0357506001610575565b610b0d3334610eb5565b50600090565b6001600160a01b03918216600090815260016020908152604080832093909416825291909152205490565b6000610b52610b4b610d38565b8484610fa5565b50600192915050565b6000610b68848484611091565b610bde84610b74610d38565b610bd9856040518060600160405280602881526020016114e7602891396001600160a01b038a16600090815260016020526040812090610bb2610d38565b6001600160a01b03168152602081019190915260400160002054919063ffffffff6111ed16565b610fa5565b5060019392505050565b6001600160a01b038216610c2d5760405162461bcd60e51b81526004018080602001828103825260218152602001806115316021913960400191505060405180910390fd5b610c708160405180606001604052806022815260200161142c602291396001600160a01b038516600090815260208190526040902054919063ffffffff6111ed16565b6001600160a01b038316600090815260208190526040902055600254610c9c908263ffffffff61128416565b6002556040805182815290516000916001600160a01b038516917fddf252ad1be2c89b69c2b068fc378daa952ba7f163c4a11628f55a4df523b3ef9181900360200190a35050565b6000610b52610cf1610d38565b84610bd98560016000610d02610d38565b6001600160a01b03908116825260208083019390935260409182016000908120918c16815292529020549063ffffffff6112c616565b3390565b60006001600160a01b038216610d835760405162461bcd60e51b815260040180806020018281038252602281526020018061150f6022913960400191505060405180910390fd5b506001600160a01b03166000908152602091909152604090205460ff1690565b610db460068263ffffffff61132016565b6040516001600160a01b038216907fcd265ebaf09df2871cc7bd4133404a235ba12eff2041bb89d9c714a2621c7c7e90600090a250565b610dfc60068263ffffffff61138716565b6040516001600160a01b038216907f6719d08c1888103bea251a4ed56406bd0c3e69723c8a1686e017e7bbe159b6f890600090a250565b6000610b52610e40610d38565b84610bd98560405180606001604052806025815260200161159b6025913960016000610e6a610d38565b6001600160a01b03908116825260208083019390935260409182016000908120918d1681529252902054919063ffffffff6111ed16565b6000610b52610eae610d38565b8484611091565b6001600160a01b038216610f10576040805162461bcd60e51b815260206004820152601f60248201527f45524332303a206d696e7420746f20746865207a65726f206164647265737300604482015290519081900360640190fd5b600254610f23908263ffffffff6112c616565b6002556001600160a01b038216600090815260208190526040902054610f4f908263ffffffff6112c616565b6001600160a01b0383166000818152602081815260408083209490945583518581529351929391927fddf252ad1be2c89b69c2b068fc378daa952ba7f163c4a11628f55a4df523b3ef9281900390910190a35050565b6001600160a01b038316610fea5760405162461bcd60e51b81526004018080602001828103825260248152602001806115776024913960400191505060405180910390fd5b6001600160a01b03821661102f5760405162461bcd60e51b815260040180806020018281038252602281526020018061147e6022913960400191505060405180910390fd5b6001600160a01b03808416600081815260016020908152604080832094871680845294825291829020859055815185815291517f8c5be1e5ebec7d5bd14f71427d1e84f3dd0314c0f7b2291e5b200ac8c7c3b9259281900390910190a3505050565b6001600160a01b0383166110d65760405162461bcd60e51b81526004018080602001828103825260258152602001806115526025913960400191505060405180910390fd5b6001600160a01b03821661111b5760405162461bcd60e51b81526004018080602001828103825260238152602001806114096023913960400191505060405180910390fd5b61115e816040518060600160405280602681526020016114a0602691396001600160a01b038616600090815260208190526040902054919063ffffffff6111ed16565b6001600160a01b038085166000908152602081905260408082209390935590841681522054611193908263ffffffff6112c616565b6001600160a01b038084166000818152602081815260409182902094909455805185815290519193928716927fddf252ad1be2c89b69c2b068fc378daa952ba7f163c4a11628f55a4df523b3ef92918290030190a3505050565b6000818484111561127c5760405162461bcd60e51b81526004018080602001828103825283818151815260200191508051906020019080838360005b83811015611241578181015183820152602001611229565b50505050905090810190601f16801561126e5780820380516001836020036101000a031916815260200191505b509250505060405180910390fd5b505050900390565b60006105d083836040518060400160405280601e81526020017f536166654d6174683a207375627472616374696f6e206f766572666c6f7700008152506111ed565b6000828201838110156105d0576040805162461bcd60e51b815260206004820152601b60248201527f536166654d6174683a206164646974696f6e206f766572666c6f770000000000604482015290519081900360640190fd5b61132a8282610d3c565b6113655760405162461bcd60e51b81526004018080602001828103825260218152602001806114c66021913960400191505060405180910390fd5b6001600160a01b0316600090815260209190915260409020805460ff19169055565b6113918282610d3c565b156113e3576040805162461bcd60e51b815260206004820152601f60248201527f526f6c65733a206163636f756e7420616c72656164792068617320726f6c6500604482015290519081900360640190fd5b6001600160a01b0316600090815260209190915260409020805460ff1916600117905556fe45524332303a207472616e7366657220746f20746865207a65726f206164647265737345524332303a206275726e20616d6f756e7420657863656564732062616c616e6365506175736572526f6c653a2063616c6c657220646f6573206e6f742068617665207468652050617573657220726f6c6545524332303a20617070726f766520746f20746865207a65726f206164647265737345524332303a207472616e7366657220616d6f756e7420657863656564732062616c616e6365526f6c65733a206163636f756e7420646f6573206e6f74206861766520726f6c6545524332303a207472616e7366657220616d6f756e74206578636565647320616c6c6f77616e6365526f6c65733a206163636f756e7420697320746865207a65726f206164647265737345524332303a206275726e2066726f6d20746865207a65726f206164647265737345524332303a207472616e736665722066726f6d20746865207a65726f206164647265737345524332303a20617070726f76652066726f6d20746865207a65726f206164647265737345524332303a2064656372656173656420616c6c6f77616e63652062656c6f77207a65726fa265627a7a723158204f417a1f8169dab4dbb0a007a262ca9e60805c7db3db5f9011dce767cbfaed2164736f6c63430005100032526f6c65733a206163636f756e7420697320746865207a65726f2061646472657373",
  "linkReferences": {},
  "deployedLinkReferences": {}
}